{
	"contracts/NftAuction.sol": {
		"NftAuction": {
			"abi": [
				{
					"inputs": [
						{
							"internalType": "address",
							"name": "target",
							"type": "address"
						}
					],
					"name": "AddressEmptyCode",
					"type": "error"
				},
				{
					"inputs": [
						{
							"internalType": "address",
							"name": "implementation",
							"type": "address"
						}
					],
					"name": "ERC1967InvalidImplementation",
					"type": "error"
				},
				{
					"inputs": [],
					"name": "ERC1967NonPayable",
					"type": "error"
				},
				{
					"inputs": [],
					"name": "FailedCall",
					"type": "error"
				},
				{
					"inputs": [],
					"name": "InvalidInitialization",
					"type": "error"
				},
				{
					"inputs": [],
					"name": "NotInitializing",
					"type": "error"
				},
				{
					"inputs": [],
					"name": "UUPSUnauthorizedCallContext",
					"type": "error"
				},
				{
					"inputs": [
						{
							"internalType": "bytes32",
							"name": "slot",
							"type": "bytes32"
						}
					],
					"name": "UUPSUnsupportedProxiableUUID",
					"type": "error"
				},
				{
					"anonymous": false,
					"inputs": [
						{
							"indexed": false,
							"internalType": "uint64",
							"name": "version",
							"type": "uint64"
						}
					],
					"name": "Initialized",
					"type": "event"
				},
				{
					"anonymous": false,
					"inputs": [
						{
							"indexed": true,
							"internalType": "address",
							"name": "implementation",
							"type": "address"
						}
					],
					"name": "Upgraded",
					"type": "event"
				},
				{
					"inputs": [],
					"name": "UPGRADE_INTERFACE_VERSION",
					"outputs": [
						{
							"internalType": "string",
							"name": "",
							"type": "string"
						}
					],
					"stateMutability": "view",
					"type": "function"
				},
				{
					"inputs": [],
					"name": "admin",
					"outputs": [
						{
							"internalType": "address",
							"name": "",
							"type": "address"
						}
					],
					"stateMutability": "view",
					"type": "function"
				},
				{
					"inputs": [
						{
							"internalType": "uint256",
							"name": "",
							"type": "uint256"
						}
					],
					"name": "auctions",
					"outputs": [
						{
							"internalType": "address",
							"name": "nftContract",
							"type": "address"
						},
						{
							"internalType": "uint256",
							"name": "tokenId",
							"type": "uint256"
						},
						{
							"internalType": "address",
							"name": "seller",
							"type": "address"
						},
						{
							"internalType": "uint256",
							"name": "duration",
							"type": "uint256"
						},
						{
							"internalType": "uint256",
							"name": "startPrice",
							"type": "uint256"
						},
						{
							"internalType": "uint256",
							"name": "startTime",
							"type": "uint256"
						},
						{
							"internalType": "bool",
							"name": "ended",
							"type": "bool"
						},
						{
							"internalType": "address",
							"name": "highestBidder",
							"type": "address"
						},
						{
							"internalType": "uint256",
							"name": "highestBid",
							"type": "uint256"
						},
						{
							"internalType": "address",
							"name": "tokenAddress",
							"type": "address"
						}
					],
					"stateMutability": "view",
					"type": "function"
				},
				{
					"inputs": [
						{
							"internalType": "uint256",
							"name": "_duration",
							"type": "uint256"
						},
						{
							"internalType": "uint256",
							"name": "_startPrice",
							"type": "uint256"
						},
						{
							"internalType": "address",
							"name": "_nftAddress",
							"type": "address"
						},
						{
							"internalType": "uint256",
							"name": "tokenId",
							"type": "uint256"
						}
					],
					"name": "createAuction",
					"outputs": [],
					"stateMutability": "nonpayable",
					"type": "function"
				},
				{
					"inputs": [
						{
							"internalType": "uint256",
							"name": "_auctionId",
							"type": "uint256"
						}
					],
					"name": "endAuction",
					"outputs": [],
					"stateMutability": "nonpayable",
					"type": "function"
				},
				{
					"inputs": [],
					"name": "getLatestPrice",
					"outputs": [
						{
							"internalType": "int256",
							"name": "",
							"type": "int256"
						}
					],
					"stateMutability": "view",
					"type": "function"
				},
				{
					"inputs": [],
					"name": "initialize",
					"outputs": [],
					"stateMutability": "nonpayable",
					"type": "function"
				},
				{
					"inputs": [],
					"name": "nextAuctionId",
					"outputs": [
						{
							"internalType": "uint256",
							"name": "",
							"type": "uint256"
						}
					],
					"stateMutability": "view",
					"type": "function"
				},
				{
					"inputs": [
						{
							"internalType": "uint256",
							"name": "_auctionId",
							"type": "uint256"
						},
						{
							"internalType": "uint256",
							"name": "_amount",
							"type": "uint256"
						},
						{
							"internalType": "address",
							"name": "_tokenAddress",
							"type": "address"
						}
					],
					"name": "placeBid",
					"outputs": [],
					"stateMutability": "payable",
					"type": "function"
				},
				{
					"inputs": [],
					"name": "proxiableUUID",
					"outputs": [
						{
							"internalType": "bytes32",
							"name": "",
							"type": "bytes32"
						}
					],
					"stateMutability": "view",
					"type": "function"
				},
				{
					"inputs": [
						{
							"internalType": "address",
							"name": "_priceFeed",
							"type": "address"
						}
					],
					"name": "setPriceFeed",
					"outputs": [],
					"stateMutability": "nonpayable",
					"type": "function"
				},
				{
					"inputs": [
						{
							"internalType": "address",
							"name": "newImplementation",
							"type": "address"
						},
						{
							"internalType": "bytes",
							"name": "data",
							"type": "bytes"
						}
					],
					"name": "upgradeToAndCall",
					"outputs": [],
					"stateMutability": "payable",
					"type": "function"
				},
				{
					"stateMutability": "payable",
					"type": "receive"
				}
			],
			"devdoc": {
				"errors": {
					"AddressEmptyCode(address)": [
						{
							"details": "There's no code at `target` (it is not a contract)."
						}
					],
					"ERC1967InvalidImplementation(address)": [
						{
							"details": "The `implementation` of the proxy is invalid."
						}
					],
					"ERC1967NonPayable()": [
						{
							"details": "An upgrade function sees `msg.value > 0` that may be lost."
						}
					],
					"FailedCall()": [
						{
							"details": "A call to an address target failed. The target may have reverted."
						}
					],
					"InvalidInitialization()": [
						{
							"details": "The contract is already initialized."
						}
					],
					"NotInitializing()": [
						{
							"details": "The contract is not initializing."
						}
					],
					"UUPSUnauthorizedCallContext()": [
						{
							"details": "The call is from an unauthorized context."
						}
					],
					"UUPSUnsupportedProxiableUUID(bytes32)": [
						{
							"details": "The storage `slot` is unsupported as a UUID."
						}
					]
				},
				"events": {
					"Initialized(uint64)": {
						"details": "Triggered when the contract has been initialized or reinitialized."
					},
					"Upgraded(address)": {
						"details": "Emitted when the implementation is upgraded."
					}
				},
				"kind": "dev",
				"methods": {
					"proxiableUUID()": {
						"details": "Implementation of the ERC-1822 {proxiableUUID} function. This returns the storage slot used by the implementation. It is used to validate the implementation's compatibility when performing an upgrade. IMPORTANT: A proxy pointing at a proxiable contract should not be considered proxiable itself, because this risks bricking a proxy that upgrades to it, by delegating to itself until out of gas. Thus it is critical that this function revert if invoked through a proxy. This is guaranteed by the `notDelegated` modifier."
					},
					"upgradeToAndCall(address,bytes)": {
						"custom:oz-upgrades-unsafe-allow-reachable": "delegatecall",
						"details": "Upgrade the implementation of the proxy to `newImplementation`, and subsequently execute the function call encoded in `data`. Calls {_authorizeUpgrade}. Emits an {Upgraded} event."
					}
				},
				"version": 1
			},
			"evm": {
				"assembly": "    /* \"contracts/NftAuction.sol\":403:4341  contract NftAuction is Initializable, UUPSUpgradeable {... */\n  mstore(0x40, 0xa0)\n    /* \"@openzeppelin/contracts-upgradeable/proxy/utils/UUPSUpgradeable.sol\":1171:1175  this */\n  address\n    /* \"@openzeppelin/contracts-upgradeable/proxy/utils/UUPSUpgradeable.sol\":1128:1176  address private immutable __self = address(this) */\n  0xffffffffffffffffffffffffffffffffffffffff\n  and\n  0x80\n  swap1\n  0xffffffffffffffffffffffffffffffffffffffff\n  and\n  dup2\n  mstore\n  pop\n    /* \"contracts/NftAuction.sol\":403:4341  contract NftAuction is Initializable, UUPSUpgradeable {... */\n  callvalue\n  dup1\n  iszero\n  tag_1\n  jumpi\n  revert(0x00, 0x00)\ntag_1:\n  pop\n  mload(0x80)\n  codecopy(0x00, dataOffset(sub_0), dataSize(sub_0))\n  0x00\n  assignImmutable(\"0xb8af24a884ce251f7b69c435d70b26b4d69041695ff24aab1b55d194a3fdd883\")\n  return(0x00, dataSize(sub_0))\nstop\n\nsub_0: assembly {\n        /* \"contracts/NftAuction.sol\":403:4341  contract NftAuction is Initializable, UUPSUpgradeable {... */\n      mstore(0x40, 0x80)\n      jumpi(tag_1, lt(calldatasize, 0x04))\n      shr(0xe0, calldataload(0x00))\n      dup1\n      0xad3cb1cc\n      gt\n      tag_15\n      jumpi\n      dup1\n      0xad3cb1cc\n      eq\n      tag_9\n      jumpi\n      dup1\n      0xad6561ec\n      eq\n      tag_10\n      jumpi\n      dup1\n      0xb1cb48ef\n      eq\n      tag_11\n      jumpi\n      dup1\n      0xb9a2de3a\n      eq\n      tag_12\n      jumpi\n      dup1\n      0xf851a440\n      eq\n      tag_13\n      jumpi\n      dup1\n      0xfc528482\n      eq\n      tag_14\n      jumpi\n      jump(tag_2)\n    tag_15:\n      dup1\n      0x4f1ef286\n      eq\n      tag_3\n      jumpi\n      dup1\n      0x52d1902d\n      eq\n      tag_4\n      jumpi\n      dup1\n      0x571a26a0\n      eq\n      tag_5\n      jumpi\n      dup1\n      0x724e78da\n      eq\n      tag_6\n      jumpi\n      dup1\n      0x8129fc1c\n      eq\n      tag_7\n      jumpi\n      dup1\n      0x8e15f473\n      eq\n      tag_8\n      jumpi\n      jump(tag_2)\n    tag_1:\n      jumpi(tag_2, calldatasize)\n      stop\n    tag_2:\n      revert(0x00, 0x00)\n        /* \"@openzeppelin/contracts-upgradeable/proxy/utils/UUPSUpgradeable.sol\":4161:4375  function upgradeToAndCall(address newImplementation, bytes memory data) public payable virtual onlyProxy {... */\n    tag_3:\n      tag_18\n      0x04\n      dup1\n      calldatasize\n      sub\n      dup2\n      add\n      swap1\n      tag_19\n      swap2\n      swap1\n      tag_20\n      jump\t// in\n    tag_19:\n      tag_21\n      jump\t// in\n    tag_18:\n      stop\n        /* \"@openzeppelin/contracts-upgradeable/proxy/utils/UUPSUpgradeable.sol\":3708:3842  function proxiableUUID() external view virtual notDelegated returns (bytes32) {... */\n    tag_4:\n      callvalue\n      dup1\n      iszero\n      tag_22\n      jumpi\n      revert(0x00, 0x00)\n    tag_22:\n      pop\n      tag_23\n      tag_24\n      jump\t// in\n    tag_23:\n      mload(0x40)\n      tag_25\n      swap2\n      swap1\n      tag_26\n      jump\t// in\n    tag_25:\n      mload(0x40)\n      dup1\n      swap2\n      sub\n      swap1\n      return\n        /* \"contracts/NftAuction.sol\":1068:1111  mapping(uint256 => Auction) public auctions */\n    tag_5:\n      callvalue\n      dup1\n      iszero\n      tag_27\n      jumpi\n      revert(0x00, 0x00)\n    tag_27:\n      pop\n      tag_28\n      0x04\n      dup1\n      calldatasize\n      sub\n      dup2\n      add\n      swap1\n      tag_29\n      swap2\n      swap1\n      tag_30\n      jump\t// in\n    tag_29:\n      tag_31\n      jump\t// in\n    tag_28:\n      mload(0x40)\n      tag_32\n      swap11\n      swap10\n      swap9\n      swap8\n      swap7\n      swap6\n      swap5\n      swap4\n      swap3\n      swap2\n      swap1\n      tag_33\n      jump\t// in\n    tag_32:\n      mload(0x40)\n      dup1\n      swap2\n      sub\n      swap1\n      return\n        /* \"contracts/NftAuction.sol\":1358:1472  function setPriceFeed(address _priceFeed) public {... */\n    tag_6:\n      callvalue\n      dup1\n      iszero\n      tag_34\n      jumpi\n      revert(0x00, 0x00)\n    tag_34:\n      pop\n      tag_35\n      0x04\n      dup1\n      calldatasize\n      sub\n      dup2\n      add\n      swap1\n      tag_36\n      swap2\n      swap1\n      tag_37\n      jump\t// in\n    tag_36:\n      tag_38\n      jump\t// in\n    tag_35:\n      stop\n        /* \"contracts/NftAuction.sol\":1276:1352  function initialize() public initializer {... */\n    tag_7:\n      callvalue\n      dup1\n      iszero\n      tag_39\n      jumpi\n      revert(0x00, 0x00)\n    tag_39:\n      pop\n      tag_40\n      tag_41\n      jump\t// in\n    tag_40:\n      stop\n        /* \"contracts/NftAuction.sol\":1478:1792  function getLatestPrice() public view returns (int) {... */\n    tag_8:\n      callvalue\n      dup1\n      iszero\n      tag_42\n      jumpi\n      revert(0x00, 0x00)\n    tag_42:\n      pop\n      tag_43\n      tag_44\n      jump\t// in\n    tag_43:\n      mload(0x40)\n      tag_45\n      swap2\n      swap1\n      tag_46\n      jump\t// in\n    tag_45:\n      mload(0x40)\n      dup1\n      swap2\n      sub\n      swap1\n      return\n        /* \"@openzeppelin/contracts-upgradeable/proxy/utils/UUPSUpgradeable.sol\":1819:1877  string public constant UPGRADE_INTERFACE_VERSION = \"5.0.0\" */\n    tag_9:\n      callvalue\n      dup1\n      iszero\n      tag_47\n      jumpi\n      revert(0x00, 0x00)\n    tag_47:\n      pop\n      tag_48\n      tag_49\n      jump\t// in\n    tag_48:\n      mload(0x40)\n      tag_50\n      swap2\n      swap1\n      tag_51\n      jump\t// in\n    tag_50:\n      mload(0x40)\n      dup1\n      swap2\n      sub\n      swap1\n      return\n        /* \"contracts/NftAuction.sol\":2790:3584  function placeBid(... */\n    tag_10:\n      tag_52\n      0x04\n      dup1\n      calldatasize\n      sub\n      dup2\n      add\n      swap1\n      tag_53\n      swap2\n      swap1\n      tag_54\n      jump\t// in\n    tag_53:\n      tag_55\n      jump\t// in\n    tag_52:\n      stop\n        /* \"contracts/NftAuction.sol\":1818:2784  function createAuction(... */\n    tag_11:\n      callvalue\n      dup1\n      iszero\n      tag_56\n      jumpi\n      revert(0x00, 0x00)\n    tag_56:\n      pop\n      tag_57\n      0x04\n      dup1\n      calldatasize\n      sub\n      dup2\n      add\n      swap1\n      tag_58\n      swap2\n      swap1\n      tag_59\n      jump\t// in\n    tag_58:\n      tag_60\n      jump\t// in\n    tag_57:\n      stop\n        /* \"contracts/NftAuction.sol\":3610:4101  function endAuction(uint256 _auctionId) public {... */\n    tag_12:\n      callvalue\n      dup1\n      iszero\n      tag_61\n      jumpi\n      revert(0x00, 0x00)\n    tag_61:\n      pop\n      tag_62\n      0x04\n      dup1\n      calldatasize\n      sub\n      dup2\n      add\n      swap1\n      tag_63\n      swap2\n      swap1\n      tag_30\n      jump\t// in\n    tag_63:\n      tag_64\n      jump\t// in\n    tag_62:\n      stop\n        /* \"contracts/NftAuction.sol\":1199:1219  address public admin */\n    tag_13:\n      callvalue\n      dup1\n      iszero\n      tag_65\n      jumpi\n      revert(0x00, 0x00)\n    tag_65:\n      pop\n      tag_66\n      tag_67\n      jump\t// in\n    tag_66:\n      mload(0x40)\n      tag_68\n      swap2\n      swap1\n      tag_69\n      jump\t// in\n    tag_68:\n      mload(0x40)\n      dup1\n      swap2\n      sub\n      swap1\n      return\n        /* \"contracts/NftAuction.sol\":1142:1170  uint256 public nextAuctionId */\n    tag_14:\n      callvalue\n      dup1\n      iszero\n      tag_70\n      jumpi\n      revert(0x00, 0x00)\n    tag_70:\n      pop\n      tag_71\n      tag_72\n      jump\t// in\n    tag_71:\n      mload(0x40)\n      tag_73\n      swap2\n      swap1\n      tag_74\n      jump\t// in\n    tag_73:\n      mload(0x40)\n      dup1\n      swap2\n      sub\n      swap1\n      return\n        /* \"@openzeppelin/contracts-upgradeable/proxy/utils/UUPSUpgradeable.sol\":4161:4375  function upgradeToAndCall(address newImplementation, bytes memory data) public payable virtual onlyProxy {... */\n    tag_21:\n        /* \"@openzeppelin/contracts-upgradeable/proxy/utils/UUPSUpgradeable.sol\":2655:2668  _checkProxy() */\n      tag_76\n        /* \"@openzeppelin/contracts-upgradeable/proxy/utils/UUPSUpgradeable.sol\":2655:2666  _checkProxy */\n      tag_77\n        /* \"@openzeppelin/contracts-upgradeable/proxy/utils/UUPSUpgradeable.sol\":2655:2668  _checkProxy() */\n      jump\t// in\n    tag_76:\n        /* \"@openzeppelin/contracts-upgradeable/proxy/utils/UUPSUpgradeable.sol\":4276:4312  _authorizeUpgrade(newImplementation) */\n      tag_79\n        /* \"@openzeppelin/contracts-upgradeable/proxy/utils/UUPSUpgradeable.sol\":4294:4311  newImplementation */\n      dup3\n        /* \"@openzeppelin/contracts-upgradeable/proxy/utils/UUPSUpgradeable.sol\":4276:4293  _authorizeUpgrade */\n      tag_80\n        /* \"@openzeppelin/contracts-upgradeable/proxy/utils/UUPSUpgradeable.sol\":4276:4312  _authorizeUpgrade(newImplementation) */\n      jump\t// in\n    tag_79:\n        /* \"@openzeppelin/contracts-upgradeable/proxy/utils/UUPSUpgradeable.sol\":4322:4368  _upgradeToAndCallUUPS(newImplementation, data) */\n      tag_81\n        /* \"@openzeppelin/contracts-upgradeable/proxy/utils/UUPSUpgradeable.sol\":4344:4361  newImplementation */\n      dup3\n        /* \"@openzeppelin/contracts-upgradeable/proxy/utils/UUPSUpgradeable.sol\":4363:4367  data */\n      dup3\n        /* \"@openzeppelin/contracts-upgradeable/proxy/utils/UUPSUpgradeable.sol\":4322:4343  _upgradeToAndCallUUPS */\n      tag_82\n        /* \"@openzeppelin/contracts-upgradeable/proxy/utils/UUPSUpgradeable.sol\":4322:4368  _upgradeToAndCallUUPS(newImplementation, data) */\n      jump\t// in\n    tag_81:\n        /* \"@openzeppelin/contracts-upgradeable/proxy/utils/UUPSUpgradeable.sol\":4161:4375  function upgradeToAndCall(address newImplementation, bytes memory data) public payable virtual onlyProxy {... */\n      pop\n      pop\n      jump\t// out\n        /* \"@openzeppelin/contracts-upgradeable/proxy/utils/UUPSUpgradeable.sol\":3708:3842  function proxiableUUID() external view virtual notDelegated returns (bytes32) {... */\n    tag_24:\n        /* \"@openzeppelin/contracts-upgradeable/proxy/utils/UUPSUpgradeable.sol\":3777:3784  bytes32 */\n      0x00\n        /* \"@openzeppelin/contracts-upgradeable/proxy/utils/UUPSUpgradeable.sol\":2926:2946  _checkNotDelegated() */\n      tag_84\n        /* \"@openzeppelin/contracts-upgradeable/proxy/utils/UUPSUpgradeable.sol\":2926:2944  _checkNotDelegated */\n      tag_85\n        /* \"@openzeppelin/contracts-upgradeable/proxy/utils/UUPSUpgradeable.sol\":2926:2946  _checkNotDelegated() */\n      jump\t// in\n    tag_84:\n        /* \"@openzeppelin/contracts/proxy/ERC1967/ERC1967Utils.sol\":811:877  0x360894a13ba1a3210667c828492db98dca3e2076cc3735a920a3ca505d382bbc */\n      0x360894a13ba1a3210667c828492db98dca3e2076cc3735a920a3ca505d382bbc\n        /* \"@openzeppelin/contracts-upgradeable/proxy/utils/UUPSUpgradeable.sol\":3803:3835  ERC1967Utils.IMPLEMENTATION_SLOT */\n      0x00\n      shl\n        /* \"@openzeppelin/contracts-upgradeable/proxy/utils/UUPSUpgradeable.sol\":3796:3835  return ERC1967Utils.IMPLEMENTATION_SLOT */\n      swap1\n      pop\n        /* \"@openzeppelin/contracts-upgradeable/proxy/utils/UUPSUpgradeable.sol\":3708:3842  function proxiableUUID() external view virtual notDelegated returns (bytes32) {... */\n      swap1\n      jump\t// out\n        /* \"contracts/NftAuction.sol\":1068:1111  mapping(uint256 => Auction) public auctions */\n    tag_31:\n      mstore(0x20, 0x00)\n      dup1\n      0x00\n      mstore\n      keccak256(0x00, 0x40)\n      0x00\n      swap2\n      pop\n      swap1\n      pop\n      dup1\n      0x00\n      add\n      0x00\n      swap1\n      sload\n      swap1\n      0x0100\n      exp\n      swap1\n      div\n      0xffffffffffffffffffffffffffffffffffffffff\n      and\n      swap1\n      dup1\n      0x01\n      add\n      sload\n      swap1\n      dup1\n      0x02\n      add\n      0x00\n      swap1\n      sload\n      swap1\n      0x0100\n      exp\n      swap1\n      div\n      0xffffffffffffffffffffffffffffffffffffffff\n      and\n      swap1\n      dup1\n      0x03\n      add\n      sload\n      swap1\n      dup1\n      0x04\n      add\n      sload\n      swap1\n      dup1\n      0x05\n      add\n      sload\n      swap1\n      dup1\n      0x06\n      add\n      0x00\n      swap1\n      sload\n      swap1\n      0x0100\n      exp\n      swap1\n      div\n      0xff\n      and\n      swap1\n      dup1\n      0x06\n      add\n      0x01\n      swap1\n      sload\n      swap1\n      0x0100\n      exp\n      swap1\n      div\n      0xffffffffffffffffffffffffffffffffffffffff\n      and\n      swap1\n      dup1\n      0x07\n      add\n      sload\n      swap1\n      dup1\n      0x08\n      add\n      0x00\n      swap1\n      sload\n      swap1\n      0x0100\n      exp\n      swap1\n      div\n      0xffffffffffffffffffffffffffffffffffffffff\n      and\n      swap1\n      pop\n      dup11\n      jump\t// out\n        /* \"contracts/NftAuction.sol\":1358:1472  function setPriceFeed(address _priceFeed) public {... */\n    tag_38:\n        /* \"contracts/NftAuction.sol\":1454:1464  _priceFeed */\n      dup1\n        /* \"contracts/NftAuction.sol\":1417:1429  priceETHFeed */\n      0x03\n      0x00\n        /* \"contracts/NftAuction.sol\":1417:1465  priceETHFeed = AggregatorV3Interface(_priceFeed) */\n      0x0100\n      exp\n      dup2\n      sload\n      dup2\n      0xffffffffffffffffffffffffffffffffffffffff\n      mul\n      not\n      and\n      swap1\n      dup4\n      0xffffffffffffffffffffffffffffffffffffffff\n      and\n      mul\n      or\n      swap1\n      sstore\n      pop\n        /* \"contracts/NftAuction.sol\":1358:1472  function setPriceFeed(address _priceFeed) public {... */\n      pop\n      jump\t// out\n        /* \"contracts/NftAuction.sol\":1276:1352  function initialize() public initializer {... */\n    tag_41:\n        /* \"@openzeppelin/contracts-upgradeable/proxy/utils/Initializable.sol\":4158:4188  InitializableStorage storage $ */\n      0x00\n        /* \"@openzeppelin/contracts-upgradeable/proxy/utils/Initializable.sol\":4191:4217  _getInitializableStorage() */\n      tag_89\n        /* \"@openzeppelin/contracts-upgradeable/proxy/utils/Initializable.sol\":4191:4215  _getInitializableStorage */\n      tag_90\n        /* \"@openzeppelin/contracts-upgradeable/proxy/utils/Initializable.sol\":4191:4217  _getInitializableStorage() */\n      jump\t// in\n    tag_89:\n        /* \"@openzeppelin/contracts-upgradeable/proxy/utils/Initializable.sol\":4158:4217  InitializableStorage storage $ = _getInitializableStorage() */\n      swap1\n      pop\n        /* \"@openzeppelin/contracts-upgradeable/proxy/utils/Initializable.sol\":4279:4298  bool isTopLevelCall */\n      0x00\n        /* \"@openzeppelin/contracts-upgradeable/proxy/utils/Initializable.sol\":4302:4303  $ */\n      dup2\n        /* \"@openzeppelin/contracts-upgradeable/proxy/utils/Initializable.sol\":4302:4317  $._initializing */\n      0x00\n      add\n      0x08\n      swap1\n      sload\n      swap1\n      0x0100\n      exp\n      swap1\n      div\n      0xff\n      and\n        /* \"@openzeppelin/contracts-upgradeable/proxy/utils/Initializable.sol\":4301:4317  !$._initializing */\n      iszero\n        /* \"@openzeppelin/contracts-upgradeable/proxy/utils/Initializable.sol\":4279:4317  bool isTopLevelCall = !$._initializing */\n      swap1\n      pop\n        /* \"@openzeppelin/contracts-upgradeable/proxy/utils/Initializable.sol\":4327:4345  uint64 initialized */\n      0x00\n        /* \"@openzeppelin/contracts-upgradeable/proxy/utils/Initializable.sol\":4348:4349  $ */\n      dup3\n        /* \"@openzeppelin/contracts-upgradeable/proxy/utils/Initializable.sol\":4348:4362  $._initialized */\n      0x00\n      add\n      0x00\n      swap1\n      sload\n      swap1\n      0x0100\n      exp\n      swap1\n      div\n      0xffffffffffffffff\n      and\n        /* \"@openzeppelin/contracts-upgradeable/proxy/utils/Initializable.sol\":4327:4362  uint64 initialized = $._initialized */\n      swap1\n      pop\n        /* \"@openzeppelin/contracts-upgradeable/proxy/utils/Initializable.sol\":4704:4721  bool initialSetup */\n      0x00\n        /* \"@openzeppelin/contracts-upgradeable/proxy/utils/Initializable.sol\":4739:4740  0 */\n      0x00\n        /* \"@openzeppelin/contracts-upgradeable/proxy/utils/Initializable.sol\":4724:4735  initialized */\n      dup3\n        /* \"@openzeppelin/contracts-upgradeable/proxy/utils/Initializable.sol\":4724:4740  initialized == 0 */\n      0xffffffffffffffff\n      and\n      eq\n        /* \"@openzeppelin/contracts-upgradeable/proxy/utils/Initializable.sol\":4724:4758  initialized == 0 && isTopLevelCall */\n      dup1\n      iszero\n      tag_91\n      jumpi\n      pop\n        /* \"@openzeppelin/contracts-upgradeable/proxy/utils/Initializable.sol\":4744:4758  isTopLevelCall */\n      dup3\n        /* \"@openzeppelin/contracts-upgradeable/proxy/utils/Initializable.sol\":4724:4758  initialized == 0 && isTopLevelCall */\n    tag_91:\n        /* \"@openzeppelin/contracts-upgradeable/proxy/utils/Initializable.sol\":4704:4758  bool initialSetup = initialized == 0 && isTopLevelCall */\n      swap1\n      pop\n        /* \"@openzeppelin/contracts-upgradeable/proxy/utils/Initializable.sol\":4768:4785  bool construction */\n      0x00\n        /* \"@openzeppelin/contracts-upgradeable/proxy/utils/Initializable.sol\":4803:4804  1 */\n      0x01\n        /* \"@openzeppelin/contracts-upgradeable/proxy/utils/Initializable.sol\":4788:4799  initialized */\n      dup4\n        /* \"@openzeppelin/contracts-upgradeable/proxy/utils/Initializable.sol\":4788:4804  initialized == 1 */\n      0xffffffffffffffff\n      and\n      eq\n        /* \"@openzeppelin/contracts-upgradeable/proxy/utils/Initializable.sol\":4788:4838  initialized == 1 && address(this).code.length == 0 */\n      dup1\n      iszero\n      tag_92\n      jumpi\n      pop\n        /* \"@openzeppelin/contracts-upgradeable/proxy/utils/Initializable.sol\":4837:4838  0 */\n      0x00\n        /* \"@openzeppelin/contracts-upgradeable/proxy/utils/Initializable.sol\":4816:4820  this */\n      address\n        /* \"@openzeppelin/contracts-upgradeable/proxy/utils/Initializable.sol\":4808:4833  address(this).code.length */\n      0xffffffffffffffffffffffffffffffffffffffff\n      and\n      extcodesize\n        /* \"@openzeppelin/contracts-upgradeable/proxy/utils/Initializable.sol\":4808:4838  address(this).code.length == 0 */\n      eq\n        /* \"@openzeppelin/contracts-upgradeable/proxy/utils/Initializable.sol\":4788:4838  initialized == 1 && address(this).code.length == 0 */\n    tag_92:\n        /* \"@openzeppelin/contracts-upgradeable/proxy/utils/Initializable.sol\":4768:4838  bool construction = initialized == 1 && address(this).code.length == 0 */\n      swap1\n      pop\n        /* \"@openzeppelin/contracts-upgradeable/proxy/utils/Initializable.sol\":4854:4866  initialSetup */\n      dup2\n        /* \"@openzeppelin/contracts-upgradeable/proxy/utils/Initializable.sol\":4853:4866  !initialSetup */\n      iszero\n        /* \"@openzeppelin/contracts-upgradeable/proxy/utils/Initializable.sol\":4853:4883  !initialSetup && !construction */\n      dup1\n      iszero\n      tag_93\n      jumpi\n      pop\n        /* \"@openzeppelin/contracts-upgradeable/proxy/utils/Initializable.sol\":4871:4883  construction */\n      dup1\n        /* \"@openzeppelin/contracts-upgradeable/proxy/utils/Initializable.sol\":4870:4883  !construction */\n      iszero\n        /* \"@openzeppelin/contracts-upgradeable/proxy/utils/Initializable.sol\":4853:4883  !initialSetup && !construction */\n    tag_93:\n        /* \"@openzeppelin/contracts-upgradeable/proxy/utils/Initializable.sol\":4849:4940  if (!initialSetup && !construction) {... */\n      iszero\n      tag_94\n      jumpi\n        /* \"@openzeppelin/contracts-upgradeable/proxy/utils/Initializable.sol\":4906:4929  InvalidInitialization() */\n      mload(0x40)\n      0xf92ee8a900000000000000000000000000000000000000000000000000000000\n      dup2\n      mstore\n      0x04\n      add\n      mload(0x40)\n      dup1\n      swap2\n      sub\n      swap1\n      revert\n        /* \"@openzeppelin/contracts-upgradeable/proxy/utils/Initializable.sol\":4849:4940  if (!initialSetup && !construction) {... */\n    tag_94:\n        /* \"@openzeppelin/contracts-upgradeable/proxy/utils/Initializable.sol\":4966:4967  1 */\n      0x01\n        /* \"@openzeppelin/contracts-upgradeable/proxy/utils/Initializable.sol\":4949:4950  $ */\n      dup6\n        /* \"@openzeppelin/contracts-upgradeable/proxy/utils/Initializable.sol\":4949:4963  $._initialized */\n      0x00\n      add\n      0x00\n        /* \"@openzeppelin/contracts-upgradeable/proxy/utils/Initializable.sol\":4949:4967  $._initialized = 1 */\n      0x0100\n      exp\n      dup2\n      sload\n      dup2\n      0xffffffffffffffff\n      mul\n      not\n      and\n      swap1\n      dup4\n      0xffffffffffffffff\n      and\n      mul\n      or\n      swap1\n      sstore\n      pop\n        /* \"@openzeppelin/contracts-upgradeable/proxy/utils/Initializable.sol\":4981:4995  isTopLevelCall */\n      dup4\n        /* \"@openzeppelin/contracts-upgradeable/proxy/utils/Initializable.sol\":4977:5044  if (isTopLevelCall) {... */\n      iszero\n      tag_95\n      jumpi\n        /* \"@openzeppelin/contracts-upgradeable/proxy/utils/Initializable.sol\":5029:5033  true */\n      0x01\n        /* \"@openzeppelin/contracts-upgradeable/proxy/utils/Initializable.sol\":5011:5012  $ */\n      dup6\n        /* \"@openzeppelin/contracts-upgradeable/proxy/utils/Initializable.sol\":5011:5026  $._initializing */\n      0x00\n      add\n      0x08\n        /* \"@openzeppelin/contracts-upgradeable/proxy/utils/Initializable.sol\":5011:5033  $._initializing = true */\n      0x0100\n      exp\n      dup2\n      sload\n      dup2\n      0xff\n      mul\n      not\n      and\n      swap1\n      dup4\n      iszero\n      iszero\n      mul\n      or\n      swap1\n      sstore\n      pop\n        /* \"@openzeppelin/contracts-upgradeable/proxy/utils/Initializable.sol\":4977:5044  if (isTopLevelCall) {... */\n    tag_95:\n        /* \"contracts/NftAuction.sol\":1335:1345  msg.sender */\n      caller\n        /* \"contracts/NftAuction.sol\":1327:1332  admin */\n      0x02\n      0x00\n        /* \"contracts/NftAuction.sol\":1327:1345  admin = msg.sender */\n      0x0100\n      exp\n      dup2\n      sload\n      dup2\n      0xffffffffffffffffffffffffffffffffffffffff\n      mul\n      not\n      and\n      swap1\n      dup4\n      0xffffffffffffffffffffffffffffffffffffffff\n      and\n      mul\n      or\n      swap1\n      sstore\n      pop\n        /* \"@openzeppelin/contracts-upgradeable/proxy/utils/Initializable.sol\":5068:5082  isTopLevelCall */\n      dup4\n        /* \"@openzeppelin/contracts-upgradeable/proxy/utils/Initializable.sol\":5064:5165  if (isTopLevelCall) {... */\n      iszero\n      tag_97\n      jumpi\n        /* \"@openzeppelin/contracts-upgradeable/proxy/utils/Initializable.sol\":5116:5121  false */\n      0x00\n        /* \"@openzeppelin/contracts-upgradeable/proxy/utils/Initializable.sol\":5098:5099  $ */\n      dup6\n        /* \"@openzeppelin/contracts-upgradeable/proxy/utils/Initializable.sol\":5098:5113  $._initializing */\n      0x00\n      add\n      0x08\n        /* \"@openzeppelin/contracts-upgradeable/proxy/utils/Initializable.sol\":5098:5121  $._initializing = false */\n      0x0100\n      exp\n      dup2\n      sload\n      dup2\n      0xff\n      mul\n      not\n      and\n      swap1\n      dup4\n      iszero\n      iszero\n      mul\n      or\n      swap1\n      sstore\n      pop\n        /* \"@openzeppelin/contracts-upgradeable/proxy/utils/Initializable.sol\":5140:5154  Initialized(1) */\n      0xc7f505b2f371ae2175ee4913f4499e1f2633a7b5936321eed1cdaeb6115181d2\n        /* \"@openzeppelin/contracts-upgradeable/proxy/utils/Initializable.sol\":5152:5153  1 */\n      0x01\n        /* \"@openzeppelin/contracts-upgradeable/proxy/utils/Initializable.sol\":5140:5154  Initialized(1) */\n      mload(0x40)\n      tag_98\n      swap2\n      swap1\n      tag_99\n      jump\t// in\n    tag_98:\n      mload(0x40)\n      dup1\n      swap2\n      sub\n      swap1\n      log1\n        /* \"@openzeppelin/contracts-upgradeable/proxy/utils/Initializable.sol\":5064:5165  if (isTopLevelCall) {... */\n    tag_97:\n        /* \"@openzeppelin/contracts-upgradeable/proxy/utils/Initializable.sol\":4092:5171  {... */\n      pop\n      pop\n      pop\n      pop\n      pop\n        /* \"contracts/NftAuction.sol\":1276:1352  function initialize() public initializer {... */\n      jump\t// out\n        /* \"contracts/NftAuction.sol\":1478:1792  function getLatestPrice() public view returns (int) {... */\n    tag_44:\n        /* \"contracts/NftAuction.sol\":1525:1528  int */\n      0x00\n        /* \"contracts/NftAuction.sol\":1554:1568  uint80 roundID */\n      0x00\n        /* \"contracts/NftAuction.sol\":1582:1591  int price */\n      0x00\n        /* \"contracts/NftAuction.sol\":1605:1619  uint startedAt */\n      0x00\n        /* \"contracts/NftAuction.sol\":1633:1647  uint timeStamp */\n      0x00\n        /* \"contracts/NftAuction.sol\":1661:1683  uint80 answeredInRound */\n      0x00\n        /* \"contracts/NftAuction.sol\":1696:1708  priceETHFeed */\n      0x03\n      0x00\n      swap1\n      sload\n      swap1\n      0x0100\n      exp\n      swap1\n      div\n      0xffffffffffffffffffffffffffffffffffffffff\n      and\n        /* \"contracts/NftAuction.sol\":1696:1724  priceETHFeed.latestRoundData */\n      0xffffffffffffffffffffffffffffffffffffffff\n      and\n      0xfeaf968c\n        /* \"contracts/NftAuction.sol\":1696:1726  priceETHFeed.latestRoundData() */\n      mload(0x40)\n      dup2\n      0xffffffff\n      and\n      0xe0\n      shl\n      dup2\n      mstore\n      0x04\n      add\n      0xa0\n      mload(0x40)\n      dup1\n      dup4\n      sub\n      dup2\n      dup7\n      gas\n      staticcall\n      iszero\n      dup1\n      iszero\n      tag_102\n      jumpi\n      returndatacopy(0x00, 0x00, returndatasize)\n      revert(0x00, returndatasize)\n    tag_102:\n      pop\n      pop\n      pop\n      pop\n      mload(0x40)\n      returndatasize\n      not(0x1f)\n      0x1f\n      dup3\n      add\n      and\n      dup3\n      add\n      dup1\n      0x40\n      mstore\n      pop\n      dup2\n      add\n      swap1\n      tag_103\n      swap2\n      swap1\n      tag_104\n      jump\t// in\n    tag_103:\n        /* \"contracts/NftAuction.sol\":1540:1726  (... */\n      swap5\n      pop\n      swap5\n      pop\n      swap5\n      pop\n      swap5\n      pop\n      swap5\n      pop\n        /* \"contracts/NftAuction.sol\":1780:1785  price */\n      dup4\n        /* \"contracts/NftAuction.sol\":1773:1785  return price */\n      swap6\n      pop\n      pop\n      pop\n      pop\n      pop\n      pop\n        /* \"contracts/NftAuction.sol\":1478:1792  function getLatestPrice() public view returns (int) {... */\n      swap1\n      jump\t// out\n        /* \"@openzeppelin/contracts-upgradeable/proxy/utils/UUPSUpgradeable.sol\":1819:1877  string public constant UPGRADE_INTERFACE_VERSION = \"5.0.0\" */\n    tag_49:\n      mload(0x40)\n      dup1\n      0x40\n      add\n      0x40\n      mstore\n      dup1\n      0x05\n      dup2\n      mstore\n      0x20\n      add\n      0x352e302e30000000000000000000000000000000000000000000000000000000\n      dup2\n      mstore\n      pop\n      dup2\n      jump\t// out\n        /* \"contracts/NftAuction.sol\":2790:3584  function placeBid(... */\n    tag_55:\n        /* \"contracts/NftAuction.sol\":2923:2946  Auction storage auction */\n      0x00\n        /* \"contracts/NftAuction.sol\":2949:2957  auctions */\n      0x00\n        /* \"contracts/NftAuction.sol\":2949:2969  auctions[_auctionId] */\n      0x00\n        /* \"contracts/NftAuction.sol\":2958:2968  _auctionId */\n      dup6\n        /* \"contracts/NftAuction.sol\":2949:2969  auctions[_auctionId] */\n      dup2\n      mstore\n      0x20\n      add\n      swap1\n      dup2\n      mstore\n      0x20\n      add\n      0x00\n      keccak256\n        /* \"contracts/NftAuction.sol\":2923:2969  Auction storage auction = auctions[_auctionId] */\n      swap1\n      pop\n        /* \"contracts/NftAuction.sol\":3030:3035  false */\n      0x00\n        /* \"contracts/NftAuction.sol\":3000:3035  auctions[_auctionId].ended == false */\n      iszero\n      iszero\n        /* \"contracts/NftAuction.sol\":3000:3008  auctions */\n      0x00\n        /* \"contracts/NftAuction.sol\":3000:3020  auctions[_auctionId] */\n      0x00\n        /* \"contracts/NftAuction.sol\":3009:3019  _auctionId */\n      dup7\n        /* \"contracts/NftAuction.sol\":3000:3020  auctions[_auctionId] */\n      dup2\n      mstore\n      0x20\n      add\n      swap1\n      dup2\n      mstore\n      0x20\n      add\n      0x00\n      keccak256\n        /* \"contracts/NftAuction.sol\":3000:3026  auctions[_auctionId].ended */\n      0x06\n      add\n      0x00\n      swap1\n      sload\n      swap1\n      0x0100\n      exp\n      swap1\n      div\n      0xff\n      and\n        /* \"contracts/NftAuction.sol\":3000:3035  auctions[_auctionId].ended == false */\n      iszero\n      iszero\n      eq\n        /* \"contracts/NftAuction.sol\":3000:3111  auctions[_auctionId].ended == false &&... */\n      dup1\n      iszero\n      tag_106\n      jumpi\n      pop\n        /* \"contracts/NftAuction.sol\":3094:3101  auction */\n      dup1\n        /* \"contracts/NftAuction.sol\":3094:3110  auction.duration */\n      0x03\n      add\n      sload\n        /* \"contracts/NftAuction.sol\":3074:3081  auction */\n      dup2\n        /* \"contracts/NftAuction.sol\":3074:3091  auction.startTime */\n      0x05\n      add\n      sload\n        /* \"contracts/NftAuction.sol\":3074:3110  auction.startTime + auction.duration */\n      tag_107\n      swap2\n      swap1\n      tag_108\n      jump\t// in\n    tag_107:\n        /* \"contracts/NftAuction.sol\":3055:3070  block.timestamp */\n      timestamp\n        /* \"contracts/NftAuction.sol\":3055:3111  block.timestamp < (auction.startTime + auction.duration) */\n      lt\n        /* \"contracts/NftAuction.sol\":3000:3111  auctions[_auctionId].ended == false &&... */\n    tag_106:\n        /* \"contracts/NftAuction.sol\":2979:3154  require(... */\n      tag_109\n      jumpi\n      mload(0x40)\n      0x08c379a000000000000000000000000000000000000000000000000000000000\n      dup2\n      mstore\n      0x04\n      add\n      tag_110\n      swap1\n      tag_111\n      jump\t// in\n    tag_110:\n      mload(0x40)\n      dup1\n      swap2\n      sub\n      swap1\n      revert\n    tag_109:\n        /* \"contracts/NftAuction.sol\":3197:3204  auction */\n      dup1\n        /* \"contracts/NftAuction.sol\":3197:3215  auction.highestBid */\n      0x07\n      add\n      sload\n        /* \"contracts/NftAuction.sol\":3185:3194  msg.value */\n      callvalue\n        /* \"contracts/NftAuction.sol\":3185:3215  msg.value > auction.highestBid */\n      gt\n        /* \"contracts/NftAuction.sol\":3185:3249  msg.value > auction.highestBid && msg.value > auction.startPrice */\n      dup1\n      iszero\n      tag_112\n      jumpi\n      pop\n        /* \"contracts/NftAuction.sol\":3231:3238  auction */\n      dup1\n        /* \"contracts/NftAuction.sol\":3231:3249  auction.startPrice */\n      0x04\n      add\n      sload\n        /* \"contracts/NftAuction.sol\":3219:3228  msg.value */\n      callvalue\n        /* \"contracts/NftAuction.sol\":3219:3249  msg.value > auction.startPrice */\n      gt\n        /* \"contracts/NftAuction.sol\":3185:3249  msg.value > auction.highestBid && msg.value > auction.startPrice */\n    tag_112:\n        /* \"contracts/NftAuction.sol\":3164:3318  require(... */\n      tag_113\n      jumpi\n      mload(0x40)\n      0x08c379a000000000000000000000000000000000000000000000000000000000\n      dup2\n      mstore\n      0x04\n      add\n      tag_114\n      swap1\n      tag_115\n      jump\t// in\n    tag_114:\n      mload(0x40)\n      dup1\n      swap2\n      sub\n      swap1\n      revert\n    tag_113:\n        /* \"contracts/NftAuction.sol\":3406:3407  0 */\n      0x00\n        /* \"contracts/NftAuction.sol\":3373:3408  auction.highestBidder != address(0) */\n      0xffffffffffffffffffffffffffffffffffffffff\n      and\n        /* \"contracts/NftAuction.sol\":3373:3380  auction */\n      dup2\n        /* \"contracts/NftAuction.sol\":3373:3394  auction.highestBidder */\n      0x06\n      add\n      0x01\n      swap1\n      sload\n      swap1\n      0x0100\n      exp\n      swap1\n      div\n      0xffffffffffffffffffffffffffffffffffffffff\n      and\n        /* \"contracts/NftAuction.sol\":3373:3408  auction.highestBidder != address(0) */\n      0xffffffffffffffffffffffffffffffffffffffff\n      and\n      eq\n        /* \"contracts/NftAuction.sol\":3369:3494  if (auction.highestBidder != address(0)) {... */\n      tag_116\n      jumpi\n        /* \"contracts/NftAuction.sol\":3432:3439  auction */\n      dup1\n        /* \"contracts/NftAuction.sol\":3432:3453  auction.highestBidder */\n      0x06\n      add\n      0x01\n      swap1\n      sload\n      swap1\n      0x0100\n      exp\n      swap1\n      div\n      0xffffffffffffffffffffffffffffffffffffffff\n      and\n        /* \"contracts/NftAuction.sol\":3424:3463  payable(auction.highestBidder).transfer */\n      0xffffffffffffffffffffffffffffffffffffffff\n      and\n        /* \"contracts/NftAuction.sol\":3424:3483  payable(auction.highestBidder).transfer(auction.highestBid) */\n      0x08fc\n        /* \"contracts/NftAuction.sol\":3464:3471  auction */\n      dup3\n        /* \"contracts/NftAuction.sol\":3464:3482  auction.highestBid */\n      0x07\n      add\n      sload\n        /* \"contracts/NftAuction.sol\":3424:3483  payable(auction.highestBidder).transfer(auction.highestBid) */\n      swap1\n      dup2\n      iszero\n      mul\n      swap1\n      mload(0x40)\n      0x00\n      mload(0x40)\n      dup1\n      dup4\n      sub\n      dup2\n      dup6\n      dup9\n      dup9\n      call\n      swap4\n      pop\n      pop\n      pop\n      pop\n      iszero\n      dup1\n      iszero\n      tag_118\n      jumpi\n      returndatacopy(0x00, 0x00, returndatasize)\n      revert(0x00, returndatasize)\n    tag_118:\n      pop\n        /* \"contracts/NftAuction.sol\":3369:3494  if (auction.highestBidder != address(0)) {... */\n    tag_116:\n        /* \"contracts/NftAuction.sol\":3527:3537  msg.sender */\n      caller\n        /* \"contracts/NftAuction.sol\":3503:3510  auction */\n      dup2\n        /* \"contracts/NftAuction.sol\":3503:3524  auction.highestBidder */\n      0x06\n      add\n      0x01\n        /* \"contracts/NftAuction.sol\":3503:3537  auction.highestBidder = msg.sender */\n      0x0100\n      exp\n      dup2\n      sload\n      dup2\n      0xffffffffffffffffffffffffffffffffffffffff\n      mul\n      not\n      and\n      swap1\n      dup4\n      0xffffffffffffffffffffffffffffffffffffffff\n      and\n      mul\n      or\n      swap1\n      sstore\n      pop\n        /* \"contracts/NftAuction.sol\":3568:3577  msg.value */\n      callvalue\n        /* \"contracts/NftAuction.sol\":3547:3554  auction */\n      dup2\n        /* \"contracts/NftAuction.sol\":3547:3565  auction.highestBid */\n      0x07\n      add\n        /* \"contracts/NftAuction.sol\":3547:3577  auction.highestBid = msg.value */\n      dup2\n      swap1\n      sstore\n      pop\n        /* \"contracts/NftAuction.sol\":2913:3584  {... */\n      pop\n        /* \"contracts/NftAuction.sol\":2790:3584  function placeBid(... */\n      pop\n      pop\n      pop\n      jump\t// out\n        /* \"contracts/NftAuction.sol\":1818:2784  function createAuction(... */\n    tag_60:\n        /* \"contracts/NftAuction.sol\":1996:2001  admin */\n      0x02\n      0x00\n      swap1\n      sload\n      swap1\n      0x0100\n      exp\n      swap1\n      div\n      0xffffffffffffffffffffffffffffffffffffffff\n      and\n        /* \"contracts/NftAuction.sol\":1982:2001  msg.sender == admin */\n      0xffffffffffffffffffffffffffffffffffffffff\n      and\n        /* \"contracts/NftAuction.sol\":1982:1992  msg.sender */\n      caller\n        /* \"contracts/NftAuction.sol\":1982:2001  msg.sender == admin */\n      0xffffffffffffffffffffffffffffffffffffffff\n      and\n      eq\n        /* \"contracts/NftAuction.sol\":1974:2035  require(msg.sender == admin, \"Only admin can create auction\") */\n      tag_120\n      jumpi\n      mload(0x40)\n      0x08c379a000000000000000000000000000000000000000000000000000000000\n      dup2\n      mstore\n      0x04\n      add\n      tag_121\n      swap1\n      tag_122\n      jump\t// in\n    tag_121:\n      mload(0x40)\n      dup1\n      swap2\n      sub\n      swap1\n      revert\n    tag_120:\n        /* \"contracts/NftAuction.sol\":2066:2068  10 */\n      0x0a\n        /* \"contracts/NftAuction.sol\":2053:2062  _duration */\n      dup5\n        /* \"contracts/NftAuction.sol\":2053:2068  _duration >= 10 */\n      lt\n      iszero\n        /* \"contracts/NftAuction.sol\":2045:2105  require(_duration >= 10, \"Duration must be greater than 10\") */\n      tag_123\n      jumpi\n      mload(0x40)\n      0x08c379a000000000000000000000000000000000000000000000000000000000\n      dup2\n      mstore\n      0x04\n      add\n      tag_124\n      swap1\n      tag_125\n      jump\t// in\n    tag_124:\n      mload(0x40)\n      dup1\n      swap2\n      sub\n      swap1\n      revert\n    tag_123:\n        /* \"contracts/NftAuction.sol\":2137:2138  0 */\n      0x00\n        /* \"contracts/NftAuction.sol\":2123:2134  _startPrice */\n      dup4\n        /* \"contracts/NftAuction.sol\":2123:2138  _startPrice > 0 */\n      gt\n        /* \"contracts/NftAuction.sol\":2115:2177  require(_startPrice > 0, \"Start price must be greater than 0\") */\n      tag_126\n      jumpi\n      mload(0x40)\n      0x08c379a000000000000000000000000000000000000000000000000000000000\n      dup2\n      mstore\n      0x04\n      add\n      tag_127\n      swap1\n      tag_128\n      jump\t// in\n    tag_127:\n      mload(0x40)\n      dup1\n      swap2\n      sub\n      swap1\n      revert\n    tag_126:\n        /* \"contracts/NftAuction.sol\":2226:2237  _nftAddress */\n      dup2\n        /* \"contracts/NftAuction.sol\":2218:2246  IERC721(_nftAddress).approve */\n      0xffffffffffffffffffffffffffffffffffffffff\n      and\n      0x095ea7b3\n        /* \"contracts/NftAuction.sol\":2255:2259  this */\n      address\n        /* \"contracts/NftAuction.sol\":2262:2269  tokenId */\n      dup4\n        /* \"contracts/NftAuction.sol\":2218:2270  IERC721(_nftAddress).approve(address(this), tokenId) */\n      mload(0x40)\n      dup4\n      0xffffffff\n      and\n      0xe0\n      shl\n      dup2\n      mstore\n      0x04\n      add\n      tag_129\n      swap3\n      swap2\n      swap1\n      tag_130\n      jump\t// in\n    tag_129:\n      0x00\n      mload(0x40)\n      dup1\n      dup4\n      sub\n      dup2\n      0x00\n      dup8\n      dup1\n      extcodesize\n      iszero\n      dup1\n      iszero\n      tag_131\n      jumpi\n      revert(0x00, 0x00)\n    tag_131:\n      pop\n      gas\n      call\n      iszero\n      dup1\n      iszero\n      tag_133\n      jumpi\n      returndatacopy(0x00, 0x00, returndatasize)\n      revert(0x00, returndatasize)\n    tag_133:\n      pop\n      pop\n      pop\n      pop\n        /* \"contracts/NftAuction.sol\":2393:2752  Auction({... */\n      mload(0x40)\n      dup1\n      0x0140\n      add\n      0x40\n      mstore\n      dup1\n        /* \"contracts/NftAuction.sol\":2428:2439  _nftAddress */\n      dup4\n        /* \"contracts/NftAuction.sol\":2393:2752  Auction({... */\n      0xffffffffffffffffffffffffffffffffffffffff\n      and\n      dup2\n      mstore\n      0x20\n      add\n        /* \"contracts/NftAuction.sol\":2462:2469  tokenId */\n      dup3\n        /* \"contracts/NftAuction.sol\":2393:2752  Auction({... */\n      dup2\n      mstore\n      0x20\n      add\n        /* \"contracts/NftAuction.sol\":2491:2501  msg.sender */\n      caller\n        /* \"contracts/NftAuction.sol\":2393:2752  Auction({... */\n      0xffffffffffffffffffffffffffffffffffffffff\n      and\n      dup2\n      mstore\n      0x20\n      add\n        /* \"contracts/NftAuction.sol\":2525:2534  _duration */\n      dup6\n        /* \"contracts/NftAuction.sol\":2393:2752  Auction({... */\n      dup2\n      mstore\n      0x20\n      add\n        /* \"contracts/NftAuction.sol\":2560:2571  _startPrice */\n      dup5\n        /* \"contracts/NftAuction.sol\":2393:2752  Auction({... */\n      dup2\n      mstore\n      0x20\n      add\n        /* \"contracts/NftAuction.sol\":2688:2703  block.timestamp */\n      timestamp\n        /* \"contracts/NftAuction.sol\":2393:2752  Auction({... */\n      dup2\n      mstore\n      0x20\n      add\n        /* \"contracts/NftAuction.sol\":2592:2597  false */\n      0x00\n        /* \"contracts/NftAuction.sol\":2393:2752  Auction({... */\n      iszero\n      iszero\n      dup2\n      mstore\n      0x20\n      add\n        /* \"contracts/NftAuction.sol\":2634:2635  0 */\n      0x00\n        /* \"contracts/NftAuction.sol\":2393:2752  Auction({... */\n      0xffffffffffffffffffffffffffffffffffffffff\n      and\n      dup2\n      mstore\n      0x20\n      add\n        /* \"contracts/NftAuction.sol\":2662:2663  0 */\n      0x00\n        /* \"contracts/NftAuction.sol\":2393:2752  Auction({... */\n      dup2\n      mstore\n      0x20\n      add\n        /* \"contracts/NftAuction.sol\":2739:2740  0 */\n      0x00\n        /* \"contracts/NftAuction.sol\":2393:2752  Auction({... */\n      0xffffffffffffffffffffffffffffffffffffffff\n      and\n      dup2\n      mstore\n      pop\n        /* \"contracts/NftAuction.sol\":2367:2375  auctions */\n      0x00\n        /* \"contracts/NftAuction.sol\":2367:2390  auctions[nextAuctionId] */\n      0x00\n        /* \"contracts/NftAuction.sol\":2376:2389  nextAuctionId */\n      sload(0x01)\n        /* \"contracts/NftAuction.sol\":2367:2390  auctions[nextAuctionId] */\n      dup2\n      mstore\n      0x20\n      add\n      swap1\n      dup2\n      mstore\n      0x20\n      add\n      0x00\n      keccak256\n        /* \"contracts/NftAuction.sol\":2367:2752  auctions[nextAuctionId] = Auction({... */\n      0x00\n      dup3\n      add\n      mload\n      dup2\n      0x00\n      add\n      exp(0x0100, 0x00)\n      dup2\n      sload\n      dup2\n      0xffffffffffffffffffffffffffffffffffffffff\n      mul\n      not\n      and\n      swap1\n      dup4\n      0xffffffffffffffffffffffffffffffffffffffff\n      and\n      mul\n      or\n      swap1\n      sstore\n      pop\n      0x20\n      dup3\n      add\n      mload\n      dup2\n      0x01\n      add\n      sstore\n      0x40\n      dup3\n      add\n      mload\n      dup2\n      0x02\n      add\n      exp(0x0100, 0x00)\n      dup2\n      sload\n      dup2\n      0xffffffffffffffffffffffffffffffffffffffff\n      mul\n      not\n      and\n      swap1\n      dup4\n      0xffffffffffffffffffffffffffffffffffffffff\n      and\n      mul\n      or\n      swap1\n      sstore\n      pop\n      0x60\n      dup3\n      add\n      mload\n      dup2\n      0x03\n      add\n      sstore\n      0x80\n      dup3\n      add\n      mload\n      dup2\n      0x04\n      add\n      sstore\n      0xa0\n      dup3\n      add\n      mload\n      dup2\n      0x05\n      add\n      sstore\n      0xc0\n      dup3\n      add\n      mload\n      dup2\n      0x06\n      add\n      exp(0x0100, 0x00)\n      dup2\n      sload\n      dup2\n      0xff\n      mul\n      not\n      and\n      swap1\n      dup4\n      iszero\n      iszero\n      mul\n      or\n      swap1\n      sstore\n      pop\n      0xe0\n      dup3\n      add\n      mload\n      dup2\n      0x06\n      add\n      exp(0x0100, 0x01)\n      dup2\n      sload\n      dup2\n      0xffffffffffffffffffffffffffffffffffffffff\n      mul\n      not\n      and\n      swap1\n      dup4\n      0xffffffffffffffffffffffffffffffffffffffff\n      and\n      mul\n      or\n      swap1\n      sstore\n      pop\n      0x0100\n      dup3\n      add\n      mload\n      dup2\n      0x07\n      add\n      sstore\n      0x0120\n      dup3\n      add\n      mload\n      dup2\n      0x08\n      add\n      exp(0x0100, 0x00)\n      dup2\n      sload\n      dup2\n      0xffffffffffffffffffffffffffffffffffffffff\n      mul\n      not\n      and\n      swap1\n      dup4\n      0xffffffffffffffffffffffffffffffffffffffff\n      and\n      mul\n      or\n      swap1\n      sstore\n      pop\n      swap1\n      pop\n      pop\n        /* \"contracts/NftAuction.sol\":2762:2775  nextAuctionId */\n      0x01\n      0x00\n        /* \"contracts/NftAuction.sol\":2762:2777  nextAuctionId++ */\n      dup2\n      sload\n      dup1\n      swap3\n      swap2\n      swap1\n      tag_134\n      swap1\n      tag_135\n      jump\t// in\n    tag_134:\n      swap2\n      swap1\n      pop\n      sstore\n      pop\n        /* \"contracts/NftAuction.sol\":1818:2784  function createAuction(... */\n      pop\n      pop\n      pop\n      pop\n      jump\t// out\n        /* \"contracts/NftAuction.sol\":3610:4101  function endAuction(uint256 _auctionId) public {... */\n    tag_64:\n        /* \"contracts/NftAuction.sol\":3667:3690  Auction storage auction */\n      0x00\n        /* \"contracts/NftAuction.sol\":3693:3701  auctions */\n      0x00\n        /* \"contracts/NftAuction.sol\":3693:3713  auctions[_auctionId] */\n      0x00\n        /* \"contracts/NftAuction.sol\":3702:3712  _auctionId */\n      dup4\n        /* \"contracts/NftAuction.sol\":3693:3713  auctions[_auctionId] */\n      dup2\n      mstore\n      0x20\n      add\n      swap1\n      dup2\n      mstore\n      0x20\n      add\n      0x00\n      keccak256\n        /* \"contracts/NftAuction.sol\":3667:3713  Auction storage auction = auctions[_auctionId] */\n      swap1\n      pop\n        /* \"contracts/NftAuction.sol\":3748:3753  false */\n      0x00\n        /* \"contracts/NftAuction.sol\":3731:3753  auction.ended == false */\n      iszero\n      iszero\n        /* \"contracts/NftAuction.sol\":3731:3738  auction */\n      dup2\n        /* \"contracts/NftAuction.sol\":3731:3744  auction.ended */\n      0x06\n      add\n      0x00\n      swap1\n      sload\n      swap1\n      0x0100\n      exp\n      swap1\n      div\n      0xff\n      and\n        /* \"contracts/NftAuction.sol\":3731:3753  auction.ended == false */\n      iszero\n      iszero\n      eq\n        /* \"contracts/NftAuction.sol\":3723:3775  require(auction.ended == false, \"Auction has ended\") */\n      tag_137\n      jumpi\n      mload(0x40)\n      0x08c379a000000000000000000000000000000000000000000000000000000000\n      dup2\n      mstore\n      0x04\n      add\n      tag_138\n      swap1\n      tag_111\n      jump\t// in\n    tag_138:\n      mload(0x40)\n      dup1\n      swap2\n      sub\n      swap1\n      revert\n    tag_137:\n        /* \"contracts/NftAuction.sol\":3832:3839  auction */\n      dup1\n        /* \"contracts/NftAuction.sol\":3832:3851  auction.nftContract */\n      0x00\n      add\n      0x00\n      swap1\n      sload\n      swap1\n      0x0100\n      exp\n      swap1\n      div\n      0xffffffffffffffffffffffffffffffffffffffff\n      and\n        /* \"contracts/NftAuction.sol\":3824:3865  IERC721(auction.nftContract).transferFrom */\n      0xffffffffffffffffffffffffffffffffffffffff\n      and\n      0x23b872dd\n        /* \"contracts/NftAuction.sol\":3879:3884  admin */\n      0x02\n      0x00\n      swap1\n      sload\n      swap1\n      0x0100\n      exp\n      swap1\n      div\n      0xffffffffffffffffffffffffffffffffffffffff\n      and\n        /* \"contracts/NftAuction.sol\":3898:3905  auction */\n      dup4\n        /* \"contracts/NftAuction.sol\":3898:3919  auction.highestBidder */\n      0x06\n      add\n      0x01\n      swap1\n      sload\n      swap1\n      0x0100\n      exp\n      swap1\n      div\n      0xffffffffffffffffffffffffffffffffffffffff\n      and\n        /* \"contracts/NftAuction.sol\":3933:3940  auction */\n      dup5\n        /* \"contracts/NftAuction.sol\":3933:3948  auction.tokenId */\n      0x01\n      add\n      sload\n        /* \"contracts/NftAuction.sol\":3824:3958  IERC721(auction.nftContract).transferFrom(... */\n      mload(0x40)\n      dup5\n      0xffffffff\n      and\n      0xe0\n      shl\n      dup2\n      mstore\n      0x04\n      add\n      tag_139\n      swap4\n      swap3\n      swap2\n      swap1\n      tag_140\n      jump\t// in\n    tag_139:\n      0x00\n      mload(0x40)\n      dup1\n      dup4\n      sub\n      dup2\n      0x00\n      dup8\n      dup1\n      extcodesize\n      iszero\n      dup1\n      iszero\n      tag_141\n      jumpi\n      revert(0x00, 0x00)\n    tag_141:\n      pop\n      gas\n      call\n      iszero\n      dup1\n      iszero\n      tag_143\n      jumpi\n      returndatacopy(0x00, 0x00, returndatasize)\n      revert(0x00, returndatasize)\n    tag_143:\n      pop\n      pop\n      pop\n      pop\n        /* \"contracts/NftAuction.sol\":4026:4030  this */\n      address\n        /* \"contracts/NftAuction.sol\":4010:4041  payable(address(this)).transfer */\n      0xffffffffffffffffffffffffffffffffffffffff\n      and\n        /* \"contracts/NftAuction.sol\":4010:4064  payable(address(this)).transfer(address(this).balance) */\n      0x08fc\n        /* \"contracts/NftAuction.sol\":4042:4063  address(this).balance */\n      selfbalance\n        /* \"contracts/NftAuction.sol\":4010:4064  payable(address(this)).transfer(address(this).balance) */\n      swap1\n      dup2\n      iszero\n      mul\n      swap1\n      mload(0x40)\n      0x00\n      mload(0x40)\n      dup1\n      dup4\n      sub\n      dup2\n      dup6\n      dup9\n      dup9\n      call\n      swap4\n      pop\n      pop\n      pop\n      pop\n      iszero\n      dup1\n      iszero\n      tag_145\n      jumpi\n      returndatacopy(0x00, 0x00, returndatasize)\n      revert(0x00, returndatasize)\n    tag_145:\n      pop\n        /* \"contracts/NftAuction.sol\":4090:4094  true */\n      0x01\n        /* \"contracts/NftAuction.sol\":4074:4081  auction */\n      dup2\n        /* \"contracts/NftAuction.sol\":4074:4087  auction.ended */\n      0x06\n      add\n      0x00\n        /* \"contracts/NftAuction.sol\":4074:4094  auction.ended = true */\n      0x0100\n      exp\n      dup2\n      sload\n      dup2\n      0xff\n      mul\n      not\n      and\n      swap1\n      dup4\n      iszero\n      iszero\n      mul\n      or\n      swap1\n      sstore\n      pop\n        /* \"contracts/NftAuction.sol\":3657:4101  {... */\n      pop\n        /* \"contracts/NftAuction.sol\":3610:4101  function endAuction(uint256 _auctionId) public {... */\n      pop\n      jump\t// out\n        /* \"contracts/NftAuction.sol\":1199:1219  address public admin */\n    tag_67:\n      0x02\n      0x00\n      swap1\n      sload\n      swap1\n      0x0100\n      exp\n      swap1\n      div\n      0xffffffffffffffffffffffffffffffffffffffff\n      and\n      dup2\n      jump\t// out\n        /* \"contracts/NftAuction.sol\":1142:1170  uint256 public nextAuctionId */\n    tag_72:\n      sload(0x01)\n      dup2\n      jump\t// out\n        /* \"@openzeppelin/contracts-upgradeable/proxy/utils/UUPSUpgradeable.sol\":4578:4890  function _checkProxy() internal view virtual {... */\n    tag_77:\n        /* \"@openzeppelin/contracts-upgradeable/proxy/utils/UUPSUpgradeable.sol\":4667:4673  __self */\n      immutable(\"0xb8af24a884ce251f7b69c435d70b26b4d69041695ff24aab1b55d194a3fdd883\")\n        /* \"@openzeppelin/contracts-upgradeable/proxy/utils/UUPSUpgradeable.sol\":4650:4673  address(this) == __self */\n      0xffffffffffffffffffffffffffffffffffffffff\n      and\n        /* \"@openzeppelin/contracts-upgradeable/proxy/utils/UUPSUpgradeable.sol\":4658:4662  this */\n      address\n        /* \"@openzeppelin/contracts-upgradeable/proxy/utils/UUPSUpgradeable.sol\":4650:4673  address(this) == __self */\n      0xffffffffffffffffffffffffffffffffffffffff\n      and\n      eq\n        /* \"@openzeppelin/contracts-upgradeable/proxy/utils/UUPSUpgradeable.sol\":4650:4770  address(this) == __self || // Must be called through delegatecall... */\n      dup1\n      tag_147\n      jumpi\n      pop\n        /* \"@openzeppelin/contracts-upgradeable/proxy/utils/UUPSUpgradeable.sol\":4764:4770  __self */\n      immutable(\"0xb8af24a884ce251f7b69c435d70b26b4d69041695ff24aab1b55d194a3fdd883\")\n        /* \"@openzeppelin/contracts-upgradeable/proxy/utils/UUPSUpgradeable.sol\":4728:4770  ERC1967Utils.getImplementation() != __self */\n      0xffffffffffffffffffffffffffffffffffffffff\n      and\n        /* \"@openzeppelin/contracts-upgradeable/proxy/utils/UUPSUpgradeable.sol\":4728:4760  ERC1967Utils.getImplementation() */\n      tag_148\n        /* \"@openzeppelin/contracts-upgradeable/proxy/utils/UUPSUpgradeable.sol\":4728:4758  ERC1967Utils.getImplementation */\n      tag_149\n        /* \"@openzeppelin/contracts-upgradeable/proxy/utils/UUPSUpgradeable.sol\":4728:4760  ERC1967Utils.getImplementation() */\n      jump\t// in\n    tag_148:\n        /* \"@openzeppelin/contracts-upgradeable/proxy/utils/UUPSUpgradeable.sol\":4728:4770  ERC1967Utils.getImplementation() != __self */\n      0xffffffffffffffffffffffffffffffffffffffff\n      and\n      eq\n      iszero\n        /* \"@openzeppelin/contracts-upgradeable/proxy/utils/UUPSUpgradeable.sol\":4650:4770  address(this) == __self || // Must be called through delegatecall... */\n    tag_147:\n        /* \"@openzeppelin/contracts-upgradeable/proxy/utils/UUPSUpgradeable.sol\":4633:4884  if (... */\n      iszero\n      tag_150\n      jumpi\n        /* \"@openzeppelin/contracts-upgradeable/proxy/utils/UUPSUpgradeable.sol\":4844:4873  UUPSUnauthorizedCallContext() */\n      mload(0x40)\n      0xe07c8dba00000000000000000000000000000000000000000000000000000000\n      dup2\n      mstore\n      0x04\n      add\n      mload(0x40)\n      dup1\n      swap2\n      sub\n      swap1\n      revert\n        /* \"@openzeppelin/contracts-upgradeable/proxy/utils/UUPSUpgradeable.sol\":4633:4884  if (... */\n    tag_150:\n        /* \"@openzeppelin/contracts-upgradeable/proxy/utils/UUPSUpgradeable.sol\":4578:4890  function _checkProxy() internal view virtual {... */\n      jump\t// out\n        /* \"contracts/NftAuction.sol\":4177:4339  function _authorizeUpgrade(... */\n    tag_80:\n        /* \"contracts/NftAuction.sol\":4300:4305  admin */\n      0x02\n      0x00\n      swap1\n      sload\n      swap1\n      0x0100\n      exp\n      swap1\n      div\n      0xffffffffffffffffffffffffffffffffffffffff\n      and\n        /* \"contracts/NftAuction.sol\":4286:4305  msg.sender == admin */\n      0xffffffffffffffffffffffffffffffffffffffff\n      and\n        /* \"contracts/NftAuction.sol\":4286:4296  msg.sender */\n      caller\n        /* \"contracts/NftAuction.sol\":4286:4305  msg.sender == admin */\n      0xffffffffffffffffffffffffffffffffffffffff\n      and\n      eq\n        /* \"contracts/NftAuction.sol\":4278:4332  require(msg.sender == admin, \"Only admin can upgrade\") */\n      tag_152\n      jumpi\n      mload(0x40)\n      0x08c379a000000000000000000000000000000000000000000000000000000000\n      dup2\n      mstore\n      0x04\n      add\n      tag_153\n      swap1\n      tag_154\n      jump\t// in\n    tag_153:\n      mload(0x40)\n      dup1\n      swap2\n      sub\n      swap1\n      revert\n    tag_152:\n        /* \"contracts/NftAuction.sol\":4177:4339  function _authorizeUpgrade(... */\n      pop\n      jump\t// out\n        /* \"@openzeppelin/contracts-upgradeable/proxy/utils/UUPSUpgradeable.sol\":6032:6570  function _upgradeToAndCallUUPS(address newImplementation, bytes memory data) private {... */\n    tag_82:\n        /* \"@openzeppelin/contracts-upgradeable/proxy/utils/UUPSUpgradeable.sol\":6149:6166  newImplementation */\n      dup2\n        /* \"@openzeppelin/contracts-upgradeable/proxy/utils/UUPSUpgradeable.sol\":6131:6181  IERC1822Proxiable(newImplementation).proxiableUUID */\n      0xffffffffffffffffffffffffffffffffffffffff\n      and\n      0x52d1902d\n        /* \"@openzeppelin/contracts-upgradeable/proxy/utils/UUPSUpgradeable.sol\":6131:6183  IERC1822Proxiable(newImplementation).proxiableUUID() */\n      mload(0x40)\n      dup2\n      0xffffffff\n      and\n      0xe0\n      shl\n      dup2\n      mstore\n      0x04\n      add\n      0x20\n      mload(0x40)\n      dup1\n      dup4\n      sub\n      dup2\n      dup7\n      gas\n      staticcall\n      swap3\n      pop\n      pop\n      pop\n      dup1\n      iszero\n      tag_156\n      jumpi\n      pop\n      mload(0x40)\n      returndatasize\n      not(0x1f)\n      0x1f\n      dup3\n      add\n      and\n      dup3\n      add\n      dup1\n      0x40\n      mstore\n      pop\n      dup2\n      add\n      swap1\n      tag_157\n      swap2\n      swap1\n      tag_158\n      jump\t// in\n    tag_157:\n      0x01\n    tag_156:\n        /* \"@openzeppelin/contracts-upgradeable/proxy/utils/UUPSUpgradeable.sol\":6127:6564  try IERC1822Proxiable(newImplementation).proxiableUUID() returns (bytes32 slot) {... */\n      tag_159\n      jumpi\n        /* \"@openzeppelin/contracts-upgradeable/proxy/utils/UUPSUpgradeable.sol\":6535:6552  newImplementation */\n      dup2\n        /* \"@openzeppelin/contracts-upgradeable/proxy/utils/UUPSUpgradeable.sol\":6493:6553  ERC1967Utils.ERC1967InvalidImplementation(newImplementation) */\n      mload(0x40)\n      0x4c9c8ce300000000000000000000000000000000000000000000000000000000\n      dup2\n      mstore\n      0x04\n      add\n      tag_163\n      swap2\n      swap1\n      tag_69\n      jump\t// in\n    tag_163:\n      mload(0x40)\n      dup1\n      swap2\n      sub\n      swap1\n      revert\n        /* \"@openzeppelin/contracts-upgradeable/proxy/utils/UUPSUpgradeable.sol\":6127:6564  try IERC1822Proxiable(newImplementation).proxiableUUID() returns (bytes32 slot) {... */\n    tag_159:\n        /* \"@openzeppelin/contracts/proxy/ERC1967/ERC1967Utils.sol\":811:877  0x360894a13ba1a3210667c828492db98dca3e2076cc3735a920a3ca505d382bbc */\n      0x360894a13ba1a3210667c828492db98dca3e2076cc3735a920a3ca505d382bbc\n        /* \"@openzeppelin/contracts-upgradeable/proxy/utils/UUPSUpgradeable.sol\":6233:6265  ERC1967Utils.IMPLEMENTATION_SLOT */\n      0x00\n      shl\n        /* \"@openzeppelin/contracts-upgradeable/proxy/utils/UUPSUpgradeable.sol\":6225:6229  slot */\n      dup2\n        /* \"@openzeppelin/contracts-upgradeable/proxy/utils/UUPSUpgradeable.sol\":6225:6265  slot != ERC1967Utils.IMPLEMENTATION_SLOT */\n      eq\n        /* \"@openzeppelin/contracts-upgradeable/proxy/utils/UUPSUpgradeable.sol\":6221:6341  if (slot != ERC1967Utils.IMPLEMENTATION_SLOT) {... */\n      tag_165\n      jumpi\n        /* \"@openzeppelin/contracts-upgradeable/proxy/utils/UUPSUpgradeable.sol\":6321:6325  slot */\n      dup1\n        /* \"@openzeppelin/contracts-upgradeable/proxy/utils/UUPSUpgradeable.sol\":6292:6326  UUPSUnsupportedProxiableUUID(slot) */\n      mload(0x40)\n      0xaa1d49a400000000000000000000000000000000000000000000000000000000\n      dup2\n      mstore\n      0x04\n      add\n      tag_166\n      swap2\n      swap1\n      tag_26\n      jump\t// in\n    tag_166:\n      mload(0x40)\n      dup1\n      swap2\n      sub\n      swap1\n      revert\n        /* \"@openzeppelin/contracts-upgradeable/proxy/utils/UUPSUpgradeable.sol\":6221:6341  if (slot != ERC1967Utils.IMPLEMENTATION_SLOT) {... */\n    tag_165:\n        /* \"@openzeppelin/contracts-upgradeable/proxy/utils/UUPSUpgradeable.sol\":6354:6408  ERC1967Utils.upgradeToAndCall(newImplementation, data) */\n      tag_167\n        /* \"@openzeppelin/contracts-upgradeable/proxy/utils/UUPSUpgradeable.sol\":6384:6401  newImplementation */\n      dup4\n        /* \"@openzeppelin/contracts-upgradeable/proxy/utils/UUPSUpgradeable.sol\":6403:6407  data */\n      dup4\n        /* \"@openzeppelin/contracts-upgradeable/proxy/utils/UUPSUpgradeable.sol\":6354:6383  ERC1967Utils.upgradeToAndCall */\n      tag_168\n        /* \"@openzeppelin/contracts-upgradeable/proxy/utils/UUPSUpgradeable.sol\":6354:6408  ERC1967Utils.upgradeToAndCall(newImplementation, data) */\n      jump\t// in\n    tag_167:\n        /* \"@openzeppelin/contracts-upgradeable/proxy/utils/UUPSUpgradeable.sol\":6184:6419  returns (bytes32 slot) {... */\n      pop\n        /* \"@openzeppelin/contracts-upgradeable/proxy/utils/UUPSUpgradeable.sol\":6032:6570  function _upgradeToAndCallUUPS(address newImplementation, bytes memory data) private {... */\n      pop\n      pop\n      jump\t// out\n        /* \"@openzeppelin/contracts-upgradeable/proxy/utils/UUPSUpgradeable.sol\":5007:5220  function _checkNotDelegated() internal view virtual {... */\n    tag_85:\n        /* \"@openzeppelin/contracts-upgradeable/proxy/utils/UUPSUpgradeable.sol\":5090:5096  __self */\n      immutable(\"0xb8af24a884ce251f7b69c435d70b26b4d69041695ff24aab1b55d194a3fdd883\")\n        /* \"@openzeppelin/contracts-upgradeable/proxy/utils/UUPSUpgradeable.sol\":5073:5096  address(this) != __self */\n      0xffffffffffffffffffffffffffffffffffffffff\n      and\n        /* \"@openzeppelin/contracts-upgradeable/proxy/utils/UUPSUpgradeable.sol\":5081:5085  this */\n      address\n        /* \"@openzeppelin/contracts-upgradeable/proxy/utils/UUPSUpgradeable.sol\":5073:5096  address(this) != __self */\n      0xffffffffffffffffffffffffffffffffffffffff\n      and\n      eq\n        /* \"@openzeppelin/contracts-upgradeable/proxy/utils/UUPSUpgradeable.sol\":5069:5214  if (address(this) != __self) {... */\n      tag_170\n      jumpi\n        /* \"@openzeppelin/contracts-upgradeable/proxy/utils/UUPSUpgradeable.sol\":5174:5203  UUPSUnauthorizedCallContext() */\n      mload(0x40)\n      0xe07c8dba00000000000000000000000000000000000000000000000000000000\n      dup2\n      mstore\n      0x04\n      add\n      mload(0x40)\n      dup1\n      swap2\n      sub\n      swap1\n      revert\n        /* \"@openzeppelin/contracts-upgradeable/proxy/utils/UUPSUpgradeable.sol\":5069:5214  if (address(this) != __self) {... */\n    tag_170:\n        /* \"@openzeppelin/contracts-upgradeable/proxy/utils/UUPSUpgradeable.sol\":5007:5220  function _checkNotDelegated() internal view virtual {... */\n      jump\t// out\n        /* \"@openzeppelin/contracts-upgradeable/proxy/utils/Initializable.sol\":9071:9276  function _getInitializableStorage() private pure returns (InitializableStorage storage $) {... */\n    tag_90:\n        /* \"@openzeppelin/contracts-upgradeable/proxy/utils/Initializable.sol\":9129:9159  InitializableStorage storage $ */\n      0x00\n        /* \"@openzeppelin/contracts-upgradeable/proxy/utils/Initializable.sol\":9171:9183  bytes32 slot */\n      0x00\n        /* \"@openzeppelin/contracts-upgradeable/proxy/utils/Initializable.sol\":9186:9213  _initializableStorageSlot() */\n      tag_172\n        /* \"@openzeppelin/contracts-upgradeable/proxy/utils/Initializable.sol\":9186:9211  _initializableStorageSlot */\n      tag_173\n        /* \"@openzeppelin/contracts-upgradeable/proxy/utils/Initializable.sol\":9186:9213  _initializableStorageSlot() */\n      jump\t// in\n    tag_172:\n        /* \"@openzeppelin/contracts-upgradeable/proxy/utils/Initializable.sol\":9171:9213  bytes32 slot = _initializableStorageSlot() */\n      swap1\n      pop\n        /* \"@openzeppelin/contracts-upgradeable/proxy/utils/Initializable.sol\":9256:9260  slot */\n      dup1\n        /* \"@openzeppelin/contracts-upgradeable/proxy/utils/Initializable.sol\":9246:9260  $.slot := slot */\n      swap2\n      pop\n        /* \"@openzeppelin/contracts-upgradeable/proxy/utils/Initializable.sol\":9232:9270  {... */\n      pop\n        /* \"@openzeppelin/contracts-upgradeable/proxy/utils/Initializable.sol\":9071:9276  function _getInitializableStorage() private pure returns (InitializableStorage storage $) {... */\n      swap1\n      jump\t// out\n        /* \"@openzeppelin/contracts/proxy/ERC1967/ERC1967Utils.sol\":1441:1579  function getImplementation() internal view returns (address) {... */\n    tag_149:\n        /* \"@openzeppelin/contracts/proxy/ERC1967/ERC1967Utils.sol\":1493:1500  address */\n      0x00\n        /* \"@openzeppelin/contracts/proxy/ERC1967/ERC1967Utils.sol\":1519:1566  StorageSlot.getAddressSlot(IMPLEMENTATION_SLOT) */\n      tag_175\n        /* \"@openzeppelin/contracts/proxy/ERC1967/ERC1967Utils.sol\":811:877  0x360894a13ba1a3210667c828492db98dca3e2076cc3735a920a3ca505d382bbc */\n      0x360894a13ba1a3210667c828492db98dca3e2076cc3735a920a3ca505d382bbc\n        /* \"@openzeppelin/contracts/proxy/ERC1967/ERC1967Utils.sol\":1546:1565  IMPLEMENTATION_SLOT */\n      0x00\n      shl\n        /* \"@openzeppelin/contracts/proxy/ERC1967/ERC1967Utils.sol\":1519:1545  StorageSlot.getAddressSlot */\n      tag_176\n        /* \"@openzeppelin/contracts/proxy/ERC1967/ERC1967Utils.sol\":1519:1566  StorageSlot.getAddressSlot(IMPLEMENTATION_SLOT) */\n      jump\t// in\n    tag_175:\n        /* \"@openzeppelin/contracts/proxy/ERC1967/ERC1967Utils.sol\":1519:1572  StorageSlot.getAddressSlot(IMPLEMENTATION_SLOT).value */\n      0x00\n      add\n      0x00\n      swap1\n      sload\n      swap1\n      0x0100\n      exp\n      swap1\n      div\n      0xffffffffffffffffffffffffffffffffffffffff\n      and\n        /* \"@openzeppelin/contracts/proxy/ERC1967/ERC1967Utils.sol\":1512:1572  return StorageSlot.getAddressSlot(IMPLEMENTATION_SLOT).value */\n      swap1\n      pop\n        /* \"@openzeppelin/contracts/proxy/ERC1967/ERC1967Utils.sol\":1441:1579  function getImplementation() internal view returns (address) {... */\n      swap1\n      jump\t// out\n        /* \"@openzeppelin/contracts/proxy/ERC1967/ERC1967Utils.sol\":2264:2608  function upgradeToAndCall(address newImplementation, bytes memory data) internal {... */\n    tag_168:\n        /* \"@openzeppelin/contracts/proxy/ERC1967/ERC1967Utils.sol\":2355:2392  _setImplementation(newImplementation) */\n      tag_178\n        /* \"@openzeppelin/contracts/proxy/ERC1967/ERC1967Utils.sol\":2374:2391  newImplementation */\n      dup3\n        /* \"@openzeppelin/contracts/proxy/ERC1967/ERC1967Utils.sol\":2355:2373  _setImplementation */\n      tag_179\n        /* \"@openzeppelin/contracts/proxy/ERC1967/ERC1967Utils.sol\":2355:2392  _setImplementation(newImplementation) */\n      jump\t// in\n    tag_178:\n        /* \"@openzeppelin/contracts/proxy/ERC1967/ERC1967Utils.sol\":2425:2442  newImplementation */\n      dup2\n        /* \"@openzeppelin/contracts/proxy/ERC1967/ERC1967Utils.sol\":2407:2443  IERC1967.Upgraded(newImplementation) */\n      0xffffffffffffffffffffffffffffffffffffffff\n      and\n      0xbc7cd75a20ee27fd9adebab32041f755214dbc6bffa90cc0225b39da2e5c2d3b\n      mload(0x40)\n      mload(0x40)\n      dup1\n      swap2\n      sub\n      swap1\n      log2\n        /* \"@openzeppelin/contracts/proxy/ERC1967/ERC1967Utils.sol\":2472:2473  0 */\n      0x00\n        /* \"@openzeppelin/contracts/proxy/ERC1967/ERC1967Utils.sol\":2458:2462  data */\n      dup2\n        /* \"@openzeppelin/contracts/proxy/ERC1967/ERC1967Utils.sol\":2458:2469  data.length */\n      mload\n        /* \"@openzeppelin/contracts/proxy/ERC1967/ERC1967Utils.sol\":2458:2473  data.length > 0 */\n      gt\n        /* \"@openzeppelin/contracts/proxy/ERC1967/ERC1967Utils.sol\":2454:2602  if (data.length > 0) {... */\n      iszero\n      tag_180\n      jumpi\n        /* \"@openzeppelin/contracts/proxy/ERC1967/ERC1967Utils.sol\":2489:2542  Address.functionDelegateCall(newImplementation, data) */\n      tag_181\n        /* \"@openzeppelin/contracts/proxy/ERC1967/ERC1967Utils.sol\":2518:2535  newImplementation */\n      dup3\n        /* \"@openzeppelin/contracts/proxy/ERC1967/ERC1967Utils.sol\":2537:2541  data */\n      dup3\n        /* \"@openzeppelin/contracts/proxy/ERC1967/ERC1967Utils.sol\":2489:2517  Address.functionDelegateCall */\n      tag_182\n        /* \"@openzeppelin/contracts/proxy/ERC1967/ERC1967Utils.sol\":2489:2542  Address.functionDelegateCall(newImplementation, data) */\n      jump\t// in\n    tag_181:\n      pop\n        /* \"@openzeppelin/contracts/proxy/ERC1967/ERC1967Utils.sol\":2454:2602  if (data.length > 0) {... */\n      jump(tag_183)\n    tag_180:\n        /* \"@openzeppelin/contracts/proxy/ERC1967/ERC1967Utils.sol\":2573:2591  _checkNonPayable() */\n      tag_184\n        /* \"@openzeppelin/contracts/proxy/ERC1967/ERC1967Utils.sol\":2573:2589  _checkNonPayable */\n      tag_185\n        /* \"@openzeppelin/contracts/proxy/ERC1967/ERC1967Utils.sol\":2573:2591  _checkNonPayable() */\n      jump\t// in\n    tag_184:\n        /* \"@openzeppelin/contracts/proxy/ERC1967/ERC1967Utils.sol\":2454:2602  if (data.length > 0) {... */\n    tag_183:\n        /* \"@openzeppelin/contracts/proxy/ERC1967/ERC1967Utils.sol\":2264:2608  function upgradeToAndCall(address newImplementation, bytes memory data) internal {... */\n      pop\n      pop\n      jump\t// out\n        /* \"@openzeppelin/contracts-upgradeable/proxy/utils/Initializable.sol\":8819:8941  function _initializableStorageSlot() internal pure virtual returns (bytes32) {... */\n    tag_173:\n        /* \"@openzeppelin/contracts-upgradeable/proxy/utils/Initializable.sol\":8887:8894  bytes32 */\n      0x00\n        /* \"@openzeppelin/contracts-upgradeable/proxy/utils/Initializable.sol\":3147:3213  0xf0c57e16840df040f15088dc2f81fe391c3923bec73e23a9662efc9c229c6a00 */\n      0xf0c57e16840df040f15088dc2f81fe391c3923bec73e23a9662efc9c229c6a00\n        /* \"@openzeppelin/contracts-upgradeable/proxy/utils/Initializable.sol\":8913:8934  INITIALIZABLE_STORAGE */\n      0x00\n      shl\n        /* \"@openzeppelin/contracts-upgradeable/proxy/utils/Initializable.sol\":8906:8934  return INITIALIZABLE_STORAGE */\n      swap1\n      pop\n        /* \"@openzeppelin/contracts-upgradeable/proxy/utils/Initializable.sol\":8819:8941  function _initializableStorageSlot() internal pure virtual returns (bytes32) {... */\n      swap1\n      jump\t// out\n        /* \"@openzeppelin/contracts/utils/StorageSlot.sol\":1899:2062  function getAddressSlot(bytes32 slot) internal pure returns (AddressSlot storage r) {... */\n    tag_176:\n        /* \"@openzeppelin/contracts/utils/StorageSlot.sol\":1960:1981  AddressSlot storage r */\n      0x00\n        /* \"@openzeppelin/contracts/utils/StorageSlot.sol\":2042:2046  slot */\n      dup2\n        /* \"@openzeppelin/contracts/utils/StorageSlot.sol\":2032:2046  r.slot := slot */\n      swap1\n      pop\n        /* \"@openzeppelin/contracts/utils/StorageSlot.sol\":1899:2062  function getAddressSlot(bytes32 slot) internal pure returns (AddressSlot storage r) {... */\n      swap2\n      swap1\n      pop\n      jump\t// out\n        /* \"@openzeppelin/contracts/proxy/ERC1967/ERC1967Utils.sol\":1671:1952  function _setImplementation(address newImplementation) private {... */\n    tag_179:\n        /* \"@openzeppelin/contracts/proxy/ERC1967/ERC1967Utils.sol\":1781:1782  0 */\n      0x00\n        /* \"@openzeppelin/contracts/proxy/ERC1967/ERC1967Utils.sol\":1748:1765  newImplementation */\n      dup2\n        /* \"@openzeppelin/contracts/proxy/ERC1967/ERC1967Utils.sol\":1748:1777  newImplementation.code.length */\n      0xffffffffffffffffffffffffffffffffffffffff\n      and\n      extcodesize\n        /* \"@openzeppelin/contracts/proxy/ERC1967/ERC1967Utils.sol\":1748:1782  newImplementation.code.length == 0 */\n      sub\n        /* \"@openzeppelin/contracts/proxy/ERC1967/ERC1967Utils.sol\":1744:1863  if (newImplementation.code.length == 0) {... */\n      tag_189\n      jumpi\n        /* \"@openzeppelin/contracts/proxy/ERC1967/ERC1967Utils.sol\":1834:1851  newImplementation */\n      dup1\n        /* \"@openzeppelin/contracts/proxy/ERC1967/ERC1967Utils.sol\":1805:1852  ERC1967InvalidImplementation(newImplementation) */\n      mload(0x40)\n      0x4c9c8ce300000000000000000000000000000000000000000000000000000000\n      dup2\n      mstore\n      0x04\n      add\n      tag_190\n      swap2\n      swap1\n      tag_69\n      jump\t// in\n    tag_190:\n      mload(0x40)\n      dup1\n      swap2\n      sub\n      swap1\n      revert\n        /* \"@openzeppelin/contracts/proxy/ERC1967/ERC1967Utils.sol\":1744:1863  if (newImplementation.code.length == 0) {... */\n    tag_189:\n        /* \"@openzeppelin/contracts/proxy/ERC1967/ERC1967Utils.sol\":1928:1945  newImplementation */\n      dup1\n        /* \"@openzeppelin/contracts/proxy/ERC1967/ERC1967Utils.sol\":1872:1919  StorageSlot.getAddressSlot(IMPLEMENTATION_SLOT) */\n      tag_191\n        /* \"@openzeppelin/contracts/proxy/ERC1967/ERC1967Utils.sol\":811:877  0x360894a13ba1a3210667c828492db98dca3e2076cc3735a920a3ca505d382bbc */\n      0x360894a13ba1a3210667c828492db98dca3e2076cc3735a920a3ca505d382bbc\n        /* \"@openzeppelin/contracts/proxy/ERC1967/ERC1967Utils.sol\":1899:1918  IMPLEMENTATION_SLOT */\n      0x00\n      shl\n        /* \"@openzeppelin/contracts/proxy/ERC1967/ERC1967Utils.sol\":1872:1898  StorageSlot.getAddressSlot */\n      tag_176\n        /* \"@openzeppelin/contracts/proxy/ERC1967/ERC1967Utils.sol\":1872:1919  StorageSlot.getAddressSlot(IMPLEMENTATION_SLOT) */\n      jump\t// in\n    tag_191:\n        /* \"@openzeppelin/contracts/proxy/ERC1967/ERC1967Utils.sol\":1872:1925  StorageSlot.getAddressSlot(IMPLEMENTATION_SLOT).value */\n      0x00\n      add\n      0x00\n        /* \"@openzeppelin/contracts/proxy/ERC1967/ERC1967Utils.sol\":1872:1945  StorageSlot.getAddressSlot(IMPLEMENTATION_SLOT).value = newImplementation */\n      0x0100\n      exp\n      dup2\n      sload\n      dup2\n      0xffffffffffffffffffffffffffffffffffffffff\n      mul\n      not\n      and\n      swap1\n      dup4\n      0xffffffffffffffffffffffffffffffffffffffff\n      and\n      mul\n      or\n      swap1\n      sstore\n      pop\n        /* \"@openzeppelin/contracts/proxy/ERC1967/ERC1967Utils.sol\":1671:1952  function _setImplementation(address newImplementation) private {... */\n      pop\n      jump\t// out\n        /* \"@openzeppelin/contracts/utils/Address.sol\":3916:4169  function functionDelegateCall(address target, bytes memory data) internal returns (bytes memory) {... */\n    tag_182:\n        /* \"@openzeppelin/contracts/utils/Address.sol\":3999:4011  bytes memory */\n      0x60\n        /* \"@openzeppelin/contracts/utils/Address.sol\":4024:4036  bool success */\n      0x00\n        /* \"@openzeppelin/contracts/utils/Address.sol\":4038:4061  bytes memory returndata */\n      0x00\n        /* \"@openzeppelin/contracts/utils/Address.sol\":4065:4071  target */\n      dup5\n        /* \"@openzeppelin/contracts/utils/Address.sol\":4065:4084  target.delegatecall */\n      0xffffffffffffffffffffffffffffffffffffffff\n      and\n        /* \"@openzeppelin/contracts/utils/Address.sol\":4085:4089  data */\n      dup5\n        /* \"@openzeppelin/contracts/utils/Address.sol\":4065:4090  target.delegatecall(data) */\n      mload(0x40)\n      tag_193\n      swap2\n      swap1\n      tag_194\n      jump\t// in\n    tag_193:\n      0x00\n      mload(0x40)\n      dup1\n      dup4\n      sub\n      dup2\n      dup6\n      gas\n      delegatecall\n      swap2\n      pop\n      pop\n      returndatasize\n      dup1\n      0x00\n      dup2\n      eq\n      tag_197\n      jumpi\n      mload(0x40)\n      swap2\n      pop\n      and(add(returndatasize, 0x3f), not(0x1f))\n      dup3\n      add\n      0x40\n      mstore\n      returndatasize\n      dup3\n      mstore\n      returndatasize\n      0x00\n      0x20\n      dup5\n      add\n      returndatacopy\n      jump(tag_196)\n    tag_197:\n      0x60\n      swap2\n      pop\n    tag_196:\n      pop\n        /* \"@openzeppelin/contracts/utils/Address.sol\":4023:4090  (bool success, bytes memory returndata) = target.delegatecall(data) */\n      swap2\n      pop\n      swap2\n      pop\n        /* \"@openzeppelin/contracts/utils/Address.sol\":4107:4162  verifyCallResultFromTarget(target, success, returndata) */\n      tag_198\n        /* \"@openzeppelin/contracts/utils/Address.sol\":4134:4140  target */\n      dup6\n        /* \"@openzeppelin/contracts/utils/Address.sol\":4142:4149  success */\n      dup4\n        /* \"@openzeppelin/contracts/utils/Address.sol\":4151:4161  returndata */\n      dup4\n        /* \"@openzeppelin/contracts/utils/Address.sol\":4107:4133  verifyCallResultFromTarget */\n      tag_199\n        /* \"@openzeppelin/contracts/utils/Address.sol\":4107:4162  verifyCallResultFromTarget(target, success, returndata) */\n      jump\t// in\n    tag_198:\n        /* \"@openzeppelin/contracts/utils/Address.sol\":4100:4162  return verifyCallResultFromTarget(target, success, returndata) */\n      swap3\n      pop\n      pop\n      pop\n        /* \"@openzeppelin/contracts/utils/Address.sol\":3916:4169  function functionDelegateCall(address target, bytes memory data) internal returns (bytes memory) {... */\n      swap3\n      swap2\n      pop\n      pop\n      jump\t// out\n        /* \"@openzeppelin/contracts/proxy/ERC1967/ERC1967Utils.sol\":6113:6235  function _checkNonPayable() private {... */\n    tag_185:\n        /* \"@openzeppelin/contracts/proxy/ERC1967/ERC1967Utils.sol\":6175:6176  0 */\n      0x00\n        /* \"@openzeppelin/contracts/proxy/ERC1967/ERC1967Utils.sol\":6163:6172  msg.value */\n      callvalue\n        /* \"@openzeppelin/contracts/proxy/ERC1967/ERC1967Utils.sol\":6163:6176  msg.value > 0 */\n      gt\n        /* \"@openzeppelin/contracts/proxy/ERC1967/ERC1967Utils.sol\":6159:6229  if (msg.value > 0) {... */\n      iszero\n      tag_201\n      jumpi\n        /* \"@openzeppelin/contracts/proxy/ERC1967/ERC1967Utils.sol\":6199:6218  ERC1967NonPayable() */\n      mload(0x40)\n      0xb398979f00000000000000000000000000000000000000000000000000000000\n      dup2\n      mstore\n      0x04\n      add\n      mload(0x40)\n      dup1\n      swap2\n      sub\n      swap1\n      revert\n        /* \"@openzeppelin/contracts/proxy/ERC1967/ERC1967Utils.sol\":6159:6229  if (msg.value > 0) {... */\n    tag_201:\n        /* \"@openzeppelin/contracts/proxy/ERC1967/ERC1967Utils.sol\":6113:6235  function _checkNonPayable() private {... */\n      jump\t// out\n        /* \"@openzeppelin/contracts/utils/Address.sol\":4437:5019  function verifyCallResultFromTarget(... */\n    tag_199:\n        /* \"@openzeppelin/contracts/utils/Address.sol\":4581:4593  bytes memory */\n      0x60\n        /* \"@openzeppelin/contracts/utils/Address.sol\":4610:4617  success */\n      dup3\n        /* \"@openzeppelin/contracts/utils/Address.sol\":4605:5013  if (!success) {... */\n      tag_203\n      jumpi\n        /* \"@openzeppelin/contracts/utils/Address.sol\":4633:4652  _revert(returndata) */\n      tag_204\n        /* \"@openzeppelin/contracts/utils/Address.sol\":4641:4651  returndata */\n      dup3\n        /* \"@openzeppelin/contracts/utils/Address.sol\":4633:4640  _revert */\n      tag_205\n        /* \"@openzeppelin/contracts/utils/Address.sol\":4633:4652  _revert(returndata) */\n      jump\t// in\n    tag_204:\n        /* \"@openzeppelin/contracts/utils/Address.sol\":4605:5013  if (!success) {... */\n      jump(tag_206)\n    tag_203:\n        /* \"@openzeppelin/contracts/utils/Address.sol\":4878:4879  0 */\n      0x00\n        /* \"@openzeppelin/contracts/utils/Address.sol\":4857:4867  returndata */\n      dup3\n        /* \"@openzeppelin/contracts/utils/Address.sol\":4857:4874  returndata.length */\n      mload\n        /* \"@openzeppelin/contracts/utils/Address.sol\":4857:4879  returndata.length == 0 */\n      eq\n        /* \"@openzeppelin/contracts/utils/Address.sol\":4857:4906  returndata.length == 0 && target.code.length == 0 */\n      dup1\n      iszero\n      tag_207\n      jumpi\n      pop\n        /* \"@openzeppelin/contracts/utils/Address.sol\":4905:4906  0 */\n      0x00\n        /* \"@openzeppelin/contracts/utils/Address.sol\":4883:4889  target */\n      dup5\n        /* \"@openzeppelin/contracts/utils/Address.sol\":4883:4901  target.code.length */\n      0xffffffffffffffffffffffffffffffffffffffff\n      and\n      extcodesize\n        /* \"@openzeppelin/contracts/utils/Address.sol\":4883:4906  target.code.length == 0 */\n      eq\n        /* \"@openzeppelin/contracts/utils/Address.sol\":4857:4906  returndata.length == 0 && target.code.length == 0 */\n    tag_207:\n        /* \"@openzeppelin/contracts/utils/Address.sol\":4853:4972  if (returndata.length == 0 && target.code.length == 0) {... */\n      iszero\n      tag_208\n      jumpi\n        /* \"@openzeppelin/contracts/utils/Address.sol\":4950:4956  target */\n      dup4\n        /* \"@openzeppelin/contracts/utils/Address.sol\":4933:4957  AddressEmptyCode(target) */\n      mload(0x40)\n      0x9996b31500000000000000000000000000000000000000000000000000000000\n      dup2\n      mstore\n      0x04\n      add\n      tag_209\n      swap2\n      swap1\n      tag_69\n      jump\t// in\n    tag_209:\n      mload(0x40)\n      dup1\n      swap2\n      sub\n      swap1\n      revert\n        /* \"@openzeppelin/contracts/utils/Address.sol\":4853:4972  if (returndata.length == 0 && target.code.length == 0) {... */\n    tag_208:\n        /* \"@openzeppelin/contracts/utils/Address.sol\":4992:5002  returndata */\n      dup2\n        /* \"@openzeppelin/contracts/utils/Address.sol\":4985:5002  return returndata */\n      swap1\n      pop\n      jump(tag_202)\n        /* \"@openzeppelin/contracts/utils/Address.sol\":4605:5013  if (!success) {... */\n    tag_206:\n        /* \"@openzeppelin/contracts/utils/Address.sol\":4437:5019  function verifyCallResultFromTarget(... */\n    tag_202:\n      swap4\n      swap3\n      pop\n      pop\n      pop\n      jump\t// out\n        /* \"@openzeppelin/contracts/utils/Address.sol\":5559:6046  function _revert(bytes memory returndata) private pure {... */\n    tag_205:\n        /* \"@openzeppelin/contracts/utils/Address.sol\":5710:5711  0 */\n      0x00\n        /* \"@openzeppelin/contracts/utils/Address.sol\":5690:5700  returndata */\n      dup2\n        /* \"@openzeppelin/contracts/utils/Address.sol\":5690:5707  returndata.length */\n      mload\n        /* \"@openzeppelin/contracts/utils/Address.sol\":5690:5711  returndata.length > 0 */\n      gt\n        /* \"@openzeppelin/contracts/utils/Address.sol\":5686:6040  if (returndata.length > 0) {... */\n      iszero\n      tag_211\n      jumpi\n        /* \"@openzeppelin/contracts/utils/Address.sol\":5887:5897  returndata */\n      dup1\n        /* \"@openzeppelin/contracts/utils/Address.sol\":5881:5898  mload(returndata) */\n      mload\n        /* \"@openzeppelin/contracts/utils/Address.sol\":5943:5958  returndata_size */\n      dup1\n        /* \"@openzeppelin/contracts/utils/Address.sol\":5930:5940  returndata */\n      dup3\n        /* \"@openzeppelin/contracts/utils/Address.sol\":5926:5928  32 */\n      0x20\n        /* \"@openzeppelin/contracts/utils/Address.sol\":5922:5941  add(32, returndata) */\n      add\n        /* \"@openzeppelin/contracts/utils/Address.sol\":5915:5959  revert(add(32, returndata), returndata_size) */\n      revert\n        /* \"@openzeppelin/contracts/utils/Address.sol\":5686:6040  if (returndata.length > 0) {... */\n    tag_211:\n        /* \"@openzeppelin/contracts/utils/Address.sol\":6010:6029  Errors.FailedCall() */\n      mload(0x40)\n      0xd6bda27500000000000000000000000000000000000000000000000000000000\n      dup2\n      mstore\n      0x04\n      add\n      mload(0x40)\n      dup1\n      swap2\n      sub\n      swap1\n      revert\n        /* \"#utility.yul\":7:82   */\n    tag_213:\n        /* \"#utility.yul\":40:46   */\n      0x00\n        /* \"#utility.yul\":73:75   */\n      0x40\n        /* \"#utility.yul\":67:76   */\n      mload\n        /* \"#utility.yul\":57:76   */\n      swap1\n      pop\n        /* \"#utility.yul\":7:82   */\n      swap1\n      jump\t// out\n        /* \"#utility.yul\":88:205   */\n    tag_214:\n        /* \"#utility.yul\":197:198   */\n      0x00\n        /* \"#utility.yul\":194:195   */\n      0x00\n        /* \"#utility.yul\":187:199   */\n      revert\n        /* \"#utility.yul\":211:328   */\n    tag_215:\n        /* \"#utility.yul\":320:321   */\n      0x00\n        /* \"#utility.yul\":317:318   */\n      0x00\n        /* \"#utility.yul\":310:322   */\n      revert\n        /* \"#utility.yul\":334:460   */\n    tag_216:\n        /* \"#utility.yul\":371:378   */\n      0x00\n        /* \"#utility.yul\":411:453   */\n      0xffffffffffffffffffffffffffffffffffffffff\n        /* \"#utility.yul\":404:409   */\n      dup3\n        /* \"#utility.yul\":400:454   */\n      and\n        /* \"#utility.yul\":389:454   */\n      swap1\n      pop\n        /* \"#utility.yul\":334:460   */\n      swap2\n      swap1\n      pop\n      jump\t// out\n        /* \"#utility.yul\":466:562   */\n    tag_217:\n        /* \"#utility.yul\":503:510   */\n      0x00\n        /* \"#utility.yul\":532:556   */\n      tag_280\n        /* \"#utility.yul\":550:555   */\n      dup3\n        /* \"#utility.yul\":532:556   */\n      tag_216\n      jump\t// in\n    tag_280:\n        /* \"#utility.yul\":521:556   */\n      swap1\n      pop\n        /* \"#utility.yul\":466:562   */\n      swap2\n      swap1\n      pop\n      jump\t// out\n        /* \"#utility.yul\":568:690   */\n    tag_218:\n        /* \"#utility.yul\":641:665   */\n      tag_282\n        /* \"#utility.yul\":659:664   */\n      dup2\n        /* \"#utility.yul\":641:665   */\n      tag_217\n      jump\t// in\n    tag_282:\n        /* \"#utility.yul\":634:639   */\n      dup2\n        /* \"#utility.yul\":631:666   */\n      eq\n        /* \"#utility.yul\":621:684   */\n      tag_283\n      jumpi\n        /* \"#utility.yul\":680:681   */\n      0x00\n        /* \"#utility.yul\":677:678   */\n      0x00\n        /* \"#utility.yul\":670:682   */\n      revert\n        /* \"#utility.yul\":621:684   */\n    tag_283:\n        /* \"#utility.yul\":568:690   */\n      pop\n      jump\t// out\n        /* \"#utility.yul\":696:835   */\n    tag_219:\n        /* \"#utility.yul\":742:747   */\n      0x00\n        /* \"#utility.yul\":780:786   */\n      dup2\n        /* \"#utility.yul\":767:787   */\n      calldataload\n        /* \"#utility.yul\":758:787   */\n      swap1\n      pop\n        /* \"#utility.yul\":796:829   */\n      tag_285\n        /* \"#utility.yul\":823:828   */\n      dup2\n        /* \"#utility.yul\":796:829   */\n      tag_218\n      jump\t// in\n    tag_285:\n        /* \"#utility.yul\":696:835   */\n      swap3\n      swap2\n      pop\n      pop\n      jump\t// out\n        /* \"#utility.yul\":841:958   */\n    tag_220:\n        /* \"#utility.yul\":950:951   */\n      0x00\n        /* \"#utility.yul\":947:948   */\n      0x00\n        /* \"#utility.yul\":940:952   */\n      revert\n        /* \"#utility.yul\":964:1081   */\n    tag_221:\n        /* \"#utility.yul\":1073:1074   */\n      0x00\n        /* \"#utility.yul\":1070:1071   */\n      0x00\n        /* \"#utility.yul\":1063:1075   */\n      revert\n        /* \"#utility.yul\":1087:1189   */\n    tag_222:\n        /* \"#utility.yul\":1128:1134   */\n      0x00\n        /* \"#utility.yul\":1179:1181   */\n      0x1f\n        /* \"#utility.yul\":1175:1182   */\n      not\n        /* \"#utility.yul\":1170:1172   */\n      0x1f\n        /* \"#utility.yul\":1163:1168   */\n      dup4\n        /* \"#utility.yul\":1159:1173   */\n      add\n        /* \"#utility.yul\":1155:1183   */\n      and\n        /* \"#utility.yul\":1145:1183   */\n      swap1\n      pop\n        /* \"#utility.yul\":1087:1189   */\n      swap2\n      swap1\n      pop\n      jump\t// out\n        /* \"#utility.yul\":1195:1375   */\n    tag_223:\n        /* \"#utility.yul\":1243:1320   */\n      0x4e487b7100000000000000000000000000000000000000000000000000000000\n        /* \"#utility.yul\":1240:1241   */\n      0x00\n        /* \"#utility.yul\":1233:1321   */\n      mstore\n        /* \"#utility.yul\":1340:1344   */\n      0x41\n        /* \"#utility.yul\":1337:1338   */\n      0x04\n        /* \"#utility.yul\":1330:1345   */\n      mstore\n        /* \"#utility.yul\":1364:1368   */\n      0x24\n        /* \"#utility.yul\":1361:1362   */\n      0x00\n        /* \"#utility.yul\":1354:1369   */\n      revert\n        /* \"#utility.yul\":1381:1662   */\n    tag_224:\n        /* \"#utility.yul\":1464:1491   */\n      tag_291\n        /* \"#utility.yul\":1486:1490   */\n      dup3\n        /* \"#utility.yul\":1464:1491   */\n      tag_222\n      jump\t// in\n    tag_291:\n        /* \"#utility.yul\":1456:1462   */\n      dup2\n        /* \"#utility.yul\":1452:1492   */\n      add\n        /* \"#utility.yul\":1594:1600   */\n      dup2\n        /* \"#utility.yul\":1582:1592   */\n      dup2\n        /* \"#utility.yul\":1579:1601   */\n      lt\n        /* \"#utility.yul\":1558:1576   */\n      0xffffffffffffffff\n        /* \"#utility.yul\":1546:1556   */\n      dup3\n        /* \"#utility.yul\":1543:1577   */\n      gt\n        /* \"#utility.yul\":1540:1602   */\n      or\n        /* \"#utility.yul\":1537:1625   */\n      iszero\n      tag_292\n      jumpi\n        /* \"#utility.yul\":1605:1623   */\n      tag_293\n      tag_223\n      jump\t// in\n    tag_293:\n        /* \"#utility.yul\":1537:1625   */\n    tag_292:\n        /* \"#utility.yul\":1645:1655   */\n      dup1\n        /* \"#utility.yul\":1641:1643   */\n      0x40\n        /* \"#utility.yul\":1634:1656   */\n      mstore\n        /* \"#utility.yul\":1424:1662   */\n      pop\n        /* \"#utility.yul\":1381:1662   */\n      pop\n      pop\n      jump\t// out\n        /* \"#utility.yul\":1668:1797   */\n    tag_225:\n        /* \"#utility.yul\":1702:1708   */\n      0x00\n        /* \"#utility.yul\":1729:1749   */\n      tag_295\n      tag_213\n      jump\t// in\n    tag_295:\n        /* \"#utility.yul\":1719:1749   */\n      swap1\n      pop\n        /* \"#utility.yul\":1758:1791   */\n      tag_296\n        /* \"#utility.yul\":1786:1790   */\n      dup3\n        /* \"#utility.yul\":1778:1784   */\n      dup3\n        /* \"#utility.yul\":1758:1791   */\n      tag_224\n      jump\t// in\n    tag_296:\n        /* \"#utility.yul\":1668:1797   */\n      swap2\n      swap1\n      pop\n      jump\t// out\n        /* \"#utility.yul\":1803:2110   */\n    tag_226:\n        /* \"#utility.yul\":1864:1868   */\n      0x00\n        /* \"#utility.yul\":1954:1972   */\n      0xffffffffffffffff\n        /* \"#utility.yul\":1946:1952   */\n      dup3\n        /* \"#utility.yul\":1943:1973   */\n      gt\n        /* \"#utility.yul\":1940:1996   */\n      iszero\n      tag_298\n      jumpi\n        /* \"#utility.yul\":1976:1994   */\n      tag_299\n      tag_223\n      jump\t// in\n    tag_299:\n        /* \"#utility.yul\":1940:1996   */\n    tag_298:\n        /* \"#utility.yul\":2014:2043   */\n      tag_300\n        /* \"#utility.yul\":2036:2042   */\n      dup3\n        /* \"#utility.yul\":2014:2043   */\n      tag_222\n      jump\t// in\n    tag_300:\n        /* \"#utility.yul\":2006:2043   */\n      swap1\n      pop\n        /* \"#utility.yul\":2098:2102   */\n      0x20\n        /* \"#utility.yul\":2092:2096   */\n      dup2\n        /* \"#utility.yul\":2088:2103   */\n      add\n        /* \"#utility.yul\":2080:2103   */\n      swap1\n      pop\n        /* \"#utility.yul\":1803:2110   */\n      swap2\n      swap1\n      pop\n      jump\t// out\n        /* \"#utility.yul\":2116:2264   */\n    tag_227:\n        /* \"#utility.yul\":2214:2220   */\n      dup3\n        /* \"#utility.yul\":2209:2212   */\n      dup2\n        /* \"#utility.yul\":2204:2207   */\n      dup4\n        /* \"#utility.yul\":2191:2221   */\n      calldatacopy\n        /* \"#utility.yul\":2255:2256   */\n      0x00\n        /* \"#utility.yul\":2246:2252   */\n      dup4\n        /* \"#utility.yul\":2241:2244   */\n      dup4\n        /* \"#utility.yul\":2237:2253   */\n      add\n        /* \"#utility.yul\":2230:2257   */\n      mstore\n        /* \"#utility.yul\":2116:2264   */\n      pop\n      pop\n      pop\n      jump\t// out\n        /* \"#utility.yul\":2270:2693   */\n    tag_228:\n        /* \"#utility.yul\":2347:2352   */\n      0x00\n        /* \"#utility.yul\":2372:2437   */\n      tag_303\n        /* \"#utility.yul\":2388:2436   */\n      tag_304\n        /* \"#utility.yul\":2429:2435   */\n      dup5\n        /* \"#utility.yul\":2388:2436   */\n      tag_226\n      jump\t// in\n    tag_304:\n        /* \"#utility.yul\":2372:2437   */\n      tag_225\n      jump\t// in\n    tag_303:\n        /* \"#utility.yul\":2363:2437   */\n      swap1\n      pop\n        /* \"#utility.yul\":2460:2466   */\n      dup3\n        /* \"#utility.yul\":2453:2458   */\n      dup2\n        /* \"#utility.yul\":2446:2467   */\n      mstore\n        /* \"#utility.yul\":2498:2502   */\n      0x20\n        /* \"#utility.yul\":2491:2496   */\n      dup2\n        /* \"#utility.yul\":2487:2503   */\n      add\n        /* \"#utility.yul\":2536:2539   */\n      dup5\n        /* \"#utility.yul\":2527:2533   */\n      dup5\n        /* \"#utility.yul\":2522:2525   */\n      dup5\n        /* \"#utility.yul\":2518:2534   */\n      add\n        /* \"#utility.yul\":2515:2540   */\n      gt\n        /* \"#utility.yul\":2512:2624   */\n      iszero\n      tag_305\n      jumpi\n        /* \"#utility.yul\":2543:2622   */\n      tag_306\n      tag_221\n      jump\t// in\n    tag_306:\n        /* \"#utility.yul\":2512:2624   */\n    tag_305:\n        /* \"#utility.yul\":2633:2687   */\n      tag_307\n        /* \"#utility.yul\":2680:2686   */\n      dup5\n        /* \"#utility.yul\":2675:2678   */\n      dup3\n        /* \"#utility.yul\":2670:2673   */\n      dup6\n        /* \"#utility.yul\":2633:2687   */\n      tag_227\n      jump\t// in\n    tag_307:\n        /* \"#utility.yul\":2353:2693   */\n      pop\n        /* \"#utility.yul\":2270:2693   */\n      swap4\n      swap3\n      pop\n      pop\n      pop\n      jump\t// out\n        /* \"#utility.yul\":2712:3050   */\n    tag_229:\n        /* \"#utility.yul\":2767:2772   */\n      0x00\n        /* \"#utility.yul\":2816:2819   */\n      dup3\n        /* \"#utility.yul\":2809:2813   */\n      0x1f\n        /* \"#utility.yul\":2801:2807   */\n      dup4\n        /* \"#utility.yul\":2797:2814   */\n      add\n        /* \"#utility.yul\":2793:2820   */\n      slt\n        /* \"#utility.yul\":2783:2905   */\n      tag_309\n      jumpi\n        /* \"#utility.yul\":2824:2903   */\n      tag_310\n      tag_220\n      jump\t// in\n    tag_310:\n        /* \"#utility.yul\":2783:2905   */\n    tag_309:\n        /* \"#utility.yul\":2941:2947   */\n      dup2\n        /* \"#utility.yul\":2928:2948   */\n      calldataload\n        /* \"#utility.yul\":2966:3044   */\n      tag_311\n        /* \"#utility.yul\":3040:3043   */\n      dup5\n        /* \"#utility.yul\":3032:3038   */\n      dup3\n        /* \"#utility.yul\":3025:3029   */\n      0x20\n        /* \"#utility.yul\":3017:3023   */\n      dup7\n        /* \"#utility.yul\":3013:3030   */\n      add\n        /* \"#utility.yul\":2966:3044   */\n      tag_228\n      jump\t// in\n    tag_311:\n        /* \"#utility.yul\":2957:3044   */\n      swap2\n      pop\n        /* \"#utility.yul\":2773:3050   */\n      pop\n        /* \"#utility.yul\":2712:3050   */\n      swap3\n      swap2\n      pop\n      pop\n      jump\t// out\n        /* \"#utility.yul\":3056:3708   */\n    tag_20:\n        /* \"#utility.yul\":3133:3139   */\n      0x00\n        /* \"#utility.yul\":3141:3147   */\n      0x00\n        /* \"#utility.yul\":3190:3192   */\n      0x40\n        /* \"#utility.yul\":3178:3187   */\n      dup4\n        /* \"#utility.yul\":3169:3176   */\n      dup6\n        /* \"#utility.yul\":3165:3188   */\n      sub\n        /* \"#utility.yul\":3161:3193   */\n      slt\n        /* \"#utility.yul\":3158:3277   */\n      iszero\n      tag_313\n      jumpi\n        /* \"#utility.yul\":3196:3275   */\n      tag_314\n      tag_214\n      jump\t// in\n    tag_314:\n        /* \"#utility.yul\":3158:3277   */\n    tag_313:\n        /* \"#utility.yul\":3316:3317   */\n      0x00\n        /* \"#utility.yul\":3341:3394   */\n      tag_315\n        /* \"#utility.yul\":3386:3393   */\n      dup6\n        /* \"#utility.yul\":3377:3383   */\n      dup3\n        /* \"#utility.yul\":3366:3375   */\n      dup7\n        /* \"#utility.yul\":3362:3384   */\n      add\n        /* \"#utility.yul\":3341:3394   */\n      tag_219\n      jump\t// in\n    tag_315:\n        /* \"#utility.yul\":3331:3394   */\n      swap3\n      pop\n        /* \"#utility.yul\":3287:3404   */\n      pop\n        /* \"#utility.yul\":3471:3473   */\n      0x20\n        /* \"#utility.yul\":3460:3469   */\n      dup4\n        /* \"#utility.yul\":3456:3474   */\n      add\n        /* \"#utility.yul\":3443:3475   */\n      calldataload\n        /* \"#utility.yul\":3502:3520   */\n      0xffffffffffffffff\n        /* \"#utility.yul\":3494:3500   */\n      dup2\n        /* \"#utility.yul\":3491:3521   */\n      gt\n        /* \"#utility.yul\":3488:3605   */\n      iszero\n      tag_316\n      jumpi\n        /* \"#utility.yul\":3524:3603   */\n      tag_317\n      tag_215\n      jump\t// in\n    tag_317:\n        /* \"#utility.yul\":3488:3605   */\n    tag_316:\n        /* \"#utility.yul\":3629:3691   */\n      tag_318\n        /* \"#utility.yul\":3683:3690   */\n      dup6\n        /* \"#utility.yul\":3674:3680   */\n      dup3\n        /* \"#utility.yul\":3663:3672   */\n      dup7\n        /* \"#utility.yul\":3659:3681   */\n      add\n        /* \"#utility.yul\":3629:3691   */\n      tag_229\n      jump\t// in\n    tag_318:\n        /* \"#utility.yul\":3619:3691   */\n      swap2\n      pop\n        /* \"#utility.yul\":3414:3701   */\n      pop\n        /* \"#utility.yul\":3056:3708   */\n      swap3\n      pop\n      swap3\n      swap1\n      pop\n      jump\t// out\n        /* \"#utility.yul\":3714:3791   */\n    tag_230:\n        /* \"#utility.yul\":3751:3758   */\n      0x00\n        /* \"#utility.yul\":3780:3785   */\n      dup2\n        /* \"#utility.yul\":3769:3785   */\n      swap1\n      pop\n        /* \"#utility.yul\":3714:3791   */\n      swap2\n      swap1\n      pop\n      jump\t// out\n        /* \"#utility.yul\":3797:3915   */\n    tag_231:\n        /* \"#utility.yul\":3884:3908   */\n      tag_321\n        /* \"#utility.yul\":3902:3907   */\n      dup2\n        /* \"#utility.yul\":3884:3908   */\n      tag_230\n      jump\t// in\n    tag_321:\n        /* \"#utility.yul\":3879:3882   */\n      dup3\n        /* \"#utility.yul\":3872:3909   */\n      mstore\n        /* \"#utility.yul\":3797:3915   */\n      pop\n      pop\n      jump\t// out\n        /* \"#utility.yul\":3921:4143   */\n    tag_26:\n        /* \"#utility.yul\":4014:4018   */\n      0x00\n        /* \"#utility.yul\":4052:4054   */\n      0x20\n        /* \"#utility.yul\":4041:4050   */\n      dup3\n        /* \"#utility.yul\":4037:4055   */\n      add\n        /* \"#utility.yul\":4029:4055   */\n      swap1\n      pop\n        /* \"#utility.yul\":4065:4136   */\n      tag_323\n        /* \"#utility.yul\":4133:4134   */\n      0x00\n        /* \"#utility.yul\":4122:4131   */\n      dup4\n        /* \"#utility.yul\":4118:4135   */\n      add\n        /* \"#utility.yul\":4109:4115   */\n      dup5\n        /* \"#utility.yul\":4065:4136   */\n      tag_231\n      jump\t// in\n    tag_323:\n        /* \"#utility.yul\":3921:4143   */\n      swap3\n      swap2\n      pop\n      pop\n      jump\t// out\n        /* \"#utility.yul\":4149:4226   */\n    tag_232:\n        /* \"#utility.yul\":4186:4193   */\n      0x00\n        /* \"#utility.yul\":4215:4220   */\n      dup2\n        /* \"#utility.yul\":4204:4220   */\n      swap1\n      pop\n        /* \"#utility.yul\":4149:4226   */\n      swap2\n      swap1\n      pop\n      jump\t// out\n        /* \"#utility.yul\":4232:4354   */\n    tag_233:\n        /* \"#utility.yul\":4305:4329   */\n      tag_326\n        /* \"#utility.yul\":4323:4328   */\n      dup2\n        /* \"#utility.yul\":4305:4329   */\n      tag_232\n      jump\t// in\n    tag_326:\n        /* \"#utility.yul\":4298:4303   */\n      dup2\n        /* \"#utility.yul\":4295:4330   */\n      eq\n        /* \"#utility.yul\":4285:4348   */\n      tag_327\n      jumpi\n        /* \"#utility.yul\":4344:4345   */\n      0x00\n        /* \"#utility.yul\":4341:4342   */\n      0x00\n        /* \"#utility.yul\":4334:4346   */\n      revert\n        /* \"#utility.yul\":4285:4348   */\n    tag_327:\n        /* \"#utility.yul\":4232:4354   */\n      pop\n      jump\t// out\n        /* \"#utility.yul\":4360:4499   */\n    tag_234:\n        /* \"#utility.yul\":4406:4411   */\n      0x00\n        /* \"#utility.yul\":4444:4450   */\n      dup2\n        /* \"#utility.yul\":4431:4451   */\n      calldataload\n        /* \"#utility.yul\":4422:4451   */\n      swap1\n      pop\n        /* \"#utility.yul\":4460:4493   */\n      tag_329\n        /* \"#utility.yul\":4487:4492   */\n      dup2\n        /* \"#utility.yul\":4460:4493   */\n      tag_233\n      jump\t// in\n    tag_329:\n        /* \"#utility.yul\":4360:4499   */\n      swap3\n      swap2\n      pop\n      pop\n      jump\t// out\n        /* \"#utility.yul\":4505:4834   */\n    tag_30:\n        /* \"#utility.yul\":4564:4570   */\n      0x00\n        /* \"#utility.yul\":4613:4615   */\n      0x20\n        /* \"#utility.yul\":4601:4610   */\n      dup3\n        /* \"#utility.yul\":4592:4599   */\n      dup5\n        /* \"#utility.yul\":4588:4611   */\n      sub\n        /* \"#utility.yul\":4584:4616   */\n      slt\n        /* \"#utility.yul\":4581:4700   */\n      iszero\n      tag_331\n      jumpi\n        /* \"#utility.yul\":4619:4698   */\n      tag_332\n      tag_214\n      jump\t// in\n    tag_332:\n        /* \"#utility.yul\":4581:4700   */\n    tag_331:\n        /* \"#utility.yul\":4739:4740   */\n      0x00\n        /* \"#utility.yul\":4764:4817   */\n      tag_333\n        /* \"#utility.yul\":4809:4816   */\n      dup5\n        /* \"#utility.yul\":4800:4806   */\n      dup3\n        /* \"#utility.yul\":4789:4798   */\n      dup6\n        /* \"#utility.yul\":4785:4807   */\n      add\n        /* \"#utility.yul\":4764:4817   */\n      tag_234\n      jump\t// in\n    tag_333:\n        /* \"#utility.yul\":4754:4817   */\n      swap2\n      pop\n        /* \"#utility.yul\":4710:4827   */\n      pop\n        /* \"#utility.yul\":4505:4834   */\n      swap3\n      swap2\n      pop\n      pop\n      jump\t// out\n        /* \"#utility.yul\":4840:4958   */\n    tag_235:\n        /* \"#utility.yul\":4927:4951   */\n      tag_335\n        /* \"#utility.yul\":4945:4950   */\n      dup2\n        /* \"#utility.yul\":4927:4951   */\n      tag_217\n      jump\t// in\n    tag_335:\n        /* \"#utility.yul\":4922:4925   */\n      dup3\n        /* \"#utility.yul\":4915:4952   */\n      mstore\n        /* \"#utility.yul\":4840:4958   */\n      pop\n      pop\n      jump\t// out\n        /* \"#utility.yul\":4964:5082   */\n    tag_236:\n        /* \"#utility.yul\":5051:5075   */\n      tag_337\n        /* \"#utility.yul\":5069:5074   */\n      dup2\n        /* \"#utility.yul\":5051:5075   */\n      tag_232\n      jump\t// in\n    tag_337:\n        /* \"#utility.yul\":5046:5049   */\n      dup3\n        /* \"#utility.yul\":5039:5076   */\n      mstore\n        /* \"#utility.yul\":4964:5082   */\n      pop\n      pop\n      jump\t// out\n        /* \"#utility.yul\":5088:5178   */\n    tag_237:\n        /* \"#utility.yul\":5122:5129   */\n      0x00\n        /* \"#utility.yul\":5165:5170   */\n      dup2\n        /* \"#utility.yul\":5158:5171   */\n      iszero\n        /* \"#utility.yul\":5151:5172   */\n      iszero\n        /* \"#utility.yul\":5140:5172   */\n      swap1\n      pop\n        /* \"#utility.yul\":5088:5178   */\n      swap2\n      swap1\n      pop\n      jump\t// out\n        /* \"#utility.yul\":5184:5293   */\n    tag_238:\n        /* \"#utility.yul\":5265:5286   */\n      tag_340\n        /* \"#utility.yul\":5280:5285   */\n      dup2\n        /* \"#utility.yul\":5265:5286   */\n      tag_237\n      jump\t// in\n    tag_340:\n        /* \"#utility.yul\":5260:5263   */\n      dup3\n        /* \"#utility.yul\":5253:5287   */\n      mstore\n        /* \"#utility.yul\":5184:5293   */\n      pop\n      pop\n      jump\t// out\n        /* \"#utility.yul\":5299:6506   */\n    tag_33:\n        /* \"#utility.yul\":5638:5642   */\n      0x00\n        /* \"#utility.yul\":5676:5679   */\n      0x0140\n        /* \"#utility.yul\":5665:5674   */\n      dup3\n        /* \"#utility.yul\":5661:5680   */\n      add\n        /* \"#utility.yul\":5653:5680   */\n      swap1\n      pop\n        /* \"#utility.yul\":5690:5761   */\n      tag_342\n        /* \"#utility.yul\":5758:5759   */\n      0x00\n        /* \"#utility.yul\":5747:5756   */\n      dup4\n        /* \"#utility.yul\":5743:5760   */\n      add\n        /* \"#utility.yul\":5734:5740   */\n      dup14\n        /* \"#utility.yul\":5690:5761   */\n      tag_235\n      jump\t// in\n    tag_342:\n        /* \"#utility.yul\":5771:5843   */\n      tag_343\n        /* \"#utility.yul\":5839:5841   */\n      0x20\n        /* \"#utility.yul\":5828:5837   */\n      dup4\n        /* \"#utility.yul\":5824:5842   */\n      add\n        /* \"#utility.yul\":5815:5821   */\n      dup13\n        /* \"#utility.yul\":5771:5843   */\n      tag_236\n      jump\t// in\n    tag_343:\n        /* \"#utility.yul\":5853:5925   */\n      tag_344\n        /* \"#utility.yul\":5921:5923   */\n      0x40\n        /* \"#utility.yul\":5910:5919   */\n      dup4\n        /* \"#utility.yul\":5906:5924   */\n      add\n        /* \"#utility.yul\":5897:5903   */\n      dup12\n        /* \"#utility.yul\":5853:5925   */\n      tag_235\n      jump\t// in\n    tag_344:\n        /* \"#utility.yul\":5935:6007   */\n      tag_345\n        /* \"#utility.yul\":6003:6005   */\n      0x60\n        /* \"#utility.yul\":5992:6001   */\n      dup4\n        /* \"#utility.yul\":5988:6006   */\n      add\n        /* \"#utility.yul\":5979:5985   */\n      dup11\n        /* \"#utility.yul\":5935:6007   */\n      tag_236\n      jump\t// in\n    tag_345:\n        /* \"#utility.yul\":6017:6090   */\n      tag_346\n        /* \"#utility.yul\":6085:6088   */\n      0x80\n        /* \"#utility.yul\":6074:6083   */\n      dup4\n        /* \"#utility.yul\":6070:6089   */\n      add\n        /* \"#utility.yul\":6061:6067   */\n      dup10\n        /* \"#utility.yul\":6017:6090   */\n      tag_236\n      jump\t// in\n    tag_346:\n        /* \"#utility.yul\":6100:6173   */\n      tag_347\n        /* \"#utility.yul\":6168:6171   */\n      0xa0\n        /* \"#utility.yul\":6157:6166   */\n      dup4\n        /* \"#utility.yul\":6153:6172   */\n      add\n        /* \"#utility.yul\":6144:6150   */\n      dup9\n        /* \"#utility.yul\":6100:6173   */\n      tag_236\n      jump\t// in\n    tag_347:\n        /* \"#utility.yul\":6183:6250   */\n      tag_348\n        /* \"#utility.yul\":6245:6248   */\n      0xc0\n        /* \"#utility.yul\":6234:6243   */\n      dup4\n        /* \"#utility.yul\":6230:6249   */\n      add\n        /* \"#utility.yul\":6221:6227   */\n      dup8\n        /* \"#utility.yul\":6183:6250   */\n      tag_238\n      jump\t// in\n    tag_348:\n        /* \"#utility.yul\":6260:6333   */\n      tag_349\n        /* \"#utility.yul\":6328:6331   */\n      0xe0\n        /* \"#utility.yul\":6317:6326   */\n      dup4\n        /* \"#utility.yul\":6313:6332   */\n      add\n        /* \"#utility.yul\":6304:6310   */\n      dup7\n        /* \"#utility.yul\":6260:6333   */\n      tag_235\n      jump\t// in\n    tag_349:\n        /* \"#utility.yul\":6343:6416   */\n      tag_350\n        /* \"#utility.yul\":6411:6414   */\n      0x0100\n        /* \"#utility.yul\":6400:6409   */\n      dup4\n        /* \"#utility.yul\":6396:6415   */\n      add\n        /* \"#utility.yul\":6387:6393   */\n      dup6\n        /* \"#utility.yul\":6343:6416   */\n      tag_236\n      jump\t// in\n    tag_350:\n        /* \"#utility.yul\":6426:6499   */\n      tag_351\n        /* \"#utility.yul\":6494:6497   */\n      0x0120\n        /* \"#utility.yul\":6483:6492   */\n      dup4\n        /* \"#utility.yul\":6479:6498   */\n      add\n        /* \"#utility.yul\":6470:6476   */\n      dup5\n        /* \"#utility.yul\":6426:6499   */\n      tag_235\n      jump\t// in\n    tag_351:\n        /* \"#utility.yul\":5299:6506   */\n      swap12\n      swap11\n      pop\n      pop\n      pop\n      pop\n      pop\n      pop\n      pop\n      pop\n      pop\n      pop\n      pop\n      jump\t// out\n        /* \"#utility.yul\":6512:6841   */\n    tag_37:\n        /* \"#utility.yul\":6571:6577   */\n      0x00\n        /* \"#utility.yul\":6620:6622   */\n      0x20\n        /* \"#utility.yul\":6608:6617   */\n      dup3\n        /* \"#utility.yul\":6599:6606   */\n      dup5\n        /* \"#utility.yul\":6595:6618   */\n      sub\n        /* \"#utility.yul\":6591:6623   */\n      slt\n        /* \"#utility.yul\":6588:6707   */\n      iszero\n      tag_353\n      jumpi\n        /* \"#utility.yul\":6626:6705   */\n      tag_354\n      tag_214\n      jump\t// in\n    tag_354:\n        /* \"#utility.yul\":6588:6707   */\n    tag_353:\n        /* \"#utility.yul\":6746:6747   */\n      0x00\n        /* \"#utility.yul\":6771:6824   */\n      tag_355\n        /* \"#utility.yul\":6816:6823   */\n      dup5\n        /* \"#utility.yul\":6807:6813   */\n      dup3\n        /* \"#utility.yul\":6796:6805   */\n      dup6\n        /* \"#utility.yul\":6792:6814   */\n      add\n        /* \"#utility.yul\":6771:6824   */\n      tag_219\n      jump\t// in\n    tag_355:\n        /* \"#utility.yul\":6761:6824   */\n      swap2\n      pop\n        /* \"#utility.yul\":6717:6834   */\n      pop\n        /* \"#utility.yul\":6512:6841   */\n      swap3\n      swap2\n      pop\n      pop\n      jump\t// out\n        /* \"#utility.yul\":6847:6923   */\n    tag_239:\n        /* \"#utility.yul\":6883:6890   */\n      0x00\n        /* \"#utility.yul\":6912:6917   */\n      dup2\n        /* \"#utility.yul\":6901:6917   */\n      swap1\n      pop\n        /* \"#utility.yul\":6847:6923   */\n      swap2\n      swap1\n      pop\n      jump\t// out\n        /* \"#utility.yul\":6929:7044   */\n    tag_240:\n        /* \"#utility.yul\":7014:7037   */\n      tag_358\n        /* \"#utility.yul\":7031:7036   */\n      dup2\n        /* \"#utility.yul\":7014:7037   */\n      tag_239\n      jump\t// in\n    tag_358:\n        /* \"#utility.yul\":7009:7012   */\n      dup3\n        /* \"#utility.yul\":7002:7038   */\n      mstore\n        /* \"#utility.yul\":6929:7044   */\n      pop\n      pop\n      jump\t// out\n        /* \"#utility.yul\":7050:7268   */\n    tag_46:\n        /* \"#utility.yul\":7141:7145   */\n      0x00\n        /* \"#utility.yul\":7179:7181   */\n      0x20\n        /* \"#utility.yul\":7168:7177   */\n      dup3\n        /* \"#utility.yul\":7164:7182   */\n      add\n        /* \"#utility.yul\":7156:7182   */\n      swap1\n      pop\n        /* \"#utility.yul\":7192:7261   */\n      tag_360\n        /* \"#utility.yul\":7258:7259   */\n      0x00\n        /* \"#utility.yul\":7247:7256   */\n      dup4\n        /* \"#utility.yul\":7243:7260   */\n      add\n        /* \"#utility.yul\":7234:7240   */\n      dup5\n        /* \"#utility.yul\":7192:7261   */\n      tag_240\n      jump\t// in\n    tag_360:\n        /* \"#utility.yul\":7050:7268   */\n      swap3\n      swap2\n      pop\n      pop\n      jump\t// out\n        /* \"#utility.yul\":7274:7373   */\n    tag_241:\n        /* \"#utility.yul\":7326:7332   */\n      0x00\n        /* \"#utility.yul\":7360:7365   */\n      dup2\n        /* \"#utility.yul\":7354:7366   */\n      mload\n        /* \"#utility.yul\":7344:7366   */\n      swap1\n      pop\n        /* \"#utility.yul\":7274:7373   */\n      swap2\n      swap1\n      pop\n      jump\t// out\n        /* \"#utility.yul\":7379:7548   */\n    tag_242:\n        /* \"#utility.yul\":7463:7474   */\n      0x00\n        /* \"#utility.yul\":7497:7503   */\n      dup3\n        /* \"#utility.yul\":7492:7495   */\n      dup3\n        /* \"#utility.yul\":7485:7504   */\n      mstore\n        /* \"#utility.yul\":7537:7541   */\n      0x20\n        /* \"#utility.yul\":7532:7535   */\n      dup3\n        /* \"#utility.yul\":7528:7542   */\n      add\n        /* \"#utility.yul\":7513:7542   */\n      swap1\n      pop\n        /* \"#utility.yul\":7379:7548   */\n      swap3\n      swap2\n      pop\n      pop\n      jump\t// out\n        /* \"#utility.yul\":7554:7693   */\n    tag_243:\n        /* \"#utility.yul\":7643:7649   */\n      dup3\n        /* \"#utility.yul\":7638:7641   */\n      dup2\n        /* \"#utility.yul\":7633:7636   */\n      dup4\n        /* \"#utility.yul\":7627:7650   */\n      mcopy\n        /* \"#utility.yul\":7684:7685   */\n      0x00\n        /* \"#utility.yul\":7675:7681   */\n      dup4\n        /* \"#utility.yul\":7670:7673   */\n      dup4\n        /* \"#utility.yul\":7666:7682   */\n      add\n        /* \"#utility.yul\":7659:7686   */\n      mstore\n        /* \"#utility.yul\":7554:7693   */\n      pop\n      pop\n      pop\n      jump\t// out\n        /* \"#utility.yul\":7699:8076   */\n    tag_244:\n        /* \"#utility.yul\":7787:7790   */\n      0x00\n        /* \"#utility.yul\":7815:7854   */\n      tag_365\n        /* \"#utility.yul\":7848:7853   */\n      dup3\n        /* \"#utility.yul\":7815:7854   */\n      tag_241\n      jump\t// in\n    tag_365:\n        /* \"#utility.yul\":7870:7941   */\n      tag_366\n        /* \"#utility.yul\":7934:7940   */\n      dup2\n        /* \"#utility.yul\":7929:7932   */\n      dup6\n        /* \"#utility.yul\":7870:7941   */\n      tag_242\n      jump\t// in\n    tag_366:\n        /* \"#utility.yul\":7863:7941   */\n      swap4\n      pop\n        /* \"#utility.yul\":7950:8015   */\n      tag_367\n        /* \"#utility.yul\":8008:8014   */\n      dup2\n        /* \"#utility.yul\":8003:8006   */\n      dup6\n        /* \"#utility.yul\":7996:8000   */\n      0x20\n        /* \"#utility.yul\":7989:7994   */\n      dup7\n        /* \"#utility.yul\":7985:8001   */\n      add\n        /* \"#utility.yul\":7950:8015   */\n      tag_243\n      jump\t// in\n    tag_367:\n        /* \"#utility.yul\":8040:8069   */\n      tag_368\n        /* \"#utility.yul\":8062:8068   */\n      dup2\n        /* \"#utility.yul\":8040:8069   */\n      tag_222\n      jump\t// in\n    tag_368:\n        /* \"#utility.yul\":8035:8038   */\n      dup5\n        /* \"#utility.yul\":8031:8070   */\n      add\n        /* \"#utility.yul\":8024:8070   */\n      swap2\n      pop\n        /* \"#utility.yul\":7791:8076   */\n      pop\n        /* \"#utility.yul\":7699:8076   */\n      swap3\n      swap2\n      pop\n      pop\n      jump\t// out\n        /* \"#utility.yul\":8082:8395   */\n    tag_51:\n        /* \"#utility.yul\":8195:8199   */\n      0x00\n        /* \"#utility.yul\":8233:8235   */\n      0x20\n        /* \"#utility.yul\":8222:8231   */\n      dup3\n        /* \"#utility.yul\":8218:8236   */\n      add\n        /* \"#utility.yul\":8210:8236   */\n      swap1\n      pop\n        /* \"#utility.yul\":8282:8291   */\n      dup2\n        /* \"#utility.yul\":8276:8280   */\n      dup2\n        /* \"#utility.yul\":8272:8292   */\n      sub\n        /* \"#utility.yul\":8268:8269   */\n      0x00\n        /* \"#utility.yul\":8257:8266   */\n      dup4\n        /* \"#utility.yul\":8253:8270   */\n      add\n        /* \"#utility.yul\":8246:8293   */\n      mstore\n        /* \"#utility.yul\":8310:8388   */\n      tag_370\n        /* \"#utility.yul\":8383:8387   */\n      dup2\n        /* \"#utility.yul\":8374:8380   */\n      dup5\n        /* \"#utility.yul\":8310:8388   */\n      tag_244\n      jump\t// in\n    tag_370:\n        /* \"#utility.yul\":8302:8388   */\n      swap1\n      pop\n        /* \"#utility.yul\":8082:8395   */\n      swap3\n      swap2\n      pop\n      pop\n      jump\t// out\n        /* \"#utility.yul\":8401:9020   */\n    tag_54:\n        /* \"#utility.yul\":8478:8484   */\n      0x00\n        /* \"#utility.yul\":8486:8492   */\n      0x00\n        /* \"#utility.yul\":8494:8500   */\n      0x00\n        /* \"#utility.yul\":8543:8545   */\n      0x60\n        /* \"#utility.yul\":8531:8540   */\n      dup5\n        /* \"#utility.yul\":8522:8529   */\n      dup7\n        /* \"#utility.yul\":8518:8541   */\n      sub\n        /* \"#utility.yul\":8514:8546   */\n      slt\n        /* \"#utility.yul\":8511:8630   */\n      iszero\n      tag_372\n      jumpi\n        /* \"#utility.yul\":8549:8628   */\n      tag_373\n      tag_214\n      jump\t// in\n    tag_373:\n        /* \"#utility.yul\":8511:8630   */\n    tag_372:\n        /* \"#utility.yul\":8669:8670   */\n      0x00\n        /* \"#utility.yul\":8694:8747   */\n      tag_374\n        /* \"#utility.yul\":8739:8746   */\n      dup7\n        /* \"#utility.yul\":8730:8736   */\n      dup3\n        /* \"#utility.yul\":8719:8728   */\n      dup8\n        /* \"#utility.yul\":8715:8737   */\n      add\n        /* \"#utility.yul\":8694:8747   */\n      tag_234\n      jump\t// in\n    tag_374:\n        /* \"#utility.yul\":8684:8747   */\n      swap4\n      pop\n        /* \"#utility.yul\":8640:8757   */\n      pop\n        /* \"#utility.yul\":8796:8798   */\n      0x20\n        /* \"#utility.yul\":8822:8875   */\n      tag_375\n        /* \"#utility.yul\":8867:8874   */\n      dup7\n        /* \"#utility.yul\":8858:8864   */\n      dup3\n        /* \"#utility.yul\":8847:8856   */\n      dup8\n        /* \"#utility.yul\":8843:8865   */\n      add\n        /* \"#utility.yul\":8822:8875   */\n      tag_234\n      jump\t// in\n    tag_375:\n        /* \"#utility.yul\":8812:8875   */\n      swap3\n      pop\n        /* \"#utility.yul\":8767:8885   */\n      pop\n        /* \"#utility.yul\":8924:8926   */\n      0x40\n        /* \"#utility.yul\":8950:9003   */\n      tag_376\n        /* \"#utility.yul\":8995:9002   */\n      dup7\n        /* \"#utility.yul\":8986:8992   */\n      dup3\n        /* \"#utility.yul\":8975:8984   */\n      dup8\n        /* \"#utility.yul\":8971:8993   */\n      add\n        /* \"#utility.yul\":8950:9003   */\n      tag_219\n      jump\t// in\n    tag_376:\n        /* \"#utility.yul\":8940:9003   */\n      swap2\n      pop\n        /* \"#utility.yul\":8895:9013   */\n      pop\n        /* \"#utility.yul\":8401:9020   */\n      swap3\n      pop\n      swap3\n      pop\n      swap3\n      jump\t// out\n        /* \"#utility.yul\":9026:9791   */\n    tag_59:\n        /* \"#utility.yul\":9112:9118   */\n      0x00\n        /* \"#utility.yul\":9120:9126   */\n      0x00\n        /* \"#utility.yul\":9128:9134   */\n      0x00\n        /* \"#utility.yul\":9136:9142   */\n      0x00\n        /* \"#utility.yul\":9185:9188   */\n      0x80\n        /* \"#utility.yul\":9173:9182   */\n      dup6\n        /* \"#utility.yul\":9164:9171   */\n      dup8\n        /* \"#utility.yul\":9160:9183   */\n      sub\n        /* \"#utility.yul\":9156:9189   */\n      slt\n        /* \"#utility.yul\":9153:9273   */\n      iszero\n      tag_378\n      jumpi\n        /* \"#utility.yul\":9192:9271   */\n      tag_379\n      tag_214\n      jump\t// in\n    tag_379:\n        /* \"#utility.yul\":9153:9273   */\n    tag_378:\n        /* \"#utility.yul\":9312:9313   */\n      0x00\n        /* \"#utility.yul\":9337:9390   */\n      tag_380\n        /* \"#utility.yul\":9382:9389   */\n      dup8\n        /* \"#utility.yul\":9373:9379   */\n      dup3\n        /* \"#utility.yul\":9362:9371   */\n      dup9\n        /* \"#utility.yul\":9358:9380   */\n      add\n        /* \"#utility.yul\":9337:9390   */\n      tag_234\n      jump\t// in\n    tag_380:\n        /* \"#utility.yul\":9327:9390   */\n      swap5\n      pop\n        /* \"#utility.yul\":9283:9400   */\n      pop\n        /* \"#utility.yul\":9439:9441   */\n      0x20\n        /* \"#utility.yul\":9465:9518   */\n      tag_381\n        /* \"#utility.yul\":9510:9517   */\n      dup8\n        /* \"#utility.yul\":9501:9507   */\n      dup3\n        /* \"#utility.yul\":9490:9499   */\n      dup9\n        /* \"#utility.yul\":9486:9508   */\n      add\n        /* \"#utility.yul\":9465:9518   */\n      tag_234\n      jump\t// in\n    tag_381:\n        /* \"#utility.yul\":9455:9518   */\n      swap4\n      pop\n        /* \"#utility.yul\":9410:9528   */\n      pop\n        /* \"#utility.yul\":9567:9569   */\n      0x40\n        /* \"#utility.yul\":9593:9646   */\n      tag_382\n        /* \"#utility.yul\":9638:9645   */\n      dup8\n        /* \"#utility.yul\":9629:9635   */\n      dup3\n        /* \"#utility.yul\":9618:9627   */\n      dup9\n        /* \"#utility.yul\":9614:9636   */\n      add\n        /* \"#utility.yul\":9593:9646   */\n      tag_219\n      jump\t// in\n    tag_382:\n        /* \"#utility.yul\":9583:9646   */\n      swap3\n      pop\n        /* \"#utility.yul\":9538:9656   */\n      pop\n        /* \"#utility.yul\":9695:9697   */\n      0x60\n        /* \"#utility.yul\":9721:9774   */\n      tag_383\n        /* \"#utility.yul\":9766:9773   */\n      dup8\n        /* \"#utility.yul\":9757:9763   */\n      dup3\n        /* \"#utility.yul\":9746:9755   */\n      dup9\n        /* \"#utility.yul\":9742:9764   */\n      add\n        /* \"#utility.yul\":9721:9774   */\n      tag_234\n      jump\t// in\n    tag_383:\n        /* \"#utility.yul\":9711:9774   */\n      swap2\n      pop\n        /* \"#utility.yul\":9666:9784   */\n      pop\n        /* \"#utility.yul\":9026:9791   */\n      swap3\n      swap6\n      swap2\n      swap5\n      pop\n      swap3\n      pop\n      jump\t// out\n        /* \"#utility.yul\":9797:10019   */\n    tag_69:\n        /* \"#utility.yul\":9890:9894   */\n      0x00\n        /* \"#utility.yul\":9928:9930   */\n      0x20\n        /* \"#utility.yul\":9917:9926   */\n      dup3\n        /* \"#utility.yul\":9913:9931   */\n      add\n        /* \"#utility.yul\":9905:9931   */\n      swap1\n      pop\n        /* \"#utility.yul\":9941:10012   */\n      tag_385\n        /* \"#utility.yul\":10009:10010   */\n      0x00\n        /* \"#utility.yul\":9998:10007   */\n      dup4\n        /* \"#utility.yul\":9994:10011   */\n      add\n        /* \"#utility.yul\":9985:9991   */\n      dup5\n        /* \"#utility.yul\":9941:10012   */\n      tag_235\n      jump\t// in\n    tag_385:\n        /* \"#utility.yul\":9797:10019   */\n      swap3\n      swap2\n      pop\n      pop\n      jump\t// out\n        /* \"#utility.yul\":10025:10247   */\n    tag_74:\n        /* \"#utility.yul\":10118:10122   */\n      0x00\n        /* \"#utility.yul\":10156:10158   */\n      0x20\n        /* \"#utility.yul\":10145:10154   */\n      dup3\n        /* \"#utility.yul\":10141:10159   */\n      add\n        /* \"#utility.yul\":10133:10159   */\n      swap1\n      pop\n        /* \"#utility.yul\":10169:10240   */\n      tag_387\n        /* \"#utility.yul\":10237:10238   */\n      0x00\n        /* \"#utility.yul\":10226:10235   */\n      dup4\n        /* \"#utility.yul\":10222:10239   */\n      add\n        /* \"#utility.yul\":10213:10219   */\n      dup5\n        /* \"#utility.yul\":10169:10240   */\n      tag_236\n      jump\t// in\n    tag_387:\n        /* \"#utility.yul\":10025:10247   */\n      swap3\n      swap2\n      pop\n      pop\n      jump\t// out\n        /* \"#utility.yul\":10253:10338   */\n    tag_245:\n        /* \"#utility.yul\":10298:10305   */\n      0x00\n        /* \"#utility.yul\":10327:10332   */\n      dup2\n        /* \"#utility.yul\":10316:10332   */\n      swap1\n      pop\n        /* \"#utility.yul\":10253:10338   */\n      swap2\n      swap1\n      pop\n      jump\t// out\n        /* \"#utility.yul\":10344:10445   */\n    tag_246:\n        /* \"#utility.yul\":10380:10387   */\n      0x00\n        /* \"#utility.yul\":10420:10438   */\n      0xffffffffffffffff\n        /* \"#utility.yul\":10413:10418   */\n      dup3\n        /* \"#utility.yul\":10409:10439   */\n      and\n        /* \"#utility.yul\":10398:10439   */\n      swap1\n      pop\n        /* \"#utility.yul\":10344:10445   */\n      swap2\n      swap1\n      pop\n      jump\t// out\n        /* \"#utility.yul\":10451:10511   */\n    tag_247:\n        /* \"#utility.yul\":10479:10482   */\n      0x00\n        /* \"#utility.yul\":10500:10505   */\n      dup2\n        /* \"#utility.yul\":10493:10505   */\n      swap1\n      pop\n        /* \"#utility.yul\":10451:10511   */\n      swap2\n      swap1\n      pop\n      jump\t// out\n        /* \"#utility.yul\":10517:10673   */\n    tag_248:\n        /* \"#utility.yul\":10574:10583   */\n      0x00\n        /* \"#utility.yul\":10607:10667   */\n      tag_392\n        /* \"#utility.yul\":10624:10666   */\n      tag_393\n        /* \"#utility.yul\":10633:10665   */\n      tag_394\n        /* \"#utility.yul\":10659:10664   */\n      dup5\n        /* \"#utility.yul\":10633:10665   */\n      tag_245\n      jump\t// in\n    tag_394:\n        /* \"#utility.yul\":10624:10666   */\n      tag_247\n      jump\t// in\n    tag_393:\n        /* \"#utility.yul\":10607:10667   */\n      tag_246\n      jump\t// in\n    tag_392:\n        /* \"#utility.yul\":10594:10667   */\n      swap1\n      pop\n        /* \"#utility.yul\":10517:10673   */\n      swap2\n      swap1\n      pop\n      jump\t// out\n        /* \"#utility.yul\":10679:10824   */\n    tag_249:\n        /* \"#utility.yul\":10773:10817   */\n      tag_396\n        /* \"#utility.yul\":10811:10816   */\n      dup2\n        /* \"#utility.yul\":10773:10817   */\n      tag_248\n      jump\t// in\n    tag_396:\n        /* \"#utility.yul\":10768:10771   */\n      dup3\n        /* \"#utility.yul\":10761:10818   */\n      mstore\n        /* \"#utility.yul\":10679:10824   */\n      pop\n      pop\n      jump\t// out\n        /* \"#utility.yul\":10830:11066   */\n    tag_99:\n        /* \"#utility.yul\":10930:10934   */\n      0x00\n        /* \"#utility.yul\":10968:10970   */\n      0x20\n        /* \"#utility.yul\":10957:10966   */\n      dup3\n        /* \"#utility.yul\":10953:10971   */\n      add\n        /* \"#utility.yul\":10945:10971   */\n      swap1\n      pop\n        /* \"#utility.yul\":10981:11059   */\n      tag_398\n        /* \"#utility.yul\":11056:11057   */\n      0x00\n        /* \"#utility.yul\":11045:11054   */\n      dup4\n        /* \"#utility.yul\":11041:11058   */\n      add\n        /* \"#utility.yul\":11032:11038   */\n      dup5\n        /* \"#utility.yul\":10981:11059   */\n      tag_249\n      jump\t// in\n    tag_398:\n        /* \"#utility.yul\":10830:11066   */\n      swap3\n      swap2\n      pop\n      pop\n      jump\t// out\n        /* \"#utility.yul\":11072:11177   */\n    tag_250:\n        /* \"#utility.yul\":11108:11115   */\n      0x00\n        /* \"#utility.yul\":11148:11170   */\n      0xffffffffffffffffffff\n        /* \"#utility.yul\":11141:11146   */\n      dup3\n        /* \"#utility.yul\":11137:11171   */\n      and\n        /* \"#utility.yul\":11126:11171   */\n      swap1\n      pop\n        /* \"#utility.yul\":11072:11177   */\n      swap2\n      swap1\n      pop\n      jump\t// out\n        /* \"#utility.yul\":11183:11303   */\n    tag_251:\n        /* \"#utility.yul\":11255:11278   */\n      tag_401\n        /* \"#utility.yul\":11272:11277   */\n      dup2\n        /* \"#utility.yul\":11255:11278   */\n      tag_250\n      jump\t// in\n    tag_401:\n        /* \"#utility.yul\":11248:11253   */\n      dup2\n        /* \"#utility.yul\":11245:11279   */\n      eq\n        /* \"#utility.yul\":11235:11297   */\n      tag_402\n      jumpi\n        /* \"#utility.yul\":11293:11294   */\n      0x00\n        /* \"#utility.yul\":11290:11291   */\n      0x00\n        /* \"#utility.yul\":11283:11295   */\n      revert\n        /* \"#utility.yul\":11235:11297   */\n    tag_402:\n        /* \"#utility.yul\":11183:11303   */\n      pop\n      jump\t// out\n        /* \"#utility.yul\":11309:11450   */\n    tag_252:\n        /* \"#utility.yul\":11365:11370   */\n      0x00\n        /* \"#utility.yul\":11396:11402   */\n      dup2\n        /* \"#utility.yul\":11390:11403   */\n      mload\n        /* \"#utility.yul\":11381:11403   */\n      swap1\n      pop\n        /* \"#utility.yul\":11412:11444   */\n      tag_404\n        /* \"#utility.yul\":11438:11443   */\n      dup2\n        /* \"#utility.yul\":11412:11444   */\n      tag_251\n      jump\t// in\n    tag_404:\n        /* \"#utility.yul\":11309:11450   */\n      swap3\n      swap2\n      pop\n      pop\n      jump\t// out\n        /* \"#utility.yul\":11456:11576   */\n    tag_253:\n        /* \"#utility.yul\":11528:11551   */\n      tag_406\n        /* \"#utility.yul\":11545:11550   */\n      dup2\n        /* \"#utility.yul\":11528:11551   */\n      tag_239\n      jump\t// in\n    tag_406:\n        /* \"#utility.yul\":11521:11526   */\n      dup2\n        /* \"#utility.yul\":11518:11552   */\n      eq\n        /* \"#utility.yul\":11508:11570   */\n      tag_407\n      jumpi\n        /* \"#utility.yul\":11566:11567   */\n      0x00\n        /* \"#utility.yul\":11563:11564   */\n      0x00\n        /* \"#utility.yul\":11556:11568   */\n      revert\n        /* \"#utility.yul\":11508:11570   */\n    tag_407:\n        /* \"#utility.yul\":11456:11576   */\n      pop\n      jump\t// out\n        /* \"#utility.yul\":11582:11723   */\n    tag_254:\n        /* \"#utility.yul\":11638:11643   */\n      0x00\n        /* \"#utility.yul\":11669:11675   */\n      dup2\n        /* \"#utility.yul\":11663:11676   */\n      mload\n        /* \"#utility.yul\":11654:11676   */\n      swap1\n      pop\n        /* \"#utility.yul\":11685:11717   */\n      tag_409\n        /* \"#utility.yul\":11711:11716   */\n      dup2\n        /* \"#utility.yul\":11685:11717   */\n      tag_253\n      jump\t// in\n    tag_409:\n        /* \"#utility.yul\":11582:11723   */\n      swap3\n      swap2\n      pop\n      pop\n      jump\t// out\n        /* \"#utility.yul\":11729:11872   */\n    tag_255:\n        /* \"#utility.yul\":11786:11791   */\n      0x00\n        /* \"#utility.yul\":11817:11823   */\n      dup2\n        /* \"#utility.yul\":11811:11824   */\n      mload\n        /* \"#utility.yul\":11802:11824   */\n      swap1\n      pop\n        /* \"#utility.yul\":11833:11866   */\n      tag_411\n        /* \"#utility.yul\":11860:11865   */\n      dup2\n        /* \"#utility.yul\":11833:11866   */\n      tag_233\n      jump\t// in\n    tag_411:\n        /* \"#utility.yul\":11729:11872   */\n      swap3\n      swap2\n      pop\n      pop\n      jump\t// out\n        /* \"#utility.yul\":11878:12849   */\n    tag_104:\n        /* \"#utility.yul\":11981:11987   */\n      0x00\n        /* \"#utility.yul\":11989:11995   */\n      0x00\n        /* \"#utility.yul\":11997:12003   */\n      0x00\n        /* \"#utility.yul\":12005:12011   */\n      0x00\n        /* \"#utility.yul\":12013:12019   */\n      0x00\n        /* \"#utility.yul\":12062:12065   */\n      0xa0\n        /* \"#utility.yul\":12050:12059   */\n      dup7\n        /* \"#utility.yul\":12041:12048   */\n      dup9\n        /* \"#utility.yul\":12037:12060   */\n      sub\n        /* \"#utility.yul\":12033:12066   */\n      slt\n        /* \"#utility.yul\":12030:12150   */\n      iszero\n      tag_413\n      jumpi\n        /* \"#utility.yul\":12069:12148   */\n      tag_414\n      tag_214\n      jump\t// in\n    tag_414:\n        /* \"#utility.yul\":12030:12150   */\n    tag_413:\n        /* \"#utility.yul\":12189:12190   */\n      0x00\n        /* \"#utility.yul\":12214:12277   */\n      tag_415\n        /* \"#utility.yul\":12269:12276   */\n      dup9\n        /* \"#utility.yul\":12260:12266   */\n      dup3\n        /* \"#utility.yul\":12249:12258   */\n      dup10\n        /* \"#utility.yul\":12245:12267   */\n      add\n        /* \"#utility.yul\":12214:12277   */\n      tag_252\n      jump\t// in\n    tag_415:\n        /* \"#utility.yul\":12204:12277   */\n      swap6\n      pop\n        /* \"#utility.yul\":12160:12287   */\n      pop\n        /* \"#utility.yul\":12326:12328   */\n      0x20\n        /* \"#utility.yul\":12352:12415   */\n      tag_416\n        /* \"#utility.yul\":12407:12414   */\n      dup9\n        /* \"#utility.yul\":12398:12404   */\n      dup3\n        /* \"#utility.yul\":12387:12396   */\n      dup10\n        /* \"#utility.yul\":12383:12405   */\n      add\n        /* \"#utility.yul\":12352:12415   */\n      tag_254\n      jump\t// in\n    tag_416:\n        /* \"#utility.yul\":12342:12415   */\n      swap5\n      pop\n        /* \"#utility.yul\":12297:12425   */\n      pop\n        /* \"#utility.yul\":12464:12466   */\n      0x40\n        /* \"#utility.yul\":12490:12554   */\n      tag_417\n        /* \"#utility.yul\":12546:12553   */\n      dup9\n        /* \"#utility.yul\":12537:12543   */\n      dup3\n        /* \"#utility.yul\":12526:12535   */\n      dup10\n        /* \"#utility.yul\":12522:12544   */\n      add\n        /* \"#utility.yul\":12490:12554   */\n      tag_255\n      jump\t// in\n    tag_417:\n        /* \"#utility.yul\":12480:12554   */\n      swap4\n      pop\n        /* \"#utility.yul\":12435:12564   */\n      pop\n        /* \"#utility.yul\":12603:12605   */\n      0x60\n        /* \"#utility.yul\":12629:12693   */\n      tag_418\n        /* \"#utility.yul\":12685:12692   */\n      dup9\n        /* \"#utility.yul\":12676:12682   */\n      dup3\n        /* \"#utility.yul\":12665:12674   */\n      dup10\n        /* \"#utility.yul\":12661:12683   */\n      add\n        /* \"#utility.yul\":12629:12693   */\n      tag_255\n      jump\t// in\n    tag_418:\n        /* \"#utility.yul\":12619:12693   */\n      swap3\n      pop\n        /* \"#utility.yul\":12574:12703   */\n      pop\n        /* \"#utility.yul\":12742:12745   */\n      0x80\n        /* \"#utility.yul\":12769:12832   */\n      tag_419\n        /* \"#utility.yul\":12824:12831   */\n      dup9\n        /* \"#utility.yul\":12815:12821   */\n      dup3\n        /* \"#utility.yul\":12804:12813   */\n      dup10\n        /* \"#utility.yul\":12800:12822   */\n      add\n        /* \"#utility.yul\":12769:12832   */\n      tag_252\n      jump\t// in\n    tag_419:\n        /* \"#utility.yul\":12759:12832   */\n      swap2\n      pop\n        /* \"#utility.yul\":12713:12842   */\n      pop\n        /* \"#utility.yul\":11878:12849   */\n      swap3\n      swap6\n      pop\n      swap3\n      swap6\n      swap1\n      swap4\n      pop\n      jump\t// out\n        /* \"#utility.yul\":12855:13035   */\n    tag_256:\n        /* \"#utility.yul\":12903:12980   */\n      0x4e487b7100000000000000000000000000000000000000000000000000000000\n        /* \"#utility.yul\":12900:12901   */\n      0x00\n        /* \"#utility.yul\":12893:12981   */\n      mstore\n        /* \"#utility.yul\":13000:13004   */\n      0x11\n        /* \"#utility.yul\":12997:12998   */\n      0x04\n        /* \"#utility.yul\":12990:13005   */\n      mstore\n        /* \"#utility.yul\":13024:13028   */\n      0x24\n        /* \"#utility.yul\":13021:13022   */\n      0x00\n        /* \"#utility.yul\":13014:13029   */\n      revert\n        /* \"#utility.yul\":13041:13232   */\n    tag_108:\n        /* \"#utility.yul\":13081:13084   */\n      0x00\n        /* \"#utility.yul\":13100:13120   */\n      tag_422\n        /* \"#utility.yul\":13118:13119   */\n      dup3\n        /* \"#utility.yul\":13100:13120   */\n      tag_232\n      jump\t// in\n    tag_422:\n        /* \"#utility.yul\":13095:13120   */\n      swap2\n      pop\n        /* \"#utility.yul\":13134:13154   */\n      tag_423\n        /* \"#utility.yul\":13152:13153   */\n      dup4\n        /* \"#utility.yul\":13134:13154   */\n      tag_232\n      jump\t// in\n    tag_423:\n        /* \"#utility.yul\":13129:13154   */\n      swap3\n      pop\n        /* \"#utility.yul\":13177:13178   */\n      dup3\n        /* \"#utility.yul\":13174:13175   */\n      dup3\n        /* \"#utility.yul\":13170:13179   */\n      add\n        /* \"#utility.yul\":13163:13179   */\n      swap1\n      pop\n        /* \"#utility.yul\":13198:13201   */\n      dup1\n        /* \"#utility.yul\":13195:13196   */\n      dup3\n        /* \"#utility.yul\":13192:13202   */\n      gt\n        /* \"#utility.yul\":13189:13225   */\n      iszero\n      tag_424\n      jumpi\n        /* \"#utility.yul\":13205:13223   */\n      tag_425\n      tag_256\n      jump\t// in\n    tag_425:\n        /* \"#utility.yul\":13189:13225   */\n    tag_424:\n        /* \"#utility.yul\":13041:13232   */\n      swap3\n      swap2\n      pop\n      pop\n      jump\t// out\n        /* \"#utility.yul\":13238:13405   */\n    tag_257:\n        /* \"#utility.yul\":13378:13397   */\n      0x41756374696f6e2068617320656e646564000000000000000000000000000000\n        /* \"#utility.yul\":13374:13375   */\n      0x00\n        /* \"#utility.yul\":13366:13372   */\n      dup3\n        /* \"#utility.yul\":13362:13376   */\n      add\n        /* \"#utility.yul\":13355:13398   */\n      mstore\n        /* \"#utility.yul\":13238:13405   */\n      pop\n      jump\t// out\n        /* \"#utility.yul\":13411:13777   */\n    tag_258:\n        /* \"#utility.yul\":13553:13556   */\n      0x00\n        /* \"#utility.yul\":13574:13641   */\n      tag_428\n        /* \"#utility.yul\":13638:13640   */\n      0x11\n        /* \"#utility.yul\":13633:13636   */\n      dup4\n        /* \"#utility.yul\":13574:13641   */\n      tag_242\n      jump\t// in\n    tag_428:\n        /* \"#utility.yul\":13567:13641   */\n      swap2\n      pop\n        /* \"#utility.yul\":13650:13743   */\n      tag_429\n        /* \"#utility.yul\":13739:13742   */\n      dup3\n        /* \"#utility.yul\":13650:13743   */\n      tag_257\n      jump\t// in\n    tag_429:\n        /* \"#utility.yul\":13768:13770   */\n      0x20\n        /* \"#utility.yul\":13763:13766   */\n      dup3\n        /* \"#utility.yul\":13759:13771   */\n      add\n        /* \"#utility.yul\":13752:13771   */\n      swap1\n      pop\n        /* \"#utility.yul\":13411:13777   */\n      swap2\n      swap1\n      pop\n      jump\t// out\n        /* \"#utility.yul\":13783:14202   */\n    tag_111:\n        /* \"#utility.yul\":13949:13953   */\n      0x00\n        /* \"#utility.yul\":13987:13989   */\n      0x20\n        /* \"#utility.yul\":13976:13985   */\n      dup3\n        /* \"#utility.yul\":13972:13990   */\n      add\n        /* \"#utility.yul\":13964:13990   */\n      swap1\n      pop\n        /* \"#utility.yul\":14036:14045   */\n      dup2\n        /* \"#utility.yul\":14030:14034   */\n      dup2\n        /* \"#utility.yul\":14026:14046   */\n      sub\n        /* \"#utility.yul\":14022:14023   */\n      0x00\n        /* \"#utility.yul\":14011:14020   */\n      dup4\n        /* \"#utility.yul\":14007:14024   */\n      add\n        /* \"#utility.yul\":14000:14047   */\n      mstore\n        /* \"#utility.yul\":14064:14195   */\n      tag_431\n        /* \"#utility.yul\":14190:14194   */\n      dup2\n        /* \"#utility.yul\":14064:14195   */\n      tag_258\n      jump\t// in\n    tag_431:\n        /* \"#utility.yul\":14056:14195   */\n      swap1\n      pop\n        /* \"#utility.yul\":13783:14202   */\n      swap2\n      swap1\n      pop\n      jump\t// out\n        /* \"#utility.yul\":14208:14438   */\n    tag_259:\n        /* \"#utility.yul\":14348:14382   */\n      0x426964206d75737420626520686967686572207468616e2063757272656e7420\n        /* \"#utility.yul\":14344:14345   */\n      0x00\n        /* \"#utility.yul\":14336:14342   */\n      dup3\n        /* \"#utility.yul\":14332:14346   */\n      add\n        /* \"#utility.yul\":14325:14383   */\n      mstore\n        /* \"#utility.yul\":14417:14430   */\n      0x6869676865737420626964000000000000000000000000000000000000000000\n        /* \"#utility.yul\":14412:14414   */\n      0x20\n        /* \"#utility.yul\":14404:14410   */\n      dup3\n        /* \"#utility.yul\":14400:14415   */\n      add\n        /* \"#utility.yul\":14393:14431   */\n      mstore\n        /* \"#utility.yul\":14208:14438   */\n      pop\n      jump\t// out\n        /* \"#utility.yul\":14444:14810   */\n    tag_260:\n        /* \"#utility.yul\":14586:14589   */\n      0x00\n        /* \"#utility.yul\":14607:14674   */\n      tag_434\n        /* \"#utility.yul\":14671:14673   */\n      0x2b\n        /* \"#utility.yul\":14666:14669   */\n      dup4\n        /* \"#utility.yul\":14607:14674   */\n      tag_242\n      jump\t// in\n    tag_434:\n        /* \"#utility.yul\":14600:14674   */\n      swap2\n      pop\n        /* \"#utility.yul\":14683:14776   */\n      tag_435\n        /* \"#utility.yul\":14772:14775   */\n      dup3\n        /* \"#utility.yul\":14683:14776   */\n      tag_259\n      jump\t// in\n    tag_435:\n        /* \"#utility.yul\":14801:14803   */\n      0x40\n        /* \"#utility.yul\":14796:14799   */\n      dup3\n        /* \"#utility.yul\":14792:14804   */\n      add\n        /* \"#utility.yul\":14785:14804   */\n      swap1\n      pop\n        /* \"#utility.yul\":14444:14810   */\n      swap2\n      swap1\n      pop\n      jump\t// out\n        /* \"#utility.yul\":14816:15235   */\n    tag_115:\n        /* \"#utility.yul\":14982:14986   */\n      0x00\n        /* \"#utility.yul\":15020:15022   */\n      0x20\n        /* \"#utility.yul\":15009:15018   */\n      dup3\n        /* \"#utility.yul\":15005:15023   */\n      add\n        /* \"#utility.yul\":14997:15023   */\n      swap1\n      pop\n        /* \"#utility.yul\":15069:15078   */\n      dup2\n        /* \"#utility.yul\":15063:15067   */\n      dup2\n        /* \"#utility.yul\":15059:15079   */\n      sub\n        /* \"#utility.yul\":15055:15056   */\n      0x00\n        /* \"#utility.yul\":15044:15053   */\n      dup4\n        /* \"#utility.yul\":15040:15057   */\n      add\n        /* \"#utility.yul\":15033:15080   */\n      mstore\n        /* \"#utility.yul\":15097:15228   */\n      tag_437\n        /* \"#utility.yul\":15223:15227   */\n      dup2\n        /* \"#utility.yul\":15097:15228   */\n      tag_260\n      jump\t// in\n    tag_437:\n        /* \"#utility.yul\":15089:15228   */\n      swap1\n      pop\n        /* \"#utility.yul\":14816:15235   */\n      swap2\n      swap1\n      pop\n      jump\t// out\n        /* \"#utility.yul\":15241:15420   */\n    tag_261:\n        /* \"#utility.yul\":15381:15412   */\n      0x4f6e6c792061646d696e2063616e206372656174652061756374696f6e000000\n        /* \"#utility.yul\":15377:15378   */\n      0x00\n        /* \"#utility.yul\":15369:15375   */\n      dup3\n        /* \"#utility.yul\":15365:15379   */\n      add\n        /* \"#utility.yul\":15358:15413   */\n      mstore\n        /* \"#utility.yul\":15241:15420   */\n      pop\n      jump\t// out\n        /* \"#utility.yul\":15426:15792   */\n    tag_262:\n        /* \"#utility.yul\":15568:15571   */\n      0x00\n        /* \"#utility.yul\":15589:15656   */\n      tag_440\n        /* \"#utility.yul\":15653:15655   */\n      0x1d\n        /* \"#utility.yul\":15648:15651   */\n      dup4\n        /* \"#utility.yul\":15589:15656   */\n      tag_242\n      jump\t// in\n    tag_440:\n        /* \"#utility.yul\":15582:15656   */\n      swap2\n      pop\n        /* \"#utility.yul\":15665:15758   */\n      tag_441\n        /* \"#utility.yul\":15754:15757   */\n      dup3\n        /* \"#utility.yul\":15665:15758   */\n      tag_261\n      jump\t// in\n    tag_441:\n        /* \"#utility.yul\":15783:15785   */\n      0x20\n        /* \"#utility.yul\":15778:15781   */\n      dup3\n        /* \"#utility.yul\":15774:15786   */\n      add\n        /* \"#utility.yul\":15767:15786   */\n      swap1\n      pop\n        /* \"#utility.yul\":15426:15792   */\n      swap2\n      swap1\n      pop\n      jump\t// out\n        /* \"#utility.yul\":15798:16217   */\n    tag_122:\n        /* \"#utility.yul\":15964:15968   */\n      0x00\n        /* \"#utility.yul\":16002:16004   */\n      0x20\n        /* \"#utility.yul\":15991:16000   */\n      dup3\n        /* \"#utility.yul\":15987:16005   */\n      add\n        /* \"#utility.yul\":15979:16005   */\n      swap1\n      pop\n        /* \"#utility.yul\":16051:16060   */\n      dup2\n        /* \"#utility.yul\":16045:16049   */\n      dup2\n        /* \"#utility.yul\":16041:16061   */\n      sub\n        /* \"#utility.yul\":16037:16038   */\n      0x00\n        /* \"#utility.yul\":16026:16035   */\n      dup4\n        /* \"#utility.yul\":16022:16039   */\n      add\n        /* \"#utility.yul\":16015:16062   */\n      mstore\n        /* \"#utility.yul\":16079:16210   */\n      tag_443\n        /* \"#utility.yul\":16205:16209   */\n      dup2\n        /* \"#utility.yul\":16079:16210   */\n      tag_262\n      jump\t// in\n    tag_443:\n        /* \"#utility.yul\":16071:16210   */\n      swap1\n      pop\n        /* \"#utility.yul\":15798:16217   */\n      swap2\n      swap1\n      pop\n      jump\t// out\n        /* \"#utility.yul\":16223:16405   */\n    tag_263:\n        /* \"#utility.yul\":16363:16397   */\n      0x4475726174696f6e206d7573742062652067726561746572207468616e203130\n        /* \"#utility.yul\":16359:16360   */\n      0x00\n        /* \"#utility.yul\":16351:16357   */\n      dup3\n        /* \"#utility.yul\":16347:16361   */\n      add\n        /* \"#utility.yul\":16340:16398   */\n      mstore\n        /* \"#utility.yul\":16223:16405   */\n      pop\n      jump\t// out\n        /* \"#utility.yul\":16411:16777   */\n    tag_264:\n        /* \"#utility.yul\":16553:16556   */\n      0x00\n        /* \"#utility.yul\":16574:16641   */\n      tag_446\n        /* \"#utility.yul\":16638:16640   */\n      0x20\n        /* \"#utility.yul\":16633:16636   */\n      dup4\n        /* \"#utility.yul\":16574:16641   */\n      tag_242\n      jump\t// in\n    tag_446:\n        /* \"#utility.yul\":16567:16641   */\n      swap2\n      pop\n        /* \"#utility.yul\":16650:16743   */\n      tag_447\n        /* \"#utility.yul\":16739:16742   */\n      dup3\n        /* \"#utility.yul\":16650:16743   */\n      tag_263\n      jump\t// in\n    tag_447:\n        /* \"#utility.yul\":16768:16770   */\n      0x20\n        /* \"#utility.yul\":16763:16766   */\n      dup3\n        /* \"#utility.yul\":16759:16771   */\n      add\n        /* \"#utility.yul\":16752:16771   */\n      swap1\n      pop\n        /* \"#utility.yul\":16411:16777   */\n      swap2\n      swap1\n      pop\n      jump\t// out\n        /* \"#utility.yul\":16783:17202   */\n    tag_125:\n        /* \"#utility.yul\":16949:16953   */\n      0x00\n        /* \"#utility.yul\":16987:16989   */\n      0x20\n        /* \"#utility.yul\":16976:16985   */\n      dup3\n        /* \"#utility.yul\":16972:16990   */\n      add\n        /* \"#utility.yul\":16964:16990   */\n      swap1\n      pop\n        /* \"#utility.yul\":17036:17045   */\n      dup2\n        /* \"#utility.yul\":17030:17034   */\n      dup2\n        /* \"#utility.yul\":17026:17046   */\n      sub\n        /* \"#utility.yul\":17022:17023   */\n      0x00\n        /* \"#utility.yul\":17011:17020   */\n      dup4\n        /* \"#utility.yul\":17007:17024   */\n      add\n        /* \"#utility.yul\":17000:17047   */\n      mstore\n        /* \"#utility.yul\":17064:17195   */\n      tag_449\n        /* \"#utility.yul\":17190:17194   */\n      dup2\n        /* \"#utility.yul\":17064:17195   */\n      tag_264\n      jump\t// in\n    tag_449:\n        /* \"#utility.yul\":17056:17195   */\n      swap1\n      pop\n        /* \"#utility.yul\":16783:17202   */\n      swap2\n      swap1\n      pop\n      jump\t// out\n        /* \"#utility.yul\":17208:17429   */\n    tag_265:\n        /* \"#utility.yul\":17348:17382   */\n      0x5374617274207072696365206d7573742062652067726561746572207468616e\n        /* \"#utility.yul\":17344:17345   */\n      0x00\n        /* \"#utility.yul\":17336:17342   */\n      dup3\n        /* \"#utility.yul\":17332:17346   */\n      add\n        /* \"#utility.yul\":17325:17383   */\n      mstore\n        /* \"#utility.yul\":17417:17421   */\n      0x2030000000000000000000000000000000000000000000000000000000000000\n        /* \"#utility.yul\":17412:17414   */\n      0x20\n        /* \"#utility.yul\":17404:17410   */\n      dup3\n        /* \"#utility.yul\":17400:17415   */\n      add\n        /* \"#utility.yul\":17393:17422   */\n      mstore\n        /* \"#utility.yul\":17208:17429   */\n      pop\n      jump\t// out\n        /* \"#utility.yul\":17435:17801   */\n    tag_266:\n        /* \"#utility.yul\":17577:17580   */\n      0x00\n        /* \"#utility.yul\":17598:17665   */\n      tag_452\n        /* \"#utility.yul\":17662:17664   */\n      0x22\n        /* \"#utility.yul\":17657:17660   */\n      dup4\n        /* \"#utility.yul\":17598:17665   */\n      tag_242\n      jump\t// in\n    tag_452:\n        /* \"#utility.yul\":17591:17665   */\n      swap2\n      pop\n        /* \"#utility.yul\":17674:17767   */\n      tag_453\n        /* \"#utility.yul\":17763:17766   */\n      dup3\n        /* \"#utility.yul\":17674:17767   */\n      tag_265\n      jump\t// in\n    tag_453:\n        /* \"#utility.yul\":17792:17794   */\n      0x40\n        /* \"#utility.yul\":17787:17790   */\n      dup3\n        /* \"#utility.yul\":17783:17795   */\n      add\n        /* \"#utility.yul\":17776:17795   */\n      swap1\n      pop\n        /* \"#utility.yul\":17435:17801   */\n      swap2\n      swap1\n      pop\n      jump\t// out\n        /* \"#utility.yul\":17807:18226   */\n    tag_128:\n        /* \"#utility.yul\":17973:17977   */\n      0x00\n        /* \"#utility.yul\":18011:18013   */\n      0x20\n        /* \"#utility.yul\":18000:18009   */\n      dup3\n        /* \"#utility.yul\":17996:18014   */\n      add\n        /* \"#utility.yul\":17988:18014   */\n      swap1\n      pop\n        /* \"#utility.yul\":18060:18069   */\n      dup2\n        /* \"#utility.yul\":18054:18058   */\n      dup2\n        /* \"#utility.yul\":18050:18070   */\n      sub\n        /* \"#utility.yul\":18046:18047   */\n      0x00\n        /* \"#utility.yul\":18035:18044   */\n      dup4\n        /* \"#utility.yul\":18031:18048   */\n      add\n        /* \"#utility.yul\":18024:18071   */\n      mstore\n        /* \"#utility.yul\":18088:18219   */\n      tag_455\n        /* \"#utility.yul\":18214:18218   */\n      dup2\n        /* \"#utility.yul\":18088:18219   */\n      tag_266\n      jump\t// in\n    tag_455:\n        /* \"#utility.yul\":18080:18219   */\n      swap1\n      pop\n        /* \"#utility.yul\":17807:18226   */\n      swap2\n      swap1\n      pop\n      jump\t// out\n        /* \"#utility.yul\":18232:18564   */\n    tag_130:\n        /* \"#utility.yul\":18353:18357   */\n      0x00\n        /* \"#utility.yul\":18391:18393   */\n      0x40\n        /* \"#utility.yul\":18380:18389   */\n      dup3\n        /* \"#utility.yul\":18376:18394   */\n      add\n        /* \"#utility.yul\":18368:18394   */\n      swap1\n      pop\n        /* \"#utility.yul\":18404:18475   */\n      tag_457\n        /* \"#utility.yul\":18472:18473   */\n      0x00\n        /* \"#utility.yul\":18461:18470   */\n      dup4\n        /* \"#utility.yul\":18457:18474   */\n      add\n        /* \"#utility.yul\":18448:18454   */\n      dup6\n        /* \"#utility.yul\":18404:18475   */\n      tag_235\n      jump\t// in\n    tag_457:\n        /* \"#utility.yul\":18485:18557   */\n      tag_458\n        /* \"#utility.yul\":18553:18555   */\n      0x20\n        /* \"#utility.yul\":18542:18551   */\n      dup4\n        /* \"#utility.yul\":18538:18556   */\n      add\n        /* \"#utility.yul\":18529:18535   */\n      dup5\n        /* \"#utility.yul\":18485:18557   */\n      tag_236\n      jump\t// in\n    tag_458:\n        /* \"#utility.yul\":18232:18564   */\n      swap4\n      swap3\n      pop\n      pop\n      pop\n      jump\t// out\n        /* \"#utility.yul\":18570:18803   */\n    tag_135:\n        /* \"#utility.yul\":18609:18612   */\n      0x00\n        /* \"#utility.yul\":18632:18656   */\n      tag_460\n        /* \"#utility.yul\":18650:18655   */\n      dup3\n        /* \"#utility.yul\":18632:18656   */\n      tag_232\n      jump\t// in\n    tag_460:\n        /* \"#utility.yul\":18623:18656   */\n      swap2\n      pop\n        /* \"#utility.yul\":18678:18744   */\n      0xffffffffffffffffffffffffffffffffffffffffffffffffffffffffffffffff\n        /* \"#utility.yul\":18671:18676   */\n      dup3\n        /* \"#utility.yul\":18668:18745   */\n      sub\n        /* \"#utility.yul\":18665:18768   */\n      tag_461\n      jumpi\n        /* \"#utility.yul\":18748:18766   */\n      tag_462\n      tag_256\n      jump\t// in\n    tag_462:\n        /* \"#utility.yul\":18665:18768   */\n    tag_461:\n        /* \"#utility.yul\":18795:18796   */\n      0x01\n        /* \"#utility.yul\":18788:18793   */\n      dup3\n        /* \"#utility.yul\":18784:18797   */\n      add\n        /* \"#utility.yul\":18777:18797   */\n      swap1\n      pop\n        /* \"#utility.yul\":18570:18803   */\n      swap2\n      swap1\n      pop\n      jump\t// out\n        /* \"#utility.yul\":18809:19251   */\n    tag_140:\n        /* \"#utility.yul\":18958:18962   */\n      0x00\n        /* \"#utility.yul\":18996:18998   */\n      0x60\n        /* \"#utility.yul\":18985:18994   */\n      dup3\n        /* \"#utility.yul\":18981:18999   */\n      add\n        /* \"#utility.yul\":18973:18999   */\n      swap1\n      pop\n        /* \"#utility.yul\":19009:19080   */\n      tag_464\n        /* \"#utility.yul\":19077:19078   */\n      0x00\n        /* \"#utility.yul\":19066:19075   */\n      dup4\n        /* \"#utility.yul\":19062:19079   */\n      add\n        /* \"#utility.yul\":19053:19059   */\n      dup7\n        /* \"#utility.yul\":19009:19080   */\n      tag_235\n      jump\t// in\n    tag_464:\n        /* \"#utility.yul\":19090:19162   */\n      tag_465\n        /* \"#utility.yul\":19158:19160   */\n      0x20\n        /* \"#utility.yul\":19147:19156   */\n      dup4\n        /* \"#utility.yul\":19143:19161   */\n      add\n        /* \"#utility.yul\":19134:19140   */\n      dup6\n        /* \"#utility.yul\":19090:19162   */\n      tag_235\n      jump\t// in\n    tag_465:\n        /* \"#utility.yul\":19172:19244   */\n      tag_466\n        /* \"#utility.yul\":19240:19242   */\n      0x40\n        /* \"#utility.yul\":19229:19238   */\n      dup4\n        /* \"#utility.yul\":19225:19243   */\n      add\n        /* \"#utility.yul\":19216:19222   */\n      dup5\n        /* \"#utility.yul\":19172:19244   */\n      tag_236\n      jump\t// in\n    tag_466:\n        /* \"#utility.yul\":18809:19251   */\n      swap5\n      swap4\n      pop\n      pop\n      pop\n      pop\n      jump\t// out\n        /* \"#utility.yul\":19257:19429   */\n    tag_267:\n        /* \"#utility.yul\":19397:19421   */\n      0x4f6e6c792061646d696e2063616e207570677261646500000000000000000000\n        /* \"#utility.yul\":19393:19394   */\n      0x00\n        /* \"#utility.yul\":19385:19391   */\n      dup3\n        /* \"#utility.yul\":19381:19395   */\n      add\n        /* \"#utility.yul\":19374:19422   */\n      mstore\n        /* \"#utility.yul\":19257:19429   */\n      pop\n      jump\t// out\n        /* \"#utility.yul\":19435:19801   */\n    tag_268:\n        /* \"#utility.yul\":19577:19580   */\n      0x00\n        /* \"#utility.yul\":19598:19665   */\n      tag_469\n        /* \"#utility.yul\":19662:19664   */\n      0x16\n        /* \"#utility.yul\":19657:19660   */\n      dup4\n        /* \"#utility.yul\":19598:19665   */\n      tag_242\n      jump\t// in\n    tag_469:\n        /* \"#utility.yul\":19591:19665   */\n      swap2\n      pop\n        /* \"#utility.yul\":19674:19767   */\n      tag_470\n        /* \"#utility.yul\":19763:19766   */\n      dup3\n        /* \"#utility.yul\":19674:19767   */\n      tag_267\n      jump\t// in\n    tag_470:\n        /* \"#utility.yul\":19792:19794   */\n      0x20\n        /* \"#utility.yul\":19787:19790   */\n      dup3\n        /* \"#utility.yul\":19783:19795   */\n      add\n        /* \"#utility.yul\":19776:19795   */\n      swap1\n      pop\n        /* \"#utility.yul\":19435:19801   */\n      swap2\n      swap1\n      pop\n      jump\t// out\n        /* \"#utility.yul\":19807:20226   */\n    tag_154:\n        /* \"#utility.yul\":19973:19977   */\n      0x00\n        /* \"#utility.yul\":20011:20013   */\n      0x20\n        /* \"#utility.yul\":20000:20009   */\n      dup3\n        /* \"#utility.yul\":19996:20014   */\n      add\n        /* \"#utility.yul\":19988:20014   */\n      swap1\n      pop\n        /* \"#utility.yul\":20060:20069   */\n      dup2\n        /* \"#utility.yul\":20054:20058   */\n      dup2\n        /* \"#utility.yul\":20050:20070   */\n      sub\n        /* \"#utility.yul\":20046:20047   */\n      0x00\n        /* \"#utility.yul\":20035:20044   */\n      dup4\n        /* \"#utility.yul\":20031:20048   */\n      add\n        /* \"#utility.yul\":20024:20071   */\n      mstore\n        /* \"#utility.yul\":20088:20219   */\n      tag_472\n        /* \"#utility.yul\":20214:20218   */\n      dup2\n        /* \"#utility.yul\":20088:20219   */\n      tag_268\n      jump\t// in\n    tag_472:\n        /* \"#utility.yul\":20080:20219   */\n      swap1\n      pop\n        /* \"#utility.yul\":19807:20226   */\n      swap2\n      swap1\n      pop\n      jump\t// out\n        /* \"#utility.yul\":20232:20354   */\n    tag_269:\n        /* \"#utility.yul\":20305:20329   */\n      tag_474\n        /* \"#utility.yul\":20323:20328   */\n      dup2\n        /* \"#utility.yul\":20305:20329   */\n      tag_230\n      jump\t// in\n    tag_474:\n        /* \"#utility.yul\":20298:20303   */\n      dup2\n        /* \"#utility.yul\":20295:20330   */\n      eq\n        /* \"#utility.yul\":20285:20348   */\n      tag_475\n      jumpi\n        /* \"#utility.yul\":20344:20345   */\n      0x00\n        /* \"#utility.yul\":20341:20342   */\n      0x00\n        /* \"#utility.yul\":20334:20346   */\n      revert\n        /* \"#utility.yul\":20285:20348   */\n    tag_475:\n        /* \"#utility.yul\":20232:20354   */\n      pop\n      jump\t// out\n        /* \"#utility.yul\":20360:20503   */\n    tag_270:\n        /* \"#utility.yul\":20417:20422   */\n      0x00\n        /* \"#utility.yul\":20448:20454   */\n      dup2\n        /* \"#utility.yul\":20442:20455   */\n      mload\n        /* \"#utility.yul\":20433:20455   */\n      swap1\n      pop\n        /* \"#utility.yul\":20464:20497   */\n      tag_477\n        /* \"#utility.yul\":20491:20496   */\n      dup2\n        /* \"#utility.yul\":20464:20497   */\n      tag_269\n      jump\t// in\n    tag_477:\n        /* \"#utility.yul\":20360:20503   */\n      swap3\n      swap2\n      pop\n      pop\n      jump\t// out\n        /* \"#utility.yul\":20509:20860   */\n    tag_158:\n        /* \"#utility.yul\":20579:20585   */\n      0x00\n        /* \"#utility.yul\":20628:20630   */\n      0x20\n        /* \"#utility.yul\":20616:20625   */\n      dup3\n        /* \"#utility.yul\":20607:20614   */\n      dup5\n        /* \"#utility.yul\":20603:20626   */\n      sub\n        /* \"#utility.yul\":20599:20631   */\n      slt\n        /* \"#utility.yul\":20596:20715   */\n      iszero\n      tag_479\n      jumpi\n        /* \"#utility.yul\":20634:20713   */\n      tag_480\n      tag_214\n      jump\t// in\n    tag_480:\n        /* \"#utility.yul\":20596:20715   */\n    tag_479:\n        /* \"#utility.yul\":20754:20755   */\n      0x00\n        /* \"#utility.yul\":20779:20843   */\n      tag_481\n        /* \"#utility.yul\":20835:20842   */\n      dup5\n        /* \"#utility.yul\":20826:20832   */\n      dup3\n        /* \"#utility.yul\":20815:20824   */\n      dup6\n        /* \"#utility.yul\":20811:20833   */\n      add\n        /* \"#utility.yul\":20779:20843   */\n      tag_270\n      jump\t// in\n    tag_481:\n        /* \"#utility.yul\":20769:20843   */\n      swap2\n      pop\n        /* \"#utility.yul\":20725:20853   */\n      pop\n        /* \"#utility.yul\":20509:20860   */\n      swap3\n      swap2\n      pop\n      pop\n      jump\t// out\n        /* \"#utility.yul\":20866:20964   */\n    tag_271:\n        /* \"#utility.yul\":20917:20923   */\n      0x00\n        /* \"#utility.yul\":20951:20956   */\n      dup2\n        /* \"#utility.yul\":20945:20957   */\n      mload\n        /* \"#utility.yul\":20935:20957   */\n      swap1\n      pop\n        /* \"#utility.yul\":20866:20964   */\n      swap2\n      swap1\n      pop\n      jump\t// out\n        /* \"#utility.yul\":20970:21117   */\n    tag_272:\n        /* \"#utility.yul\":21071:21082   */\n      0x00\n        /* \"#utility.yul\":21108:21111   */\n      dup2\n        /* \"#utility.yul\":21093:21111   */\n      swap1\n      pop\n        /* \"#utility.yul\":20970:21117   */\n      swap3\n      swap2\n      pop\n      pop\n      jump\t// out\n        /* \"#utility.yul\":21123:21509   */\n    tag_273:\n        /* \"#utility.yul\":21227:21230   */\n      0x00\n        /* \"#utility.yul\":21255:21293   */\n      tag_485\n        /* \"#utility.yul\":21287:21292   */\n      dup3\n        /* \"#utility.yul\":21255:21293   */\n      tag_271\n      jump\t// in\n    tag_485:\n        /* \"#utility.yul\":21309:21397   */\n      tag_486\n        /* \"#utility.yul\":21390:21396   */\n      dup2\n        /* \"#utility.yul\":21385:21388   */\n      dup6\n        /* \"#utility.yul\":21309:21397   */\n      tag_272\n      jump\t// in\n    tag_486:\n        /* \"#utility.yul\":21302:21397   */\n      swap4\n      pop\n        /* \"#utility.yul\":21406:21471   */\n      tag_487\n        /* \"#utility.yul\":21464:21470   */\n      dup2\n        /* \"#utility.yul\":21459:21462   */\n      dup6\n        /* \"#utility.yul\":21452:21456   */\n      0x20\n        /* \"#utility.yul\":21445:21450   */\n      dup7\n        /* \"#utility.yul\":21441:21457   */\n      add\n        /* \"#utility.yul\":21406:21471   */\n      tag_243\n      jump\t// in\n    tag_487:\n        /* \"#utility.yul\":21496:21502   */\n      dup1\n        /* \"#utility.yul\":21491:21494   */\n      dup5\n        /* \"#utility.yul\":21487:21503   */\n      add\n        /* \"#utility.yul\":21480:21503   */\n      swap2\n      pop\n        /* \"#utility.yul\":21231:21509   */\n      pop\n        /* \"#utility.yul\":21123:21509   */\n      swap3\n      swap2\n      pop\n      pop\n      jump\t// out\n        /* \"#utility.yul\":21515:21786   */\n    tag_194:\n        /* \"#utility.yul\":21645:21648   */\n      0x00\n        /* \"#utility.yul\":21667:21760   */\n      tag_489\n        /* \"#utility.yul\":21756:21759   */\n      dup3\n        /* \"#utility.yul\":21747:21753   */\n      dup5\n        /* \"#utility.yul\":21667:21760   */\n      tag_273\n      jump\t// in\n    tag_489:\n        /* \"#utility.yul\":21660:21760   */\n      swap2\n      pop\n        /* \"#utility.yul\":21777:21780   */\n      dup2\n        /* \"#utility.yul\":21770:21780   */\n      swap1\n      pop\n        /* \"#utility.yul\":21515:21786   */\n      swap3\n      swap2\n      pop\n      pop\n      jump\t// out\n\n    auxdata: 0xa26469706673582212203f8b5e75a0e05498b3f0690f8b1f78f0ffb03d3fae1be763d5740c0264b5c45c64736f6c634300081e0033\n}\n",
				"bytecode": {
					"linkReferences": {},
					"object": "60a06040523073ffffffffffffffffffffffffffffffffffffffff1660809073ffffffffffffffffffffffffffffffffffffffff168152503480156041575f5ffd5b50608051611fc46100685f395f8181610e1f01528181610e7401526110b50152611fc45ff3fe6080604052600436106100aa575f3560e01c8063ad3cb1cc11610063578063ad3cb1cc146101a8578063ad6561ec146101d2578063b1cb48ef146101ee578063b9a2de3a14610216578063f851a4401461023e578063fc52848214610268576100b1565b80634f1ef286146100b557806352d1902d146100d1578063571a26a0146100fb578063724e78da146101405780638129fc1c146101685780638e15f4731461017e576100b1565b366100b157005b5f5ffd5b6100cf60048036038101906100ca9190611641565b610292565b005b3480156100dc575f5ffd5b506100e56102b1565b6040516100f291906116b3565b60405180910390f35b348015610106575f5ffd5b50610121600480360381019061011c91906116ff565b6102e2565b6040516101379a99989796959493929190611762565b60405180910390f35b34801561014b575f5ffd5b50610166600480360381019061016191906117fc565b6103ba565b005b348015610173575f5ffd5b5061017c6103fd565b005b348015610189575f5ffd5b506101926105b4565b60405161019f919061183f565b60405180910390f35b3480156101b3575f5ffd5b506101bc61065d565b6040516101c991906118b8565b60405180910390f35b6101ec60048036038101906101e791906118d8565b610696565b005b3480156101f9575f5ffd5b50610214600480360381019061020f9190611928565b610897565b005b348015610221575f5ffd5b5061023c600480360381019061023791906116ff565b610c50565b005b348015610249575f5ffd5b50610252610df2565b60405161025f919061198c565b60405180910390f35b348015610273575f5ffd5b5061027c610e17565b60405161028991906119a5565b60405180910390f35b61029a610e1d565b6102a382610f03565b6102ad8282610f95565b5050565b5f6102ba6110b3565b7f360894a13ba1a3210667c828492db98dca3e2076cc3735a920a3ca505d382bbc5f1b905090565b5f602052805f5260405f205f91509050805f015f9054906101000a900473ffffffffffffffffffffffffffffffffffffffff1690806001015490806002015f9054906101000a900473ffffffffffffffffffffffffffffffffffffffff1690806003015490806004015490806005015490806006015f9054906101000a900460ff16908060060160019054906101000a900473ffffffffffffffffffffffffffffffffffffffff1690806007015490806008015f9054906101000a900473ffffffffffffffffffffffffffffffffffffffff1690508a565b8060035f6101000a81548173ffffffffffffffffffffffffffffffffffffffff021916908373ffffffffffffffffffffffffffffffffffffffff16021790555050565b5f61040661113a565b90505f815f0160089054906101000a900460ff161590505f825f015f9054906101000a900467ffffffffffffffff1690505f5f8267ffffffffffffffff1614801561044e5750825b90505f60018367ffffffffffffffff1614801561048157505f3073ffffffffffffffffffffffffffffffffffffffff163b145b90508115801561048f575080155b156104c6576040517ff92ee8a900000000000000000000000000000000000000000000000000000000815260040160405180910390fd5b6001855f015f6101000a81548167ffffffffffffffff021916908367ffffffffffffffff1602179055508315610513576001855f0160086101000a81548160ff0219169083151502179055505b3360025f6101000a81548173ffffffffffffffffffffffffffffffffffffffff021916908373ffffffffffffffffffffffffffffffffffffffff16021790555083156105ad575f855f0160086101000a81548160ff0219169083151502179055507fc7f505b2f371ae2175ee4913f4499e1f2633a7b5936321eed1cdaeb6115181d260016040516105a49190611a13565b60405180910390a15b5050505050565b5f5f5f5f5f5f60035f9054906101000a900473ffffffffffffffffffffffffffffffffffffffff1673ffffffffffffffffffffffffffffffffffffffff1663feaf968c6040518163ffffffff1660e01b815260040160a060405180830381865afa158015610624573d5f5f3e3d5ffd5b505050506040513d601f19601f820116820180604052508101906106489190611aa9565b94509450945094509450839550505050505090565b6040518060400160405280600581526020017f352e302e3000000000000000000000000000000000000000000000000000000081525081565b5f5f5f8581526020019081526020015f2090505f15155f5f8681526020019081526020015f206006015f9054906101000a900460ff1615151480156106ed5750806003015481600501546106ea9190611b4d565b42105b61072c576040517f08c379a000000000000000000000000000000000000000000000000000000000815260040161072390611bca565b60405180910390fd5b8060070154341180156107425750806004015434115b610781576040517f08c379a000000000000000000000000000000000000000000000000000000000815260040161077890611c58565b60405180910390fd5b5f73ffffffffffffffffffffffffffffffffffffffff168160060160019054906101000a900473ffffffffffffffffffffffffffffffffffffffff1673ffffffffffffffffffffffffffffffffffffffff1614610845578060060160019054906101000a900473ffffffffffffffffffffffffffffffffffffffff1673ffffffffffffffffffffffffffffffffffffffff166108fc826007015490811502906040515f60405180830381858888f19350505050158015610843573d5f5f3e3d5ffd5b505b338160060160016101000a81548173ffffffffffffffffffffffffffffffffffffffff021916908373ffffffffffffffffffffffffffffffffffffffff16021790555034816007018190555050505050565b60025f9054906101000a900473ffffffffffffffffffffffffffffffffffffffff1673ffffffffffffffffffffffffffffffffffffffff163373ffffffffffffffffffffffffffffffffffffffff1614610926576040517f08c379a000000000000000000000000000000000000000000000000000000000815260040161091d90611cc0565b60405180910390fd5b600a84101561096a576040517f08c379a000000000000000000000000000000000000000000000000000000000815260040161096190611d28565b60405180910390fd5b5f83116109ac576040517f08c379a00000000000000000000000000000000000000000000000000000000081526004016109a390611db6565b60405180910390fd5b8173ffffffffffffffffffffffffffffffffffffffff1663095ea7b330836040518363ffffffff1660e01b81526004016109e7929190611dd4565b5f604051808303815f87803b1580156109fe575f5ffd5b505af1158015610a10573d5f5f3e3d5ffd5b505050506040518061014001604052808373ffffffffffffffffffffffffffffffffffffffff1681526020018281526020013373ffffffffffffffffffffffffffffffffffffffff1681526020018581526020018481526020014281526020015f151581526020015f73ffffffffffffffffffffffffffffffffffffffff1681526020015f81526020015f73ffffffffffffffffffffffffffffffffffffffff168152505f5f60015481526020019081526020015f205f820151815f015f6101000a81548173ffffffffffffffffffffffffffffffffffffffff021916908373ffffffffffffffffffffffffffffffffffffffff160217905550602082015181600101556040820151816002015f6101000a81548173ffffffffffffffffffffffffffffffffffffffff021916908373ffffffffffffffffffffffffffffffffffffffff160217905550606082015181600301556080820151816004015560a0820151816005015560c0820151816006015f6101000a81548160ff02191690831515021790555060e08201518160060160016101000a81548173ffffffffffffffffffffffffffffffffffffffff021916908373ffffffffffffffffffffffffffffffffffffffff1602179055506101008201518160070155610120820151816008015f6101000a81548173ffffffffffffffffffffffffffffffffffffffff021916908373ffffffffffffffffffffffffffffffffffffffff16021790555090505060015f815480929190610c4590611dfb565b919050555050505050565b5f5f5f8381526020019081526020015f2090505f1515816006015f9054906101000a900460ff16151514610cb9576040517f08c379a0000000000000000000000000000000000000000000000000000000008152600401610cb090611bca565b60405180910390fd5b805f015f9054906101000a900473ffffffffffffffffffffffffffffffffffffffff1673ffffffffffffffffffffffffffffffffffffffff166323b872dd60025f9054906101000a900473ffffffffffffffffffffffffffffffffffffffff168360060160019054906101000a900473ffffffffffffffffffffffffffffffffffffffff1684600101546040518463ffffffff1660e01b8152600401610d6193929190611e42565b5f604051808303815f87803b158015610d78575f5ffd5b505af1158015610d8a573d5f5f3e3d5ffd5b505050503073ffffffffffffffffffffffffffffffffffffffff166108fc4790811502906040515f60405180830381858888f19350505050158015610dd1573d5f5f3e3d5ffd5b506001816006015f6101000a81548160ff0219169083151502179055505050565b60025f9054906101000a900473ffffffffffffffffffffffffffffffffffffffff1681565b60015481565b7f000000000000000000000000000000000000000000000000000000000000000073ffffffffffffffffffffffffffffffffffffffff163073ffffffffffffffffffffffffffffffffffffffff161480610eca57507f000000000000000000000000000000000000000000000000000000000000000073ffffffffffffffffffffffffffffffffffffffff16610eb161114d565b73ffffffffffffffffffffffffffffffffffffffff1614155b15610f01576040517fe07c8dba00000000000000000000000000000000000000000000000000000000815260040160405180910390fd5b565b60025f9054906101000a900473ffffffffffffffffffffffffffffffffffffffff1673ffffffffffffffffffffffffffffffffffffffff163373ffffffffffffffffffffffffffffffffffffffff1614610f92576040517f08c379a0000000000000000000000000000000000000000000000000000000008152600401610f8990611ec1565b60405180910390fd5b50565b8173ffffffffffffffffffffffffffffffffffffffff166352d1902d6040518163ffffffff1660e01b8152600401602060405180830381865afa925050508015610ffd57506040513d601f19601f82011682018060405250810190610ffa9190611f09565b60015b61103e57816040517f4c9c8ce3000000000000000000000000000000000000000000000000000000008152600401611035919061198c565b60405180910390fd5b7f360894a13ba1a3210667c828492db98dca3e2076cc3735a920a3ca505d382bbc5f1b81146110a457806040517faa1d49a400000000000000000000000000000000000000000000000000000000815260040161109b91906116b3565b60405180910390fd5b6110ae83836111a0565b505050565b7f000000000000000000000000000000000000000000000000000000000000000073ffffffffffffffffffffffffffffffffffffffff163073ffffffffffffffffffffffffffffffffffffffff1614611138576040517fe07c8dba00000000000000000000000000000000000000000000000000000000815260040160405180910390fd5b565b5f5f611144611212565b90508091505090565b5f6111797f360894a13ba1a3210667c828492db98dca3e2076cc3735a920a3ca505d382bbc5f1b61123b565b5f015f9054906101000a900473ffffffffffffffffffffffffffffffffffffffff16905090565b6111a982611244565b8173ffffffffffffffffffffffffffffffffffffffff167fbc7cd75a20ee27fd9adebab32041f755214dbc6bffa90cc0225b39da2e5c2d3b60405160405180910390a25f81511115611205576111ff828261130d565b5061120e565b61120d61138d565b5b5050565b5f7ff0c57e16840df040f15088dc2f81fe391c3923bec73e23a9662efc9c229c6a005f1b905090565b5f819050919050565b5f8173ffffffffffffffffffffffffffffffffffffffff163b0361129f57806040517f4c9c8ce3000000000000000000000000000000000000000000000000000000008152600401611296919061198c565b60405180910390fd5b806112cb7f360894a13ba1a3210667c828492db98dca3e2076cc3735a920a3ca505d382bbc5f1b61123b565b5f015f6101000a81548173ffffffffffffffffffffffffffffffffffffffff021916908373ffffffffffffffffffffffffffffffffffffffff16021790555050565b60605f5f8473ffffffffffffffffffffffffffffffffffffffff16846040516113369190611f78565b5f60405180830381855af49150503d805f811461136e576040519150601f19603f3d011682016040523d82523d5f602084013e611373565b606091505b50915091506113838583836113c9565b9250505092915050565b5f3411156113c7576040517fb398979f00000000000000000000000000000000000000000000000000000000815260040160405180910390fd5b565b6060826113de576113d982611456565b61144e565b5f825114801561140457505f8473ffffffffffffffffffffffffffffffffffffffff163b145b1561144657836040517f9996b31500000000000000000000000000000000000000000000000000000000815260040161143d919061198c565b60405180910390fd5b81905061144f565b5b9392505050565b5f815111156114685780518082602001fd5b6040517fd6bda27500000000000000000000000000000000000000000000000000000000815260040160405180910390fd5b5f604051905090565b5f5ffd5b5f5ffd5b5f73ffffffffffffffffffffffffffffffffffffffff82169050919050565b5f6114d4826114ab565b9050919050565b6114e4816114ca565b81146114ee575f5ffd5b50565b5f813590506114ff816114db565b92915050565b5f5ffd5b5f5ffd5b5f601f19601f8301169050919050565b7f4e487b71000000000000000000000000000000000000000000000000000000005f52604160045260245ffd5b6115538261150d565b810181811067ffffffffffffffff821117156115725761157161151d565b5b80604052505050565b5f61158461149a565b9050611590828261154a565b919050565b5f67ffffffffffffffff8211156115af576115ae61151d565b5b6115b88261150d565b9050602081019050919050565b828183375f83830152505050565b5f6115e56115e084611595565b61157b565b90508281526020810184848401111561160157611600611509565b5b61160c8482856115c5565b509392505050565b5f82601f83011261162857611627611505565b5b81356116388482602086016115d3565b91505092915050565b5f5f60408385031215611657576116566114a3565b5b5f611664858286016114f1565b925050602083013567ffffffffffffffff811115611685576116846114a7565b5b61169185828601611614565b9150509250929050565b5f819050919050565b6116ad8161169b565b82525050565b5f6020820190506116c65f8301846116a4565b92915050565b5f819050919050565b6116de816116cc565b81146116e8575f5ffd5b50565b5f813590506116f9816116d5565b92915050565b5f60208284031215611714576117136114a3565b5b5f611721848285016116eb565b91505092915050565b611733816114ca565b82525050565b611742816116cc565b82525050565b5f8115159050919050565b61175c81611748565b82525050565b5f610140820190506117765f83018d61172a565b611783602083018c611739565b611790604083018b61172a565b61179d606083018a611739565b6117aa6080830189611739565b6117b760a0830188611739565b6117c460c0830187611753565b6117d160e083018661172a565b6117df610100830185611739565b6117ed61012083018461172a565b9b9a5050505050505050505050565b5f60208284031215611811576118106114a3565b5b5f61181e848285016114f1565b91505092915050565b5f819050919050565b61183981611827565b82525050565b5f6020820190506118525f830184611830565b92915050565b5f81519050919050565b5f82825260208201905092915050565b8281835e5f83830152505050565b5f61188a82611858565b6118948185611862565b93506118a4818560208601611872565b6118ad8161150d565b840191505092915050565b5f6020820190508181035f8301526118d08184611880565b905092915050565b5f5f5f606084860312156118ef576118ee6114a3565b5b5f6118fc868287016116eb565b935050602061190d868287016116eb565b925050604061191e868287016114f1565b9150509250925092565b5f5f5f5f608085870312156119405761193f6114a3565b5b5f61194d878288016116eb565b945050602061195e878288016116eb565b935050604061196f878288016114f1565b9250506060611980878288016116eb565b91505092959194509250565b5f60208201905061199f5f83018461172a565b92915050565b5f6020820190506119b85f830184611739565b92915050565b5f819050919050565b5f67ffffffffffffffff82169050919050565b5f819050919050565b5f6119fd6119f86119f3846119be565b6119da565b6119c7565b9050919050565b611a0d816119e3565b82525050565b5f602082019050611a265f830184611a04565b92915050565b5f69ffffffffffffffffffff82169050919050565b611a4a81611a2c565b8114611a54575f5ffd5b50565b5f81519050611a6581611a41565b92915050565b611a7481611827565b8114611a7e575f5ffd5b50565b5f81519050611a8f81611a6b565b92915050565b5f81519050611aa3816116d5565b92915050565b5f5f5f5f5f60a08688031215611ac257611ac16114a3565b5b5f611acf88828901611a57565b9550506020611ae088828901611a81565b9450506040611af188828901611a95565b9350506060611b0288828901611a95565b9250506080611b1388828901611a57565b9150509295509295909350565b7f4e487b71000000000000000000000000000000000000000000000000000000005f52601160045260245ffd5b5f611b57826116cc565b9150611b62836116cc565b9250828201905080821115611b7a57611b79611b20565b5b92915050565b7f41756374696f6e2068617320656e6465640000000000000000000000000000005f82015250565b5f611bb4601183611862565b9150611bbf82611b80565b602082019050919050565b5f6020820190508181035f830152611be181611ba8565b9050919050565b7f426964206d75737420626520686967686572207468616e2063757272656e74205f8201527f6869676865737420626964000000000000000000000000000000000000000000602082015250565b5f611c42602b83611862565b9150611c4d82611be8565b604082019050919050565b5f6020820190508181035f830152611c6f81611c36565b9050919050565b7f4f6e6c792061646d696e2063616e206372656174652061756374696f6e0000005f82015250565b5f611caa601d83611862565b9150611cb582611c76565b602082019050919050565b5f6020820190508181035f830152611cd781611c9e565b9050919050565b7f4475726174696f6e206d7573742062652067726561746572207468616e2031305f82015250565b5f611d12602083611862565b9150611d1d82611cde565b602082019050919050565b5f6020820190508181035f830152611d3f81611d06565b9050919050565b7f5374617274207072696365206d7573742062652067726561746572207468616e5f8201527f2030000000000000000000000000000000000000000000000000000000000000602082015250565b5f611da0602283611862565b9150611dab82611d46565b604082019050919050565b5f6020820190508181035f830152611dcd81611d94565b9050919050565b5f604082019050611de75f83018561172a565b611df46020830184611739565b9392505050565b5f611e05826116cc565b91507fffffffffffffffffffffffffffffffffffffffffffffffffffffffffffffffff8203611e3757611e36611b20565b5b600182019050919050565b5f606082019050611e555f83018661172a565b611e62602083018561172a565b611e6f6040830184611739565b949350505050565b7f4f6e6c792061646d696e2063616e2075706772616465000000000000000000005f82015250565b5f611eab601683611862565b9150611eb682611e77565b602082019050919050565b5f6020820190508181035f830152611ed881611e9f565b9050919050565b611ee88161169b565b8114611ef2575f5ffd5b50565b5f81519050611f0381611edf565b92915050565b5f60208284031215611f1e57611f1d6114a3565b5b5f611f2b84828501611ef5565b91505092915050565b5f81519050919050565b5f81905092915050565b5f611f5282611f34565b611f5c8185611f3e565b9350611f6c818560208601611872565b80840191505092915050565b5f611f838284611f48565b91508190509291505056fea26469706673582212203f8b5e75a0e05498b3f0690f8b1f78f0ffb03d3fae1be763d5740c0264b5c45c64736f6c634300081e0033",
					"opcodes": "PUSH1 0xA0 PUSH1 0x40 MSTORE ADDRESS PUSH20 0xFFFFFFFFFFFFFFFFFFFFFFFFFFFFFFFFFFFFFFFF AND PUSH1 0x80 SWAP1 PUSH20 0xFFFFFFFFFFFFFFFFFFFFFFFFFFFFFFFFFFFFFFFF AND DUP2 MSTORE POP CALLVALUE DUP1 ISZERO PUSH1 0x41 JUMPI PUSH0 PUSH0 REVERT JUMPDEST POP PUSH1 0x80 MLOAD PUSH2 0x1FC4 PUSH2 0x68 PUSH0 CODECOPY PUSH0 DUP2 DUP2 PUSH2 0xE1F ADD MSTORE DUP2 DUP2 PUSH2 0xE74 ADD MSTORE PUSH2 0x10B5 ADD MSTORE PUSH2 0x1FC4 PUSH0 RETURN INVALID PUSH1 0x80 PUSH1 0x40 MSTORE PUSH1 0x4 CALLDATASIZE LT PUSH2 0xAA JUMPI PUSH0 CALLDATALOAD PUSH1 0xE0 SHR DUP1 PUSH4 0xAD3CB1CC GT PUSH2 0x63 JUMPI DUP1 PUSH4 0xAD3CB1CC EQ PUSH2 0x1A8 JUMPI DUP1 PUSH4 0xAD6561EC EQ PUSH2 0x1D2 JUMPI DUP1 PUSH4 0xB1CB48EF EQ PUSH2 0x1EE JUMPI DUP1 PUSH4 0xB9A2DE3A EQ PUSH2 0x216 JUMPI DUP1 PUSH4 0xF851A440 EQ PUSH2 0x23E JUMPI DUP1 PUSH4 0xFC528482 EQ PUSH2 0x268 JUMPI PUSH2 0xB1 JUMP JUMPDEST DUP1 PUSH4 0x4F1EF286 EQ PUSH2 0xB5 JUMPI DUP1 PUSH4 0x52D1902D EQ PUSH2 0xD1 JUMPI DUP1 PUSH4 0x571A26A0 EQ PUSH2 0xFB JUMPI DUP1 PUSH4 0x724E78DA EQ PUSH2 0x140 JUMPI DUP1 PUSH4 0x8129FC1C EQ PUSH2 0x168 JUMPI DUP1 PUSH4 0x8E15F473 EQ PUSH2 0x17E JUMPI PUSH2 0xB1 JUMP JUMPDEST CALLDATASIZE PUSH2 0xB1 JUMPI STOP JUMPDEST PUSH0 PUSH0 REVERT JUMPDEST PUSH2 0xCF PUSH1 0x4 DUP1 CALLDATASIZE SUB DUP2 ADD SWAP1 PUSH2 0xCA SWAP2 SWAP1 PUSH2 0x1641 JUMP JUMPDEST PUSH2 0x292 JUMP JUMPDEST STOP JUMPDEST CALLVALUE DUP1 ISZERO PUSH2 0xDC JUMPI PUSH0 PUSH0 REVERT JUMPDEST POP PUSH2 0xE5 PUSH2 0x2B1 JUMP JUMPDEST PUSH1 0x40 MLOAD PUSH2 0xF2 SWAP2 SWAP1 PUSH2 0x16B3 JUMP JUMPDEST PUSH1 0x40 MLOAD DUP1 SWAP2 SUB SWAP1 RETURN JUMPDEST CALLVALUE DUP1 ISZERO PUSH2 0x106 JUMPI PUSH0 PUSH0 REVERT JUMPDEST POP PUSH2 0x121 PUSH1 0x4 DUP1 CALLDATASIZE SUB DUP2 ADD SWAP1 PUSH2 0x11C SWAP2 SWAP1 PUSH2 0x16FF JUMP JUMPDEST PUSH2 0x2E2 JUMP JUMPDEST PUSH1 0x40 MLOAD PUSH2 0x137 SWAP11 SWAP10 SWAP9 SWAP8 SWAP7 SWAP6 SWAP5 SWAP4 SWAP3 SWAP2 SWAP1 PUSH2 0x1762 JUMP JUMPDEST PUSH1 0x40 MLOAD DUP1 SWAP2 SUB SWAP1 RETURN JUMPDEST CALLVALUE DUP1 ISZERO PUSH2 0x14B JUMPI PUSH0 PUSH0 REVERT JUMPDEST POP PUSH2 0x166 PUSH1 0x4 DUP1 CALLDATASIZE SUB DUP2 ADD SWAP1 PUSH2 0x161 SWAP2 SWAP1 PUSH2 0x17FC JUMP JUMPDEST PUSH2 0x3BA JUMP JUMPDEST STOP JUMPDEST CALLVALUE DUP1 ISZERO PUSH2 0x173 JUMPI PUSH0 PUSH0 REVERT JUMPDEST POP PUSH2 0x17C PUSH2 0x3FD JUMP JUMPDEST STOP JUMPDEST CALLVALUE DUP1 ISZERO PUSH2 0x189 JUMPI PUSH0 PUSH0 REVERT JUMPDEST POP PUSH2 0x192 PUSH2 0x5B4 JUMP JUMPDEST PUSH1 0x40 MLOAD PUSH2 0x19F SWAP2 SWAP1 PUSH2 0x183F JUMP JUMPDEST PUSH1 0x40 MLOAD DUP1 SWAP2 SUB SWAP1 RETURN JUMPDEST CALLVALUE DUP1 ISZERO PUSH2 0x1B3 JUMPI PUSH0 PUSH0 REVERT JUMPDEST POP PUSH2 0x1BC PUSH2 0x65D JUMP JUMPDEST PUSH1 0x40 MLOAD PUSH2 0x1C9 SWAP2 SWAP1 PUSH2 0x18B8 JUMP JUMPDEST PUSH1 0x40 MLOAD DUP1 SWAP2 SUB SWAP1 RETURN JUMPDEST PUSH2 0x1EC PUSH1 0x4 DUP1 CALLDATASIZE SUB DUP2 ADD SWAP1 PUSH2 0x1E7 SWAP2 SWAP1 PUSH2 0x18D8 JUMP JUMPDEST PUSH2 0x696 JUMP JUMPDEST STOP JUMPDEST CALLVALUE DUP1 ISZERO PUSH2 0x1F9 JUMPI PUSH0 PUSH0 REVERT JUMPDEST POP PUSH2 0x214 PUSH1 0x4 DUP1 CALLDATASIZE SUB DUP2 ADD SWAP1 PUSH2 0x20F SWAP2 SWAP1 PUSH2 0x1928 JUMP JUMPDEST PUSH2 0x897 JUMP JUMPDEST STOP JUMPDEST CALLVALUE DUP1 ISZERO PUSH2 0x221 JUMPI PUSH0 PUSH0 REVERT JUMPDEST POP PUSH2 0x23C PUSH1 0x4 DUP1 CALLDATASIZE SUB DUP2 ADD SWAP1 PUSH2 0x237 SWAP2 SWAP1 PUSH2 0x16FF JUMP JUMPDEST PUSH2 0xC50 JUMP JUMPDEST STOP JUMPDEST CALLVALUE DUP1 ISZERO PUSH2 0x249 JUMPI PUSH0 PUSH0 REVERT JUMPDEST POP PUSH2 0x252 PUSH2 0xDF2 JUMP JUMPDEST PUSH1 0x40 MLOAD PUSH2 0x25F SWAP2 SWAP1 PUSH2 0x198C JUMP JUMPDEST PUSH1 0x40 MLOAD DUP1 SWAP2 SUB SWAP1 RETURN JUMPDEST CALLVALUE DUP1 ISZERO PUSH2 0x273 JUMPI PUSH0 PUSH0 REVERT JUMPDEST POP PUSH2 0x27C PUSH2 0xE17 JUMP JUMPDEST PUSH1 0x40 MLOAD PUSH2 0x289 SWAP2 SWAP1 PUSH2 0x19A5 JUMP JUMPDEST PUSH1 0x40 MLOAD DUP1 SWAP2 SUB SWAP1 RETURN JUMPDEST PUSH2 0x29A PUSH2 0xE1D JUMP JUMPDEST PUSH2 0x2A3 DUP3 PUSH2 0xF03 JUMP JUMPDEST PUSH2 0x2AD DUP3 DUP3 PUSH2 0xF95 JUMP JUMPDEST POP POP JUMP JUMPDEST PUSH0 PUSH2 0x2BA PUSH2 0x10B3 JUMP JUMPDEST PUSH32 0x360894A13BA1A3210667C828492DB98DCA3E2076CC3735A920A3CA505D382BBC PUSH0 SHL SWAP1 POP SWAP1 JUMP JUMPDEST PUSH0 PUSH1 0x20 MSTORE DUP1 PUSH0 MSTORE PUSH1 0x40 PUSH0 KECCAK256 PUSH0 SWAP2 POP SWAP1 POP DUP1 PUSH0 ADD PUSH0 SWAP1 SLOAD SWAP1 PUSH2 0x100 EXP SWAP1 DIV PUSH20 0xFFFFFFFFFFFFFFFFFFFFFFFFFFFFFFFFFFFFFFFF AND SWAP1 DUP1 PUSH1 0x1 ADD SLOAD SWAP1 DUP1 PUSH1 0x2 ADD PUSH0 SWAP1 SLOAD SWAP1 PUSH2 0x100 EXP SWAP1 DIV PUSH20 0xFFFFFFFFFFFFFFFFFFFFFFFFFFFFFFFFFFFFFFFF AND SWAP1 DUP1 PUSH1 0x3 ADD SLOAD SWAP1 DUP1 PUSH1 0x4 ADD SLOAD SWAP1 DUP1 PUSH1 0x5 ADD SLOAD SWAP1 DUP1 PUSH1 0x6 ADD PUSH0 SWAP1 SLOAD SWAP1 PUSH2 0x100 EXP SWAP1 DIV PUSH1 0xFF AND SWAP1 DUP1 PUSH1 0x6 ADD PUSH1 0x1 SWAP1 SLOAD SWAP1 PUSH2 0x100 EXP SWAP1 DIV PUSH20 0xFFFFFFFFFFFFFFFFFFFFFFFFFFFFFFFFFFFFFFFF AND SWAP1 DUP1 PUSH1 0x7 ADD SLOAD SWAP1 DUP1 PUSH1 0x8 ADD PUSH0 SWAP1 SLOAD SWAP1 PUSH2 0x100 EXP SWAP1 DIV PUSH20 0xFFFFFFFFFFFFFFFFFFFFFFFFFFFFFFFFFFFFFFFF AND SWAP1 POP DUP11 JUMP JUMPDEST DUP1 PUSH1 0x3 PUSH0 PUSH2 0x100 EXP DUP2 SLOAD DUP2 PUSH20 0xFFFFFFFFFFFFFFFFFFFFFFFFFFFFFFFFFFFFFFFF MUL NOT AND SWAP1 DUP4 PUSH20 0xFFFFFFFFFFFFFFFFFFFFFFFFFFFFFFFFFFFFFFFF AND MUL OR SWAP1 SSTORE POP POP JUMP JUMPDEST PUSH0 PUSH2 0x406 PUSH2 0x113A JUMP JUMPDEST SWAP1 POP PUSH0 DUP2 PUSH0 ADD PUSH1 0x8 SWAP1 SLOAD SWAP1 PUSH2 0x100 EXP SWAP1 DIV PUSH1 0xFF AND ISZERO SWAP1 POP PUSH0 DUP3 PUSH0 ADD PUSH0 SWAP1 SLOAD SWAP1 PUSH2 0x100 EXP SWAP1 DIV PUSH8 0xFFFFFFFFFFFFFFFF AND SWAP1 POP PUSH0 PUSH0 DUP3 PUSH8 0xFFFFFFFFFFFFFFFF AND EQ DUP1 ISZERO PUSH2 0x44E JUMPI POP DUP3 JUMPDEST SWAP1 POP PUSH0 PUSH1 0x1 DUP4 PUSH8 0xFFFFFFFFFFFFFFFF AND EQ DUP1 ISZERO PUSH2 0x481 JUMPI POP PUSH0 ADDRESS PUSH20 0xFFFFFFFFFFFFFFFFFFFFFFFFFFFFFFFFFFFFFFFF AND EXTCODESIZE EQ JUMPDEST SWAP1 POP DUP2 ISZERO DUP1 ISZERO PUSH2 0x48F JUMPI POP DUP1 ISZERO JUMPDEST ISZERO PUSH2 0x4C6 JUMPI PUSH1 0x40 MLOAD PUSH32 0xF92EE8A900000000000000000000000000000000000000000000000000000000 DUP2 MSTORE PUSH1 0x4 ADD PUSH1 0x40 MLOAD DUP1 SWAP2 SUB SWAP1 REVERT JUMPDEST PUSH1 0x1 DUP6 PUSH0 ADD PUSH0 PUSH2 0x100 EXP DUP2 SLOAD DUP2 PUSH8 0xFFFFFFFFFFFFFFFF MUL NOT AND SWAP1 DUP4 PUSH8 0xFFFFFFFFFFFFFFFF AND MUL OR SWAP1 SSTORE POP DUP4 ISZERO PUSH2 0x513 JUMPI PUSH1 0x1 DUP6 PUSH0 ADD PUSH1 0x8 PUSH2 0x100 EXP DUP2 SLOAD DUP2 PUSH1 0xFF MUL NOT AND SWAP1 DUP4 ISZERO ISZERO MUL OR SWAP1 SSTORE POP JUMPDEST CALLER PUSH1 0x2 PUSH0 PUSH2 0x100 EXP DUP2 SLOAD DUP2 PUSH20 0xFFFFFFFFFFFFFFFFFFFFFFFFFFFFFFFFFFFFFFFF MUL NOT AND SWAP1 DUP4 PUSH20 0xFFFFFFFFFFFFFFFFFFFFFFFFFFFFFFFFFFFFFFFF AND MUL OR SWAP1 SSTORE POP DUP4 ISZERO PUSH2 0x5AD JUMPI PUSH0 DUP6 PUSH0 ADD PUSH1 0x8 PUSH2 0x100 EXP DUP2 SLOAD DUP2 PUSH1 0xFF MUL NOT AND SWAP1 DUP4 ISZERO ISZERO MUL OR SWAP1 SSTORE POP PUSH32 0xC7F505B2F371AE2175EE4913F4499E1F2633A7B5936321EED1CDAEB6115181D2 PUSH1 0x1 PUSH1 0x40 MLOAD PUSH2 0x5A4 SWAP2 SWAP1 PUSH2 0x1A13 JUMP JUMPDEST PUSH1 0x40 MLOAD DUP1 SWAP2 SUB SWAP1 LOG1 JUMPDEST POP POP POP POP POP JUMP JUMPDEST PUSH0 PUSH0 PUSH0 PUSH0 PUSH0 PUSH0 PUSH1 0x3 PUSH0 SWAP1 SLOAD SWAP1 PUSH2 0x100 EXP SWAP1 DIV PUSH20 0xFFFFFFFFFFFFFFFFFFFFFFFFFFFFFFFFFFFFFFFF AND PUSH20 0xFFFFFFFFFFFFFFFFFFFFFFFFFFFFFFFFFFFFFFFF AND PUSH4 0xFEAF968C PUSH1 0x40 MLOAD DUP2 PUSH4 0xFFFFFFFF AND PUSH1 0xE0 SHL DUP2 MSTORE PUSH1 0x4 ADD PUSH1 0xA0 PUSH1 0x40 MLOAD DUP1 DUP4 SUB DUP2 DUP7 GAS STATICCALL ISZERO DUP1 ISZERO PUSH2 0x624 JUMPI RETURNDATASIZE PUSH0 PUSH0 RETURNDATACOPY RETURNDATASIZE PUSH0 REVERT JUMPDEST POP POP POP POP PUSH1 0x40 MLOAD RETURNDATASIZE PUSH1 0x1F NOT PUSH1 0x1F DUP3 ADD AND DUP3 ADD DUP1 PUSH1 0x40 MSTORE POP DUP2 ADD SWAP1 PUSH2 0x648 SWAP2 SWAP1 PUSH2 0x1AA9 JUMP JUMPDEST SWAP5 POP SWAP5 POP SWAP5 POP SWAP5 POP SWAP5 POP DUP4 SWAP6 POP POP POP POP POP POP SWAP1 JUMP JUMPDEST PUSH1 0x40 MLOAD DUP1 PUSH1 0x40 ADD PUSH1 0x40 MSTORE DUP1 PUSH1 0x5 DUP2 MSTORE PUSH1 0x20 ADD PUSH32 0x352E302E30000000000000000000000000000000000000000000000000000000 DUP2 MSTORE POP DUP2 JUMP JUMPDEST PUSH0 PUSH0 PUSH0 DUP6 DUP2 MSTORE PUSH1 0x20 ADD SWAP1 DUP2 MSTORE PUSH1 0x20 ADD PUSH0 KECCAK256 SWAP1 POP PUSH0 ISZERO ISZERO PUSH0 PUSH0 DUP7 DUP2 MSTORE PUSH1 0x20 ADD SWAP1 DUP2 MSTORE PUSH1 0x20 ADD PUSH0 KECCAK256 PUSH1 0x6 ADD PUSH0 SWAP1 SLOAD SWAP1 PUSH2 0x100 EXP SWAP1 DIV PUSH1 0xFF AND ISZERO ISZERO EQ DUP1 ISZERO PUSH2 0x6ED JUMPI POP DUP1 PUSH1 0x3 ADD SLOAD DUP2 PUSH1 0x5 ADD SLOAD PUSH2 0x6EA SWAP2 SWAP1 PUSH2 0x1B4D JUMP JUMPDEST TIMESTAMP LT JUMPDEST PUSH2 0x72C JUMPI PUSH1 0x40 MLOAD PUSH32 0x8C379A000000000000000000000000000000000000000000000000000000000 DUP2 MSTORE PUSH1 0x4 ADD PUSH2 0x723 SWAP1 PUSH2 0x1BCA JUMP JUMPDEST PUSH1 0x40 MLOAD DUP1 SWAP2 SUB SWAP1 REVERT JUMPDEST DUP1 PUSH1 0x7 ADD SLOAD CALLVALUE GT DUP1 ISZERO PUSH2 0x742 JUMPI POP DUP1 PUSH1 0x4 ADD SLOAD CALLVALUE GT JUMPDEST PUSH2 0x781 JUMPI PUSH1 0x40 MLOAD PUSH32 0x8C379A000000000000000000000000000000000000000000000000000000000 DUP2 MSTORE PUSH1 0x4 ADD PUSH2 0x778 SWAP1 PUSH2 0x1C58 JUMP JUMPDEST PUSH1 0x40 MLOAD DUP1 SWAP2 SUB SWAP1 REVERT JUMPDEST PUSH0 PUSH20 0xFFFFFFFFFFFFFFFFFFFFFFFFFFFFFFFFFFFFFFFF AND DUP2 PUSH1 0x6 ADD PUSH1 0x1 SWAP1 SLOAD SWAP1 PUSH2 0x100 EXP SWAP1 DIV PUSH20 0xFFFFFFFFFFFFFFFFFFFFFFFFFFFFFFFFFFFFFFFF AND PUSH20 0xFFFFFFFFFFFFFFFFFFFFFFFFFFFFFFFFFFFFFFFF AND EQ PUSH2 0x845 JUMPI DUP1 PUSH1 0x6 ADD PUSH1 0x1 SWAP1 SLOAD SWAP1 PUSH2 0x100 EXP SWAP1 DIV PUSH20 0xFFFFFFFFFFFFFFFFFFFFFFFFFFFFFFFFFFFFFFFF AND PUSH20 0xFFFFFFFFFFFFFFFFFFFFFFFFFFFFFFFFFFFFFFFF AND PUSH2 0x8FC DUP3 PUSH1 0x7 ADD SLOAD SWAP1 DUP2 ISZERO MUL SWAP1 PUSH1 0x40 MLOAD PUSH0 PUSH1 0x40 MLOAD DUP1 DUP4 SUB DUP2 DUP6 DUP9 DUP9 CALL SWAP4 POP POP POP POP ISZERO DUP1 ISZERO PUSH2 0x843 JUMPI RETURNDATASIZE PUSH0 PUSH0 RETURNDATACOPY RETURNDATASIZE PUSH0 REVERT JUMPDEST POP JUMPDEST CALLER DUP2 PUSH1 0x6 ADD PUSH1 0x1 PUSH2 0x100 EXP DUP2 SLOAD DUP2 PUSH20 0xFFFFFFFFFFFFFFFFFFFFFFFFFFFFFFFFFFFFFFFF MUL NOT AND SWAP1 DUP4 PUSH20 0xFFFFFFFFFFFFFFFFFFFFFFFFFFFFFFFFFFFFFFFF AND MUL OR SWAP1 SSTORE POP CALLVALUE DUP2 PUSH1 0x7 ADD DUP2 SWAP1 SSTORE POP POP POP POP POP JUMP JUMPDEST PUSH1 0x2 PUSH0 SWAP1 SLOAD SWAP1 PUSH2 0x100 EXP SWAP1 DIV PUSH20 0xFFFFFFFFFFFFFFFFFFFFFFFFFFFFFFFFFFFFFFFF AND PUSH20 0xFFFFFFFFFFFFFFFFFFFFFFFFFFFFFFFFFFFFFFFF AND CALLER PUSH20 0xFFFFFFFFFFFFFFFFFFFFFFFFFFFFFFFFFFFFFFFF AND EQ PUSH2 0x926 JUMPI PUSH1 0x40 MLOAD PUSH32 0x8C379A000000000000000000000000000000000000000000000000000000000 DUP2 MSTORE PUSH1 0x4 ADD PUSH2 0x91D SWAP1 PUSH2 0x1CC0 JUMP JUMPDEST PUSH1 0x40 MLOAD DUP1 SWAP2 SUB SWAP1 REVERT JUMPDEST PUSH1 0xA DUP5 LT ISZERO PUSH2 0x96A JUMPI PUSH1 0x40 MLOAD PUSH32 0x8C379A000000000000000000000000000000000000000000000000000000000 DUP2 MSTORE PUSH1 0x4 ADD PUSH2 0x961 SWAP1 PUSH2 0x1D28 JUMP JUMPDEST PUSH1 0x40 MLOAD DUP1 SWAP2 SUB SWAP1 REVERT JUMPDEST PUSH0 DUP4 GT PUSH2 0x9AC JUMPI PUSH1 0x40 MLOAD PUSH32 0x8C379A000000000000000000000000000000000000000000000000000000000 DUP2 MSTORE PUSH1 0x4 ADD PUSH2 0x9A3 SWAP1 PUSH2 0x1DB6 JUMP JUMPDEST PUSH1 0x40 MLOAD DUP1 SWAP2 SUB SWAP1 REVERT JUMPDEST DUP2 PUSH20 0xFFFFFFFFFFFFFFFFFFFFFFFFFFFFFFFFFFFFFFFF AND PUSH4 0x95EA7B3 ADDRESS DUP4 PUSH1 0x40 MLOAD DUP4 PUSH4 0xFFFFFFFF AND PUSH1 0xE0 SHL DUP2 MSTORE PUSH1 0x4 ADD PUSH2 0x9E7 SWAP3 SWAP2 SWAP1 PUSH2 0x1DD4 JUMP JUMPDEST PUSH0 PUSH1 0x40 MLOAD DUP1 DUP4 SUB DUP2 PUSH0 DUP8 DUP1 EXTCODESIZE ISZERO DUP1 ISZERO PUSH2 0x9FE JUMPI PUSH0 PUSH0 REVERT JUMPDEST POP GAS CALL ISZERO DUP1 ISZERO PUSH2 0xA10 JUMPI RETURNDATASIZE PUSH0 PUSH0 RETURNDATACOPY RETURNDATASIZE PUSH0 REVERT JUMPDEST POP POP POP POP PUSH1 0x40 MLOAD DUP1 PUSH2 0x140 ADD PUSH1 0x40 MSTORE DUP1 DUP4 PUSH20 0xFFFFFFFFFFFFFFFFFFFFFFFFFFFFFFFFFFFFFFFF AND DUP2 MSTORE PUSH1 0x20 ADD DUP3 DUP2 MSTORE PUSH1 0x20 ADD CALLER PUSH20 0xFFFFFFFFFFFFFFFFFFFFFFFFFFFFFFFFFFFFFFFF AND DUP2 MSTORE PUSH1 0x20 ADD DUP6 DUP2 MSTORE PUSH1 0x20 ADD DUP5 DUP2 MSTORE PUSH1 0x20 ADD TIMESTAMP DUP2 MSTORE PUSH1 0x20 ADD PUSH0 ISZERO ISZERO DUP2 MSTORE PUSH1 0x20 ADD PUSH0 PUSH20 0xFFFFFFFFFFFFFFFFFFFFFFFFFFFFFFFFFFFFFFFF AND DUP2 MSTORE PUSH1 0x20 ADD PUSH0 DUP2 MSTORE PUSH1 0x20 ADD PUSH0 PUSH20 0xFFFFFFFFFFFFFFFFFFFFFFFFFFFFFFFFFFFFFFFF AND DUP2 MSTORE POP PUSH0 PUSH0 PUSH1 0x1 SLOAD DUP2 MSTORE PUSH1 0x20 ADD SWAP1 DUP2 MSTORE PUSH1 0x20 ADD PUSH0 KECCAK256 PUSH0 DUP3 ADD MLOAD DUP2 PUSH0 ADD PUSH0 PUSH2 0x100 EXP DUP2 SLOAD DUP2 PUSH20 0xFFFFFFFFFFFFFFFFFFFFFFFFFFFFFFFFFFFFFFFF MUL NOT AND SWAP1 DUP4 PUSH20 0xFFFFFFFFFFFFFFFFFFFFFFFFFFFFFFFFFFFFFFFF AND MUL OR SWAP1 SSTORE POP PUSH1 0x20 DUP3 ADD MLOAD DUP2 PUSH1 0x1 ADD SSTORE PUSH1 0x40 DUP3 ADD MLOAD DUP2 PUSH1 0x2 ADD PUSH0 PUSH2 0x100 EXP DUP2 SLOAD DUP2 PUSH20 0xFFFFFFFFFFFFFFFFFFFFFFFFFFFFFFFFFFFFFFFF MUL NOT AND SWAP1 DUP4 PUSH20 0xFFFFFFFFFFFFFFFFFFFFFFFFFFFFFFFFFFFFFFFF AND MUL OR SWAP1 SSTORE POP PUSH1 0x60 DUP3 ADD MLOAD DUP2 PUSH1 0x3 ADD SSTORE PUSH1 0x80 DUP3 ADD MLOAD DUP2 PUSH1 0x4 ADD SSTORE PUSH1 0xA0 DUP3 ADD MLOAD DUP2 PUSH1 0x5 ADD SSTORE PUSH1 0xC0 DUP3 ADD MLOAD DUP2 PUSH1 0x6 ADD PUSH0 PUSH2 0x100 EXP DUP2 SLOAD DUP2 PUSH1 0xFF MUL NOT AND SWAP1 DUP4 ISZERO ISZERO MUL OR SWAP1 SSTORE POP PUSH1 0xE0 DUP3 ADD MLOAD DUP2 PUSH1 0x6 ADD PUSH1 0x1 PUSH2 0x100 EXP DUP2 SLOAD DUP2 PUSH20 0xFFFFFFFFFFFFFFFFFFFFFFFFFFFFFFFFFFFFFFFF MUL NOT AND SWAP1 DUP4 PUSH20 0xFFFFFFFFFFFFFFFFFFFFFFFFFFFFFFFFFFFFFFFF AND MUL OR SWAP1 SSTORE POP PUSH2 0x100 DUP3 ADD MLOAD DUP2 PUSH1 0x7 ADD SSTORE PUSH2 0x120 DUP3 ADD MLOAD DUP2 PUSH1 0x8 ADD PUSH0 PUSH2 0x100 EXP DUP2 SLOAD DUP2 PUSH20 0xFFFFFFFFFFFFFFFFFFFFFFFFFFFFFFFFFFFFFFFF MUL NOT AND SWAP1 DUP4 PUSH20 0xFFFFFFFFFFFFFFFFFFFFFFFFFFFFFFFFFFFFFFFF AND MUL OR SWAP1 SSTORE POP SWAP1 POP POP PUSH1 0x1 PUSH0 DUP2 SLOAD DUP1 SWAP3 SWAP2 SWAP1 PUSH2 0xC45 SWAP1 PUSH2 0x1DFB JUMP JUMPDEST SWAP2 SWAP1 POP SSTORE POP POP POP POP POP JUMP JUMPDEST PUSH0 PUSH0 PUSH0 DUP4 DUP2 MSTORE PUSH1 0x20 ADD SWAP1 DUP2 MSTORE PUSH1 0x20 ADD PUSH0 KECCAK256 SWAP1 POP PUSH0 ISZERO ISZERO DUP2 PUSH1 0x6 ADD PUSH0 SWAP1 SLOAD SWAP1 PUSH2 0x100 EXP SWAP1 DIV PUSH1 0xFF AND ISZERO ISZERO EQ PUSH2 0xCB9 JUMPI PUSH1 0x40 MLOAD PUSH32 0x8C379A000000000000000000000000000000000000000000000000000000000 DUP2 MSTORE PUSH1 0x4 ADD PUSH2 0xCB0 SWAP1 PUSH2 0x1BCA JUMP JUMPDEST PUSH1 0x40 MLOAD DUP1 SWAP2 SUB SWAP1 REVERT JUMPDEST DUP1 PUSH0 ADD PUSH0 SWAP1 SLOAD SWAP1 PUSH2 0x100 EXP SWAP1 DIV PUSH20 0xFFFFFFFFFFFFFFFFFFFFFFFFFFFFFFFFFFFFFFFF AND PUSH20 0xFFFFFFFFFFFFFFFFFFFFFFFFFFFFFFFFFFFFFFFF AND PUSH4 0x23B872DD PUSH1 0x2 PUSH0 SWAP1 SLOAD SWAP1 PUSH2 0x100 EXP SWAP1 DIV PUSH20 0xFFFFFFFFFFFFFFFFFFFFFFFFFFFFFFFFFFFFFFFF AND DUP4 PUSH1 0x6 ADD PUSH1 0x1 SWAP1 SLOAD SWAP1 PUSH2 0x100 EXP SWAP1 DIV PUSH20 0xFFFFFFFFFFFFFFFFFFFFFFFFFFFFFFFFFFFFFFFF AND DUP5 PUSH1 0x1 ADD SLOAD PUSH1 0x40 MLOAD DUP5 PUSH4 0xFFFFFFFF AND PUSH1 0xE0 SHL DUP2 MSTORE PUSH1 0x4 ADD PUSH2 0xD61 SWAP4 SWAP3 SWAP2 SWAP1 PUSH2 0x1E42 JUMP JUMPDEST PUSH0 PUSH1 0x40 MLOAD DUP1 DUP4 SUB DUP2 PUSH0 DUP8 DUP1 EXTCODESIZE ISZERO DUP1 ISZERO PUSH2 0xD78 JUMPI PUSH0 PUSH0 REVERT JUMPDEST POP GAS CALL ISZERO DUP1 ISZERO PUSH2 0xD8A JUMPI RETURNDATASIZE PUSH0 PUSH0 RETURNDATACOPY RETURNDATASIZE PUSH0 REVERT JUMPDEST POP POP POP POP ADDRESS PUSH20 0xFFFFFFFFFFFFFFFFFFFFFFFFFFFFFFFFFFFFFFFF AND PUSH2 0x8FC SELFBALANCE SWAP1 DUP2 ISZERO MUL SWAP1 PUSH1 0x40 MLOAD PUSH0 PUSH1 0x40 MLOAD DUP1 DUP4 SUB DUP2 DUP6 DUP9 DUP9 CALL SWAP4 POP POP POP POP ISZERO DUP1 ISZERO PUSH2 0xDD1 JUMPI RETURNDATASIZE PUSH0 PUSH0 RETURNDATACOPY RETURNDATASIZE PUSH0 REVERT JUMPDEST POP PUSH1 0x1 DUP2 PUSH1 0x6 ADD PUSH0 PUSH2 0x100 EXP DUP2 SLOAD DUP2 PUSH1 0xFF MUL NOT AND SWAP1 DUP4 ISZERO ISZERO MUL OR SWAP1 SSTORE POP POP POP JUMP JUMPDEST PUSH1 0x2 PUSH0 SWAP1 SLOAD SWAP1 PUSH2 0x100 EXP SWAP1 DIV PUSH20 0xFFFFFFFFFFFFFFFFFFFFFFFFFFFFFFFFFFFFFFFF AND DUP2 JUMP JUMPDEST PUSH1 0x1 SLOAD DUP2 JUMP JUMPDEST PUSH32 0x0 PUSH20 0xFFFFFFFFFFFFFFFFFFFFFFFFFFFFFFFFFFFFFFFF AND ADDRESS PUSH20 0xFFFFFFFFFFFFFFFFFFFFFFFFFFFFFFFFFFFFFFFF AND EQ DUP1 PUSH2 0xECA JUMPI POP PUSH32 0x0 PUSH20 0xFFFFFFFFFFFFFFFFFFFFFFFFFFFFFFFFFFFFFFFF AND PUSH2 0xEB1 PUSH2 0x114D JUMP JUMPDEST PUSH20 0xFFFFFFFFFFFFFFFFFFFFFFFFFFFFFFFFFFFFFFFF AND EQ ISZERO JUMPDEST ISZERO PUSH2 0xF01 JUMPI PUSH1 0x40 MLOAD PUSH32 0xE07C8DBA00000000000000000000000000000000000000000000000000000000 DUP2 MSTORE PUSH1 0x4 ADD PUSH1 0x40 MLOAD DUP1 SWAP2 SUB SWAP1 REVERT JUMPDEST JUMP JUMPDEST PUSH1 0x2 PUSH0 SWAP1 SLOAD SWAP1 PUSH2 0x100 EXP SWAP1 DIV PUSH20 0xFFFFFFFFFFFFFFFFFFFFFFFFFFFFFFFFFFFFFFFF AND PUSH20 0xFFFFFFFFFFFFFFFFFFFFFFFFFFFFFFFFFFFFFFFF AND CALLER PUSH20 0xFFFFFFFFFFFFFFFFFFFFFFFFFFFFFFFFFFFFFFFF AND EQ PUSH2 0xF92 JUMPI PUSH1 0x40 MLOAD PUSH32 0x8C379A000000000000000000000000000000000000000000000000000000000 DUP2 MSTORE PUSH1 0x4 ADD PUSH2 0xF89 SWAP1 PUSH2 0x1EC1 JUMP JUMPDEST PUSH1 0x40 MLOAD DUP1 SWAP2 SUB SWAP1 REVERT JUMPDEST POP JUMP JUMPDEST DUP2 PUSH20 0xFFFFFFFFFFFFFFFFFFFFFFFFFFFFFFFFFFFFFFFF AND PUSH4 0x52D1902D PUSH1 0x40 MLOAD DUP2 PUSH4 0xFFFFFFFF AND PUSH1 0xE0 SHL DUP2 MSTORE PUSH1 0x4 ADD PUSH1 0x20 PUSH1 0x40 MLOAD DUP1 DUP4 SUB DUP2 DUP7 GAS STATICCALL SWAP3 POP POP POP DUP1 ISZERO PUSH2 0xFFD JUMPI POP PUSH1 0x40 MLOAD RETURNDATASIZE PUSH1 0x1F NOT PUSH1 0x1F DUP3 ADD AND DUP3 ADD DUP1 PUSH1 0x40 MSTORE POP DUP2 ADD SWAP1 PUSH2 0xFFA SWAP2 SWAP1 PUSH2 0x1F09 JUMP JUMPDEST PUSH1 0x1 JUMPDEST PUSH2 0x103E JUMPI DUP2 PUSH1 0x40 MLOAD PUSH32 0x4C9C8CE300000000000000000000000000000000000000000000000000000000 DUP2 MSTORE PUSH1 0x4 ADD PUSH2 0x1035 SWAP2 SWAP1 PUSH2 0x198C JUMP JUMPDEST PUSH1 0x40 MLOAD DUP1 SWAP2 SUB SWAP1 REVERT JUMPDEST PUSH32 0x360894A13BA1A3210667C828492DB98DCA3E2076CC3735A920A3CA505D382BBC PUSH0 SHL DUP2 EQ PUSH2 0x10A4 JUMPI DUP1 PUSH1 0x40 MLOAD PUSH32 0xAA1D49A400000000000000000000000000000000000000000000000000000000 DUP2 MSTORE PUSH1 0x4 ADD PUSH2 0x109B SWAP2 SWAP1 PUSH2 0x16B3 JUMP JUMPDEST PUSH1 0x40 MLOAD DUP1 SWAP2 SUB SWAP1 REVERT JUMPDEST PUSH2 0x10AE DUP4 DUP4 PUSH2 0x11A0 JUMP JUMPDEST POP POP POP JUMP JUMPDEST PUSH32 0x0 PUSH20 0xFFFFFFFFFFFFFFFFFFFFFFFFFFFFFFFFFFFFFFFF AND ADDRESS PUSH20 0xFFFFFFFFFFFFFFFFFFFFFFFFFFFFFFFFFFFFFFFF AND EQ PUSH2 0x1138 JUMPI PUSH1 0x40 MLOAD PUSH32 0xE07C8DBA00000000000000000000000000000000000000000000000000000000 DUP2 MSTORE PUSH1 0x4 ADD PUSH1 0x40 MLOAD DUP1 SWAP2 SUB SWAP1 REVERT JUMPDEST JUMP JUMPDEST PUSH0 PUSH0 PUSH2 0x1144 PUSH2 0x1212 JUMP JUMPDEST SWAP1 POP DUP1 SWAP2 POP POP SWAP1 JUMP JUMPDEST PUSH0 PUSH2 0x1179 PUSH32 0x360894A13BA1A3210667C828492DB98DCA3E2076CC3735A920A3CA505D382BBC PUSH0 SHL PUSH2 0x123B JUMP JUMPDEST PUSH0 ADD PUSH0 SWAP1 SLOAD SWAP1 PUSH2 0x100 EXP SWAP1 DIV PUSH20 0xFFFFFFFFFFFFFFFFFFFFFFFFFFFFFFFFFFFFFFFF AND SWAP1 POP SWAP1 JUMP JUMPDEST PUSH2 0x11A9 DUP3 PUSH2 0x1244 JUMP JUMPDEST DUP2 PUSH20 0xFFFFFFFFFFFFFFFFFFFFFFFFFFFFFFFFFFFFFFFF AND PUSH32 0xBC7CD75A20EE27FD9ADEBAB32041F755214DBC6BFFA90CC0225B39DA2E5C2D3B PUSH1 0x40 MLOAD PUSH1 0x40 MLOAD DUP1 SWAP2 SUB SWAP1 LOG2 PUSH0 DUP2 MLOAD GT ISZERO PUSH2 0x1205 JUMPI PUSH2 0x11FF DUP3 DUP3 PUSH2 0x130D JUMP JUMPDEST POP PUSH2 0x120E JUMP JUMPDEST PUSH2 0x120D PUSH2 0x138D JUMP JUMPDEST JUMPDEST POP POP JUMP JUMPDEST PUSH0 PUSH32 0xF0C57E16840DF040F15088DC2F81FE391C3923BEC73E23A9662EFC9C229C6A00 PUSH0 SHL SWAP1 POP SWAP1 JUMP JUMPDEST PUSH0 DUP2 SWAP1 POP SWAP2 SWAP1 POP JUMP JUMPDEST PUSH0 DUP2 PUSH20 0xFFFFFFFFFFFFFFFFFFFFFFFFFFFFFFFFFFFFFFFF AND EXTCODESIZE SUB PUSH2 0x129F JUMPI DUP1 PUSH1 0x40 MLOAD PUSH32 0x4C9C8CE300000000000000000000000000000000000000000000000000000000 DUP2 MSTORE PUSH1 0x4 ADD PUSH2 0x1296 SWAP2 SWAP1 PUSH2 0x198C JUMP JUMPDEST PUSH1 0x40 MLOAD DUP1 SWAP2 SUB SWAP1 REVERT JUMPDEST DUP1 PUSH2 0x12CB PUSH32 0x360894A13BA1A3210667C828492DB98DCA3E2076CC3735A920A3CA505D382BBC PUSH0 SHL PUSH2 0x123B JUMP JUMPDEST PUSH0 ADD PUSH0 PUSH2 0x100 EXP DUP2 SLOAD DUP2 PUSH20 0xFFFFFFFFFFFFFFFFFFFFFFFFFFFFFFFFFFFFFFFF MUL NOT AND SWAP1 DUP4 PUSH20 0xFFFFFFFFFFFFFFFFFFFFFFFFFFFFFFFFFFFFFFFF AND MUL OR SWAP1 SSTORE POP POP JUMP JUMPDEST PUSH1 0x60 PUSH0 PUSH0 DUP5 PUSH20 0xFFFFFFFFFFFFFFFFFFFFFFFFFFFFFFFFFFFFFFFF AND DUP5 PUSH1 0x40 MLOAD PUSH2 0x1336 SWAP2 SWAP1 PUSH2 0x1F78 JUMP JUMPDEST PUSH0 PUSH1 0x40 MLOAD DUP1 DUP4 SUB DUP2 DUP6 GAS DELEGATECALL SWAP2 POP POP RETURNDATASIZE DUP1 PUSH0 DUP2 EQ PUSH2 0x136E JUMPI PUSH1 0x40 MLOAD SWAP2 POP PUSH1 0x1F NOT PUSH1 0x3F RETURNDATASIZE ADD AND DUP3 ADD PUSH1 0x40 MSTORE RETURNDATASIZE DUP3 MSTORE RETURNDATASIZE PUSH0 PUSH1 0x20 DUP5 ADD RETURNDATACOPY PUSH2 0x1373 JUMP JUMPDEST PUSH1 0x60 SWAP2 POP JUMPDEST POP SWAP2 POP SWAP2 POP PUSH2 0x1383 DUP6 DUP4 DUP4 PUSH2 0x13C9 JUMP JUMPDEST SWAP3 POP POP POP SWAP3 SWAP2 POP POP JUMP JUMPDEST PUSH0 CALLVALUE GT ISZERO PUSH2 0x13C7 JUMPI PUSH1 0x40 MLOAD PUSH32 0xB398979F00000000000000000000000000000000000000000000000000000000 DUP2 MSTORE PUSH1 0x4 ADD PUSH1 0x40 MLOAD DUP1 SWAP2 SUB SWAP1 REVERT JUMPDEST JUMP JUMPDEST PUSH1 0x60 DUP3 PUSH2 0x13DE JUMPI PUSH2 0x13D9 DUP3 PUSH2 0x1456 JUMP JUMPDEST PUSH2 0x144E JUMP JUMPDEST PUSH0 DUP3 MLOAD EQ DUP1 ISZERO PUSH2 0x1404 JUMPI POP PUSH0 DUP5 PUSH20 0xFFFFFFFFFFFFFFFFFFFFFFFFFFFFFFFFFFFFFFFF AND EXTCODESIZE EQ JUMPDEST ISZERO PUSH2 0x1446 JUMPI DUP4 PUSH1 0x40 MLOAD PUSH32 0x9996B31500000000000000000000000000000000000000000000000000000000 DUP2 MSTORE PUSH1 0x4 ADD PUSH2 0x143D SWAP2 SWAP1 PUSH2 0x198C JUMP JUMPDEST PUSH1 0x40 MLOAD DUP1 SWAP2 SUB SWAP1 REVERT JUMPDEST DUP2 SWAP1 POP PUSH2 0x144F JUMP JUMPDEST JUMPDEST SWAP4 SWAP3 POP POP POP JUMP JUMPDEST PUSH0 DUP2 MLOAD GT ISZERO PUSH2 0x1468 JUMPI DUP1 MLOAD DUP1 DUP3 PUSH1 0x20 ADD REVERT JUMPDEST PUSH1 0x40 MLOAD PUSH32 0xD6BDA27500000000000000000000000000000000000000000000000000000000 DUP2 MSTORE PUSH1 0x4 ADD PUSH1 0x40 MLOAD DUP1 SWAP2 SUB SWAP1 REVERT JUMPDEST PUSH0 PUSH1 0x40 MLOAD SWAP1 POP SWAP1 JUMP JUMPDEST PUSH0 PUSH0 REVERT JUMPDEST PUSH0 PUSH0 REVERT JUMPDEST PUSH0 PUSH20 0xFFFFFFFFFFFFFFFFFFFFFFFFFFFFFFFFFFFFFFFF DUP3 AND SWAP1 POP SWAP2 SWAP1 POP JUMP JUMPDEST PUSH0 PUSH2 0x14D4 DUP3 PUSH2 0x14AB JUMP JUMPDEST SWAP1 POP SWAP2 SWAP1 POP JUMP JUMPDEST PUSH2 0x14E4 DUP2 PUSH2 0x14CA JUMP JUMPDEST DUP2 EQ PUSH2 0x14EE JUMPI PUSH0 PUSH0 REVERT JUMPDEST POP JUMP JUMPDEST PUSH0 DUP2 CALLDATALOAD SWAP1 POP PUSH2 0x14FF DUP2 PUSH2 0x14DB JUMP JUMPDEST SWAP3 SWAP2 POP POP JUMP JUMPDEST PUSH0 PUSH0 REVERT JUMPDEST PUSH0 PUSH0 REVERT JUMPDEST PUSH0 PUSH1 0x1F NOT PUSH1 0x1F DUP4 ADD AND SWAP1 POP SWAP2 SWAP1 POP JUMP JUMPDEST PUSH32 0x4E487B7100000000000000000000000000000000000000000000000000000000 PUSH0 MSTORE PUSH1 0x41 PUSH1 0x4 MSTORE PUSH1 0x24 PUSH0 REVERT JUMPDEST PUSH2 0x1553 DUP3 PUSH2 0x150D JUMP JUMPDEST DUP2 ADD DUP2 DUP2 LT PUSH8 0xFFFFFFFFFFFFFFFF DUP3 GT OR ISZERO PUSH2 0x1572 JUMPI PUSH2 0x1571 PUSH2 0x151D JUMP JUMPDEST JUMPDEST DUP1 PUSH1 0x40 MSTORE POP POP POP JUMP JUMPDEST PUSH0 PUSH2 0x1584 PUSH2 0x149A JUMP JUMPDEST SWAP1 POP PUSH2 0x1590 DUP3 DUP3 PUSH2 0x154A JUMP JUMPDEST SWAP2 SWAP1 POP JUMP JUMPDEST PUSH0 PUSH8 0xFFFFFFFFFFFFFFFF DUP3 GT ISZERO PUSH2 0x15AF JUMPI PUSH2 0x15AE PUSH2 0x151D JUMP JUMPDEST JUMPDEST PUSH2 0x15B8 DUP3 PUSH2 0x150D JUMP JUMPDEST SWAP1 POP PUSH1 0x20 DUP2 ADD SWAP1 POP SWAP2 SWAP1 POP JUMP JUMPDEST DUP3 DUP2 DUP4 CALLDATACOPY PUSH0 DUP4 DUP4 ADD MSTORE POP POP POP JUMP JUMPDEST PUSH0 PUSH2 0x15E5 PUSH2 0x15E0 DUP5 PUSH2 0x1595 JUMP JUMPDEST PUSH2 0x157B JUMP JUMPDEST SWAP1 POP DUP3 DUP2 MSTORE PUSH1 0x20 DUP2 ADD DUP5 DUP5 DUP5 ADD GT ISZERO PUSH2 0x1601 JUMPI PUSH2 0x1600 PUSH2 0x1509 JUMP JUMPDEST JUMPDEST PUSH2 0x160C DUP5 DUP3 DUP6 PUSH2 0x15C5 JUMP JUMPDEST POP SWAP4 SWAP3 POP POP POP JUMP JUMPDEST PUSH0 DUP3 PUSH1 0x1F DUP4 ADD SLT PUSH2 0x1628 JUMPI PUSH2 0x1627 PUSH2 0x1505 JUMP JUMPDEST JUMPDEST DUP2 CALLDATALOAD PUSH2 0x1638 DUP5 DUP3 PUSH1 0x20 DUP7 ADD PUSH2 0x15D3 JUMP JUMPDEST SWAP2 POP POP SWAP3 SWAP2 POP POP JUMP JUMPDEST PUSH0 PUSH0 PUSH1 0x40 DUP4 DUP6 SUB SLT ISZERO PUSH2 0x1657 JUMPI PUSH2 0x1656 PUSH2 0x14A3 JUMP JUMPDEST JUMPDEST PUSH0 PUSH2 0x1664 DUP6 DUP3 DUP7 ADD PUSH2 0x14F1 JUMP JUMPDEST SWAP3 POP POP PUSH1 0x20 DUP4 ADD CALLDATALOAD PUSH8 0xFFFFFFFFFFFFFFFF DUP2 GT ISZERO PUSH2 0x1685 JUMPI PUSH2 0x1684 PUSH2 0x14A7 JUMP JUMPDEST JUMPDEST PUSH2 0x1691 DUP6 DUP3 DUP7 ADD PUSH2 0x1614 JUMP JUMPDEST SWAP2 POP POP SWAP3 POP SWAP3 SWAP1 POP JUMP JUMPDEST PUSH0 DUP2 SWAP1 POP SWAP2 SWAP1 POP JUMP JUMPDEST PUSH2 0x16AD DUP2 PUSH2 0x169B JUMP JUMPDEST DUP3 MSTORE POP POP JUMP JUMPDEST PUSH0 PUSH1 0x20 DUP3 ADD SWAP1 POP PUSH2 0x16C6 PUSH0 DUP4 ADD DUP5 PUSH2 0x16A4 JUMP JUMPDEST SWAP3 SWAP2 POP POP JUMP JUMPDEST PUSH0 DUP2 SWAP1 POP SWAP2 SWAP1 POP JUMP JUMPDEST PUSH2 0x16DE DUP2 PUSH2 0x16CC JUMP JUMPDEST DUP2 EQ PUSH2 0x16E8 JUMPI PUSH0 PUSH0 REVERT JUMPDEST POP JUMP JUMPDEST PUSH0 DUP2 CALLDATALOAD SWAP1 POP PUSH2 0x16F9 DUP2 PUSH2 0x16D5 JUMP JUMPDEST SWAP3 SWAP2 POP POP JUMP JUMPDEST PUSH0 PUSH1 0x20 DUP3 DUP5 SUB SLT ISZERO PUSH2 0x1714 JUMPI PUSH2 0x1713 PUSH2 0x14A3 JUMP JUMPDEST JUMPDEST PUSH0 PUSH2 0x1721 DUP5 DUP3 DUP6 ADD PUSH2 0x16EB JUMP JUMPDEST SWAP2 POP POP SWAP3 SWAP2 POP POP JUMP JUMPDEST PUSH2 0x1733 DUP2 PUSH2 0x14CA JUMP JUMPDEST DUP3 MSTORE POP POP JUMP JUMPDEST PUSH2 0x1742 DUP2 PUSH2 0x16CC JUMP JUMPDEST DUP3 MSTORE POP POP JUMP JUMPDEST PUSH0 DUP2 ISZERO ISZERO SWAP1 POP SWAP2 SWAP1 POP JUMP JUMPDEST PUSH2 0x175C DUP2 PUSH2 0x1748 JUMP JUMPDEST DUP3 MSTORE POP POP JUMP JUMPDEST PUSH0 PUSH2 0x140 DUP3 ADD SWAP1 POP PUSH2 0x1776 PUSH0 DUP4 ADD DUP14 PUSH2 0x172A JUMP JUMPDEST PUSH2 0x1783 PUSH1 0x20 DUP4 ADD DUP13 PUSH2 0x1739 JUMP JUMPDEST PUSH2 0x1790 PUSH1 0x40 DUP4 ADD DUP12 PUSH2 0x172A JUMP JUMPDEST PUSH2 0x179D PUSH1 0x60 DUP4 ADD DUP11 PUSH2 0x1739 JUMP JUMPDEST PUSH2 0x17AA PUSH1 0x80 DUP4 ADD DUP10 PUSH2 0x1739 JUMP JUMPDEST PUSH2 0x17B7 PUSH1 0xA0 DUP4 ADD DUP9 PUSH2 0x1739 JUMP JUMPDEST PUSH2 0x17C4 PUSH1 0xC0 DUP4 ADD DUP8 PUSH2 0x1753 JUMP JUMPDEST PUSH2 0x17D1 PUSH1 0xE0 DUP4 ADD DUP7 PUSH2 0x172A JUMP JUMPDEST PUSH2 0x17DF PUSH2 0x100 DUP4 ADD DUP6 PUSH2 0x1739 JUMP JUMPDEST PUSH2 0x17ED PUSH2 0x120 DUP4 ADD DUP5 PUSH2 0x172A JUMP JUMPDEST SWAP12 SWAP11 POP POP POP POP POP POP POP POP POP POP POP JUMP JUMPDEST PUSH0 PUSH1 0x20 DUP3 DUP5 SUB SLT ISZERO PUSH2 0x1811 JUMPI PUSH2 0x1810 PUSH2 0x14A3 JUMP JUMPDEST JUMPDEST PUSH0 PUSH2 0x181E DUP5 DUP3 DUP6 ADD PUSH2 0x14F1 JUMP JUMPDEST SWAP2 POP POP SWAP3 SWAP2 POP POP JUMP JUMPDEST PUSH0 DUP2 SWAP1 POP SWAP2 SWAP1 POP JUMP JUMPDEST PUSH2 0x1839 DUP2 PUSH2 0x1827 JUMP JUMPDEST DUP3 MSTORE POP POP JUMP JUMPDEST PUSH0 PUSH1 0x20 DUP3 ADD SWAP1 POP PUSH2 0x1852 PUSH0 DUP4 ADD DUP5 PUSH2 0x1830 JUMP JUMPDEST SWAP3 SWAP2 POP POP JUMP JUMPDEST PUSH0 DUP2 MLOAD SWAP1 POP SWAP2 SWAP1 POP JUMP JUMPDEST PUSH0 DUP3 DUP3 MSTORE PUSH1 0x20 DUP3 ADD SWAP1 POP SWAP3 SWAP2 POP POP JUMP JUMPDEST DUP3 DUP2 DUP4 MCOPY PUSH0 DUP4 DUP4 ADD MSTORE POP POP POP JUMP JUMPDEST PUSH0 PUSH2 0x188A DUP3 PUSH2 0x1858 JUMP JUMPDEST PUSH2 0x1894 DUP2 DUP6 PUSH2 0x1862 JUMP JUMPDEST SWAP4 POP PUSH2 0x18A4 DUP2 DUP6 PUSH1 0x20 DUP7 ADD PUSH2 0x1872 JUMP JUMPDEST PUSH2 0x18AD DUP2 PUSH2 0x150D JUMP JUMPDEST DUP5 ADD SWAP2 POP POP SWAP3 SWAP2 POP POP JUMP JUMPDEST PUSH0 PUSH1 0x20 DUP3 ADD SWAP1 POP DUP2 DUP2 SUB PUSH0 DUP4 ADD MSTORE PUSH2 0x18D0 DUP2 DUP5 PUSH2 0x1880 JUMP JUMPDEST SWAP1 POP SWAP3 SWAP2 POP POP JUMP JUMPDEST PUSH0 PUSH0 PUSH0 PUSH1 0x60 DUP5 DUP7 SUB SLT ISZERO PUSH2 0x18EF JUMPI PUSH2 0x18EE PUSH2 0x14A3 JUMP JUMPDEST JUMPDEST PUSH0 PUSH2 0x18FC DUP7 DUP3 DUP8 ADD PUSH2 0x16EB JUMP JUMPDEST SWAP4 POP POP PUSH1 0x20 PUSH2 0x190D DUP7 DUP3 DUP8 ADD PUSH2 0x16EB JUMP JUMPDEST SWAP3 POP POP PUSH1 0x40 PUSH2 0x191E DUP7 DUP3 DUP8 ADD PUSH2 0x14F1 JUMP JUMPDEST SWAP2 POP POP SWAP3 POP SWAP3 POP SWAP3 JUMP JUMPDEST PUSH0 PUSH0 PUSH0 PUSH0 PUSH1 0x80 DUP6 DUP8 SUB SLT ISZERO PUSH2 0x1940 JUMPI PUSH2 0x193F PUSH2 0x14A3 JUMP JUMPDEST JUMPDEST PUSH0 PUSH2 0x194D DUP8 DUP3 DUP9 ADD PUSH2 0x16EB JUMP JUMPDEST SWAP5 POP POP PUSH1 0x20 PUSH2 0x195E DUP8 DUP3 DUP9 ADD PUSH2 0x16EB JUMP JUMPDEST SWAP4 POP POP PUSH1 0x40 PUSH2 0x196F DUP8 DUP3 DUP9 ADD PUSH2 0x14F1 JUMP JUMPDEST SWAP3 POP POP PUSH1 0x60 PUSH2 0x1980 DUP8 DUP3 DUP9 ADD PUSH2 0x16EB JUMP JUMPDEST SWAP2 POP POP SWAP3 SWAP6 SWAP2 SWAP5 POP SWAP3 POP JUMP JUMPDEST PUSH0 PUSH1 0x20 DUP3 ADD SWAP1 POP PUSH2 0x199F PUSH0 DUP4 ADD DUP5 PUSH2 0x172A JUMP JUMPDEST SWAP3 SWAP2 POP POP JUMP JUMPDEST PUSH0 PUSH1 0x20 DUP3 ADD SWAP1 POP PUSH2 0x19B8 PUSH0 DUP4 ADD DUP5 PUSH2 0x1739 JUMP JUMPDEST SWAP3 SWAP2 POP POP JUMP JUMPDEST PUSH0 DUP2 SWAP1 POP SWAP2 SWAP1 POP JUMP JUMPDEST PUSH0 PUSH8 0xFFFFFFFFFFFFFFFF DUP3 AND SWAP1 POP SWAP2 SWAP1 POP JUMP JUMPDEST PUSH0 DUP2 SWAP1 POP SWAP2 SWAP1 POP JUMP JUMPDEST PUSH0 PUSH2 0x19FD PUSH2 0x19F8 PUSH2 0x19F3 DUP5 PUSH2 0x19BE JUMP JUMPDEST PUSH2 0x19DA JUMP JUMPDEST PUSH2 0x19C7 JUMP JUMPDEST SWAP1 POP SWAP2 SWAP1 POP JUMP JUMPDEST PUSH2 0x1A0D DUP2 PUSH2 0x19E3 JUMP JUMPDEST DUP3 MSTORE POP POP JUMP JUMPDEST PUSH0 PUSH1 0x20 DUP3 ADD SWAP1 POP PUSH2 0x1A26 PUSH0 DUP4 ADD DUP5 PUSH2 0x1A04 JUMP JUMPDEST SWAP3 SWAP2 POP POP JUMP JUMPDEST PUSH0 PUSH10 0xFFFFFFFFFFFFFFFFFFFF DUP3 AND SWAP1 POP SWAP2 SWAP1 POP JUMP JUMPDEST PUSH2 0x1A4A DUP2 PUSH2 0x1A2C JUMP JUMPDEST DUP2 EQ PUSH2 0x1A54 JUMPI PUSH0 PUSH0 REVERT JUMPDEST POP JUMP JUMPDEST PUSH0 DUP2 MLOAD SWAP1 POP PUSH2 0x1A65 DUP2 PUSH2 0x1A41 JUMP JUMPDEST SWAP3 SWAP2 POP POP JUMP JUMPDEST PUSH2 0x1A74 DUP2 PUSH2 0x1827 JUMP JUMPDEST DUP2 EQ PUSH2 0x1A7E JUMPI PUSH0 PUSH0 REVERT JUMPDEST POP JUMP JUMPDEST PUSH0 DUP2 MLOAD SWAP1 POP PUSH2 0x1A8F DUP2 PUSH2 0x1A6B JUMP JUMPDEST SWAP3 SWAP2 POP POP JUMP JUMPDEST PUSH0 DUP2 MLOAD SWAP1 POP PUSH2 0x1AA3 DUP2 PUSH2 0x16D5 JUMP JUMPDEST SWAP3 SWAP2 POP POP JUMP JUMPDEST PUSH0 PUSH0 PUSH0 PUSH0 PUSH0 PUSH1 0xA0 DUP7 DUP9 SUB SLT ISZERO PUSH2 0x1AC2 JUMPI PUSH2 0x1AC1 PUSH2 0x14A3 JUMP JUMPDEST JUMPDEST PUSH0 PUSH2 0x1ACF DUP9 DUP3 DUP10 ADD PUSH2 0x1A57 JUMP JUMPDEST SWAP6 POP POP PUSH1 0x20 PUSH2 0x1AE0 DUP9 DUP3 DUP10 ADD PUSH2 0x1A81 JUMP JUMPDEST SWAP5 POP POP PUSH1 0x40 PUSH2 0x1AF1 DUP9 DUP3 DUP10 ADD PUSH2 0x1A95 JUMP JUMPDEST SWAP4 POP POP PUSH1 0x60 PUSH2 0x1B02 DUP9 DUP3 DUP10 ADD PUSH2 0x1A95 JUMP JUMPDEST SWAP3 POP POP PUSH1 0x80 PUSH2 0x1B13 DUP9 DUP3 DUP10 ADD PUSH2 0x1A57 JUMP JUMPDEST SWAP2 POP POP SWAP3 SWAP6 POP SWAP3 SWAP6 SWAP1 SWAP4 POP JUMP JUMPDEST PUSH32 0x4E487B7100000000000000000000000000000000000000000000000000000000 PUSH0 MSTORE PUSH1 0x11 PUSH1 0x4 MSTORE PUSH1 0x24 PUSH0 REVERT JUMPDEST PUSH0 PUSH2 0x1B57 DUP3 PUSH2 0x16CC JUMP JUMPDEST SWAP2 POP PUSH2 0x1B62 DUP4 PUSH2 0x16CC JUMP JUMPDEST SWAP3 POP DUP3 DUP3 ADD SWAP1 POP DUP1 DUP3 GT ISZERO PUSH2 0x1B7A JUMPI PUSH2 0x1B79 PUSH2 0x1B20 JUMP JUMPDEST JUMPDEST SWAP3 SWAP2 POP POP JUMP JUMPDEST PUSH32 0x41756374696F6E2068617320656E646564000000000000000000000000000000 PUSH0 DUP3 ADD MSTORE POP JUMP JUMPDEST PUSH0 PUSH2 0x1BB4 PUSH1 0x11 DUP4 PUSH2 0x1862 JUMP JUMPDEST SWAP2 POP PUSH2 0x1BBF DUP3 PUSH2 0x1B80 JUMP JUMPDEST PUSH1 0x20 DUP3 ADD SWAP1 POP SWAP2 SWAP1 POP JUMP JUMPDEST PUSH0 PUSH1 0x20 DUP3 ADD SWAP1 POP DUP2 DUP2 SUB PUSH0 DUP4 ADD MSTORE PUSH2 0x1BE1 DUP2 PUSH2 0x1BA8 JUMP JUMPDEST SWAP1 POP SWAP2 SWAP1 POP JUMP JUMPDEST PUSH32 0x426964206D75737420626520686967686572207468616E2063757272656E7420 PUSH0 DUP3 ADD MSTORE PUSH32 0x6869676865737420626964000000000000000000000000000000000000000000 PUSH1 0x20 DUP3 ADD MSTORE POP JUMP JUMPDEST PUSH0 PUSH2 0x1C42 PUSH1 0x2B DUP4 PUSH2 0x1862 JUMP JUMPDEST SWAP2 POP PUSH2 0x1C4D DUP3 PUSH2 0x1BE8 JUMP JUMPDEST PUSH1 0x40 DUP3 ADD SWAP1 POP SWAP2 SWAP1 POP JUMP JUMPDEST PUSH0 PUSH1 0x20 DUP3 ADD SWAP1 POP DUP2 DUP2 SUB PUSH0 DUP4 ADD MSTORE PUSH2 0x1C6F DUP2 PUSH2 0x1C36 JUMP JUMPDEST SWAP1 POP SWAP2 SWAP1 POP JUMP JUMPDEST PUSH32 0x4F6E6C792061646D696E2063616E206372656174652061756374696F6E000000 PUSH0 DUP3 ADD MSTORE POP JUMP JUMPDEST PUSH0 PUSH2 0x1CAA PUSH1 0x1D DUP4 PUSH2 0x1862 JUMP JUMPDEST SWAP2 POP PUSH2 0x1CB5 DUP3 PUSH2 0x1C76 JUMP JUMPDEST PUSH1 0x20 DUP3 ADD SWAP1 POP SWAP2 SWAP1 POP JUMP JUMPDEST PUSH0 PUSH1 0x20 DUP3 ADD SWAP1 POP DUP2 DUP2 SUB PUSH0 DUP4 ADD MSTORE PUSH2 0x1CD7 DUP2 PUSH2 0x1C9E JUMP JUMPDEST SWAP1 POP SWAP2 SWAP1 POP JUMP JUMPDEST PUSH32 0x4475726174696F6E206D7573742062652067726561746572207468616E203130 PUSH0 DUP3 ADD MSTORE POP JUMP JUMPDEST PUSH0 PUSH2 0x1D12 PUSH1 0x20 DUP4 PUSH2 0x1862 JUMP JUMPDEST SWAP2 POP PUSH2 0x1D1D DUP3 PUSH2 0x1CDE JUMP JUMPDEST PUSH1 0x20 DUP3 ADD SWAP1 POP SWAP2 SWAP1 POP JUMP JUMPDEST PUSH0 PUSH1 0x20 DUP3 ADD SWAP1 POP DUP2 DUP2 SUB PUSH0 DUP4 ADD MSTORE PUSH2 0x1D3F DUP2 PUSH2 0x1D06 JUMP JUMPDEST SWAP1 POP SWAP2 SWAP1 POP JUMP JUMPDEST PUSH32 0x5374617274207072696365206D7573742062652067726561746572207468616E PUSH0 DUP3 ADD MSTORE PUSH32 0x2030000000000000000000000000000000000000000000000000000000000000 PUSH1 0x20 DUP3 ADD MSTORE POP JUMP JUMPDEST PUSH0 PUSH2 0x1DA0 PUSH1 0x22 DUP4 PUSH2 0x1862 JUMP JUMPDEST SWAP2 POP PUSH2 0x1DAB DUP3 PUSH2 0x1D46 JUMP JUMPDEST PUSH1 0x40 DUP3 ADD SWAP1 POP SWAP2 SWAP1 POP JUMP JUMPDEST PUSH0 PUSH1 0x20 DUP3 ADD SWAP1 POP DUP2 DUP2 SUB PUSH0 DUP4 ADD MSTORE PUSH2 0x1DCD DUP2 PUSH2 0x1D94 JUMP JUMPDEST SWAP1 POP SWAP2 SWAP1 POP JUMP JUMPDEST PUSH0 PUSH1 0x40 DUP3 ADD SWAP1 POP PUSH2 0x1DE7 PUSH0 DUP4 ADD DUP6 PUSH2 0x172A JUMP JUMPDEST PUSH2 0x1DF4 PUSH1 0x20 DUP4 ADD DUP5 PUSH2 0x1739 JUMP JUMPDEST SWAP4 SWAP3 POP POP POP JUMP JUMPDEST PUSH0 PUSH2 0x1E05 DUP3 PUSH2 0x16CC JUMP JUMPDEST SWAP2 POP PUSH32 0xFFFFFFFFFFFFFFFFFFFFFFFFFFFFFFFFFFFFFFFFFFFFFFFFFFFFFFFFFFFFFFFF DUP3 SUB PUSH2 0x1E37 JUMPI PUSH2 0x1E36 PUSH2 0x1B20 JUMP JUMPDEST JUMPDEST PUSH1 0x1 DUP3 ADD SWAP1 POP SWAP2 SWAP1 POP JUMP JUMPDEST PUSH0 PUSH1 0x60 DUP3 ADD SWAP1 POP PUSH2 0x1E55 PUSH0 DUP4 ADD DUP7 PUSH2 0x172A JUMP JUMPDEST PUSH2 0x1E62 PUSH1 0x20 DUP4 ADD DUP6 PUSH2 0x172A JUMP JUMPDEST PUSH2 0x1E6F PUSH1 0x40 DUP4 ADD DUP5 PUSH2 0x1739 JUMP JUMPDEST SWAP5 SWAP4 POP POP POP POP JUMP JUMPDEST PUSH32 0x4F6E6C792061646D696E2063616E207570677261646500000000000000000000 PUSH0 DUP3 ADD MSTORE POP JUMP JUMPDEST PUSH0 PUSH2 0x1EAB PUSH1 0x16 DUP4 PUSH2 0x1862 JUMP JUMPDEST SWAP2 POP PUSH2 0x1EB6 DUP3 PUSH2 0x1E77 JUMP JUMPDEST PUSH1 0x20 DUP3 ADD SWAP1 POP SWAP2 SWAP1 POP JUMP JUMPDEST PUSH0 PUSH1 0x20 DUP3 ADD SWAP1 POP DUP2 DUP2 SUB PUSH0 DUP4 ADD MSTORE PUSH2 0x1ED8 DUP2 PUSH2 0x1E9F JUMP JUMPDEST SWAP1 POP SWAP2 SWAP1 POP JUMP JUMPDEST PUSH2 0x1EE8 DUP2 PUSH2 0x169B JUMP JUMPDEST DUP2 EQ PUSH2 0x1EF2 JUMPI PUSH0 PUSH0 REVERT JUMPDEST POP JUMP JUMPDEST PUSH0 DUP2 MLOAD SWAP1 POP PUSH2 0x1F03 DUP2 PUSH2 0x1EDF JUMP JUMPDEST SWAP3 SWAP2 POP POP JUMP JUMPDEST PUSH0 PUSH1 0x20 DUP3 DUP5 SUB SLT ISZERO PUSH2 0x1F1E JUMPI PUSH2 0x1F1D PUSH2 0x14A3 JUMP JUMPDEST JUMPDEST PUSH0 PUSH2 0x1F2B DUP5 DUP3 DUP6 ADD PUSH2 0x1EF5 JUMP JUMPDEST SWAP2 POP POP SWAP3 SWAP2 POP POP JUMP JUMPDEST PUSH0 DUP2 MLOAD SWAP1 POP SWAP2 SWAP1 POP JUMP JUMPDEST PUSH0 DUP2 SWAP1 POP SWAP3 SWAP2 POP POP JUMP JUMPDEST PUSH0 PUSH2 0x1F52 DUP3 PUSH2 0x1F34 JUMP JUMPDEST PUSH2 0x1F5C DUP2 DUP6 PUSH2 0x1F3E JUMP JUMPDEST SWAP4 POP PUSH2 0x1F6C DUP2 DUP6 PUSH1 0x20 DUP7 ADD PUSH2 0x1872 JUMP JUMPDEST DUP1 DUP5 ADD SWAP2 POP POP SWAP3 SWAP2 POP POP JUMP JUMPDEST PUSH0 PUSH2 0x1F83 DUP3 DUP5 PUSH2 0x1F48 JUMP JUMPDEST SWAP2 POP DUP2 SWAP1 POP SWAP3 SWAP2 POP POP JUMP INVALID LOG2 PUSH5 0x6970667358 0x22 SLT KECCAK256 EXTCODEHASH DUP12 MCOPY PUSH22 0xA0E05498B3F0690F8B1F78F0FFB03D3FAE1BE763D574 0xC MUL PUSH5 0xB5C45C6473 PUSH16 0x6C634300081E00330000000000000000 "
				},
				"gasEstimates": {
					"creation": {
						"codeDepositCost": "1626400",
						"executionCost": "infinite",
						"totalCost": "infinite"
					},
					"external": {
						"UPGRADE_INTERFACE_VERSION()": "infinite",
						"admin()": "2596",
						"auctions(uint256)": "infinite",
						"createAuction(uint256,uint256,address,uint256)": "infinite",
						"endAuction(uint256)": "infinite",
						"getLatestPrice()": "infinite",
						"initialize()": "105984",
						"nextAuctionId()": "2535",
						"placeBid(uint256,uint256,address)": "infinite",
						"proxiableUUID()": "infinite",
						"setPriceFeed(address)": "24782",
						"upgradeToAndCall(address,bytes)": "infinite"
					},
					"internal": {
						"_authorizeUpgrade(address)": "infinite"
					}
				},
				"methodIdentifiers": {
					"UPGRADE_INTERFACE_VERSION()": "ad3cb1cc",
					"admin()": "f851a440",
					"auctions(uint256)": "571a26a0",
					"createAuction(uint256,uint256,address,uint256)": "b1cb48ef",
					"endAuction(uint256)": "b9a2de3a",
					"getLatestPrice()": "8e15f473",
					"initialize()": "8129fc1c",
					"nextAuctionId()": "fc528482",
					"placeBid(uint256,uint256,address)": "ad6561ec",
					"proxiableUUID()": "52d1902d",
					"setPriceFeed(address)": "724e78da",
					"upgradeToAndCall(address,bytes)": "4f1ef286"
				}
			},
			"storageLayout": {
				"storage": [
					{
						"astId": 1402,
						"contract": "contracts/NftAuction.sol:NftAuction",
						"label": "auctions",
						"offset": 0,
						"slot": "0",
						"type": "t_mapping(t_uint256,t_struct(Auction)1397_storage)"
					},
					{
						"astId": 1404,
						"contract": "contracts/NftAuction.sol:NftAuction",
						"label": "nextAuctionId",
						"offset": 0,
						"slot": "1",
						"type": "t_uint256"
					},
					{
						"astId": 1406,
						"contract": "contracts/NftAuction.sol:NftAuction",
						"label": "admin",
						"offset": 0,
						"slot": "2",
						"type": "t_address"
					},
					{
						"astId": 1409,
						"contract": "contracts/NftAuction.sol:NftAuction",
						"label": "priceETHFeed",
						"offset": 0,
						"slot": "3",
						"type": "t_contract(AggregatorV3Interface)45"
					}
				],
				"types": {
					"t_address": {
						"encoding": "inplace",
						"label": "address",
						"numberOfBytes": "20"
					},
					"t_bool": {
						"encoding": "inplace",
						"label": "bool",
						"numberOfBytes": "1"
					},
					"t_contract(AggregatorV3Interface)45": {
						"encoding": "inplace",
						"label": "contract AggregatorV3Interface",
						"numberOfBytes": "20"
					},
					"t_mapping(t_uint256,t_struct(Auction)1397_storage)": {
						"encoding": "mapping",
						"key": "t_uint256",
						"label": "mapping(uint256 => struct NftAuction.Auction)",
						"numberOfBytes": "32",
						"value": "t_struct(Auction)1397_storage"
					},
					"t_struct(Auction)1397_storage": {
						"encoding": "inplace",
						"label": "struct NftAuction.Auction",
						"members": [
							{
								"astId": 1378,
								"contract": "contracts/NftAuction.sol:NftAuction",
								"label": "nftContract",
								"offset": 0,
								"slot": "0",
								"type": "t_address"
							},
							{
								"astId": 1380,
								"contract": "contracts/NftAuction.sol:NftAuction",
								"label": "tokenId",
								"offset": 0,
								"slot": "1",
								"type": "t_uint256"
							},
							{
								"astId": 1382,
								"contract": "contracts/NftAuction.sol:NftAuction",
								"label": "seller",
								"offset": 0,
								"slot": "2",
								"type": "t_address"
							},
							{
								"astId": 1384,
								"contract": "contracts/NftAuction.sol:NftAuction",
								"label": "duration",
								"offset": 0,
								"slot": "3",
								"type": "t_uint256"
							},
							{
								"astId": 1386,
								"contract": "contracts/NftAuction.sol:NftAuction",
								"label": "startPrice",
								"offset": 0,
								"slot": "4",
								"type": "t_uint256"
							},
							{
								"astId": 1388,
								"contract": "contracts/NftAuction.sol:NftAuction",
								"label": "startTime",
								"offset": 0,
								"slot": "5",
								"type": "t_uint256"
							},
							{
								"astId": 1390,
								"contract": "contracts/NftAuction.sol:NftAuction",
								"label": "ended",
								"offset": 0,
								"slot": "6",
								"type": "t_bool"
							},
							{
								"astId": 1392,
								"contract": "contracts/NftAuction.sol:NftAuction",
								"label": "highestBidder",
								"offset": 1,
								"slot": "6",
								"type": "t_address"
							},
							{
								"astId": 1394,
								"contract": "contracts/NftAuction.sol:NftAuction",
								"label": "highestBid",
								"offset": 0,
								"slot": "7",
								"type": "t_uint256"
							},
							{
								"astId": 1396,
								"contract": "contracts/NftAuction.sol:NftAuction",
								"label": "tokenAddress",
								"offset": 0,
								"slot": "8",
								"type": "t_address"
							}
						],
						"numberOfBytes": "288"
					},
					"t_uint256": {
						"encoding": "inplace",
						"label": "uint256",
						"numberOfBytes": "32"
					}
				}
			},
			"userdoc": {
				"kind": "user",
				"methods": {},
				"version": 1
			}
		}
	}
}